ARM GAS  /tmp/ccJTbD9y.s 			page 1


   1              		.syntax unified
   2              		.cpu cortex-m3
   3              		.fpu softvfp
   4              		.eabi_attribute 20, 1
   5              		.eabi_attribute 21, 1
   6              		.eabi_attribute 23, 3
   7              		.eabi_attribute 24, 1
   8              		.eabi_attribute 25, 1
   9              		.eabi_attribute 26, 1
  10              		.eabi_attribute 30, 1
  11              		.eabi_attribute 34, 1
  12              		.eabi_attribute 18, 4
  13              		.thumb
  14              		.syntax unified
  15              		.file	"stm32f1xx_hal_rcc.c"
  16              		.text
  17              	.Ltext0:
  18              		.cfi_sections	.debug_frame
  19              		.section	.text.RCC_Delay,"ax",%progbits
  20              		.align	2
  21              		.thumb
  22              		.thumb_func
  24              	RCC_Delay:
  25              	.LFB77:
  26              		.file 1 "Drivers/STM32F1xx_HAL_Driver/Src/stm32f1xx_hal_rcc.c"
   1:Drivers/STM32F1xx_HAL_Driver/Src/stm32f1xx_hal_rcc.c **** /**
   2:Drivers/STM32F1xx_HAL_Driver/Src/stm32f1xx_hal_rcc.c ****   ******************************************************************************
   3:Drivers/STM32F1xx_HAL_Driver/Src/stm32f1xx_hal_rcc.c ****   * @file    stm32f1xx_hal_rcc.c
   4:Drivers/STM32F1xx_HAL_Driver/Src/stm32f1xx_hal_rcc.c ****   * @author  MCD Application Team
   5:Drivers/STM32F1xx_HAL_Driver/Src/stm32f1xx_hal_rcc.c ****   * @version V1.1.1
   6:Drivers/STM32F1xx_HAL_Driver/Src/stm32f1xx_hal_rcc.c ****   * @date    12-May-2017
   7:Drivers/STM32F1xx_HAL_Driver/Src/stm32f1xx_hal_rcc.c ****   * @brief   RCC HAL module driver.
   8:Drivers/STM32F1xx_HAL_Driver/Src/stm32f1xx_hal_rcc.c ****   *          This file provides firmware functions to manage the following 
   9:Drivers/STM32F1xx_HAL_Driver/Src/stm32f1xx_hal_rcc.c ****   *          functionalities of the Reset and Clock Control (RCC) peripheral:
  10:Drivers/STM32F1xx_HAL_Driver/Src/stm32f1xx_hal_rcc.c ****   *           + Initialization and de-initialization functions
  11:Drivers/STM32F1xx_HAL_Driver/Src/stm32f1xx_hal_rcc.c ****   *           + Peripheral Control functions
  12:Drivers/STM32F1xx_HAL_Driver/Src/stm32f1xx_hal_rcc.c ****   *       
  13:Drivers/STM32F1xx_HAL_Driver/Src/stm32f1xx_hal_rcc.c ****   @verbatim                
  14:Drivers/STM32F1xx_HAL_Driver/Src/stm32f1xx_hal_rcc.c ****   ==============================================================================
  15:Drivers/STM32F1xx_HAL_Driver/Src/stm32f1xx_hal_rcc.c ****                       ##### RCC specific features #####
  16:Drivers/STM32F1xx_HAL_Driver/Src/stm32f1xx_hal_rcc.c ****   ==============================================================================
  17:Drivers/STM32F1xx_HAL_Driver/Src/stm32f1xx_hal_rcc.c ****     [..]  
  18:Drivers/STM32F1xx_HAL_Driver/Src/stm32f1xx_hal_rcc.c ****       After reset the device is running from Internal High Speed oscillator
  19:Drivers/STM32F1xx_HAL_Driver/Src/stm32f1xx_hal_rcc.c ****       (HSI 8MHz) with Flash 0 wait state, Flash prefetch buffer is enabled, 
  20:Drivers/STM32F1xx_HAL_Driver/Src/stm32f1xx_hal_rcc.c ****       and all peripherals are off except internal SRAM, Flash and JTAG.
  21:Drivers/STM32F1xx_HAL_Driver/Src/stm32f1xx_hal_rcc.c ****       (+) There is no prescaler on High speed (AHB) and Low speed (APB) buses;
  22:Drivers/STM32F1xx_HAL_Driver/Src/stm32f1xx_hal_rcc.c ****           all peripherals mapped on these buses are running at HSI speed.
  23:Drivers/STM32F1xx_HAL_Driver/Src/stm32f1xx_hal_rcc.c ****       (+) The clock for all peripherals is switched off, except the SRAM and FLASH.
  24:Drivers/STM32F1xx_HAL_Driver/Src/stm32f1xx_hal_rcc.c ****       (+) All GPIOs are in input floating state, except the JTAG pins which
  25:Drivers/STM32F1xx_HAL_Driver/Src/stm32f1xx_hal_rcc.c ****           are assigned to be used for debug purpose.
  26:Drivers/STM32F1xx_HAL_Driver/Src/stm32f1xx_hal_rcc.c ****     [..] Once the device started from reset, the user application has to:
  27:Drivers/STM32F1xx_HAL_Driver/Src/stm32f1xx_hal_rcc.c ****       (+) Configure the clock source to be used to drive the System clock
  28:Drivers/STM32F1xx_HAL_Driver/Src/stm32f1xx_hal_rcc.c ****           (if the application needs higher frequency/performance)
  29:Drivers/STM32F1xx_HAL_Driver/Src/stm32f1xx_hal_rcc.c ****       (+) Configure the System clock frequency and Flash settings  
  30:Drivers/STM32F1xx_HAL_Driver/Src/stm32f1xx_hal_rcc.c ****       (+) Configure the AHB and APB buses prescalers
  31:Drivers/STM32F1xx_HAL_Driver/Src/stm32f1xx_hal_rcc.c ****       (+) Enable the clock for the peripheral(s) to be used
  32:Drivers/STM32F1xx_HAL_Driver/Src/stm32f1xx_hal_rcc.c ****       (+) Configure the clock source(s) for peripherals whose clocks are not
ARM GAS  /tmp/ccJTbD9y.s 			page 2


  33:Drivers/STM32F1xx_HAL_Driver/Src/stm32f1xx_hal_rcc.c ****           derived from the System clock (I2S, RTC, ADC, USB OTG FS) 
  34:Drivers/STM32F1xx_HAL_Driver/Src/stm32f1xx_hal_rcc.c **** 
  35:Drivers/STM32F1xx_HAL_Driver/Src/stm32f1xx_hal_rcc.c ****                       ##### RCC Limitations #####
  36:Drivers/STM32F1xx_HAL_Driver/Src/stm32f1xx_hal_rcc.c ****   ==============================================================================
  37:Drivers/STM32F1xx_HAL_Driver/Src/stm32f1xx_hal_rcc.c ****     [..]  
  38:Drivers/STM32F1xx_HAL_Driver/Src/stm32f1xx_hal_rcc.c ****       A delay between an RCC peripheral clock enable and the effective peripheral 
  39:Drivers/STM32F1xx_HAL_Driver/Src/stm32f1xx_hal_rcc.c ****       enabling should be taken into account in order to manage the peripheral read/write 
  40:Drivers/STM32F1xx_HAL_Driver/Src/stm32f1xx_hal_rcc.c ****       from/to registers.
  41:Drivers/STM32F1xx_HAL_Driver/Src/stm32f1xx_hal_rcc.c ****       (+) This delay depends on the peripheral mapping.
  42:Drivers/STM32F1xx_HAL_Driver/Src/stm32f1xx_hal_rcc.c ****         (++) AHB & APB peripherals, 1 dummy read is necessary
  43:Drivers/STM32F1xx_HAL_Driver/Src/stm32f1xx_hal_rcc.c **** 
  44:Drivers/STM32F1xx_HAL_Driver/Src/stm32f1xx_hal_rcc.c ****     [..]  
  45:Drivers/STM32F1xx_HAL_Driver/Src/stm32f1xx_hal_rcc.c ****       Workarounds:
  46:Drivers/STM32F1xx_HAL_Driver/Src/stm32f1xx_hal_rcc.c ****       (#) For AHB & APB peripherals, a dummy read to the peripheral register has been
  47:Drivers/STM32F1xx_HAL_Driver/Src/stm32f1xx_hal_rcc.c ****           inserted in each __HAL_RCC_PPP_CLK_ENABLE() macro.
  48:Drivers/STM32F1xx_HAL_Driver/Src/stm32f1xx_hal_rcc.c **** 
  49:Drivers/STM32F1xx_HAL_Driver/Src/stm32f1xx_hal_rcc.c ****   @endverbatim
  50:Drivers/STM32F1xx_HAL_Driver/Src/stm32f1xx_hal_rcc.c ****   ******************************************************************************
  51:Drivers/STM32F1xx_HAL_Driver/Src/stm32f1xx_hal_rcc.c ****   * @attention
  52:Drivers/STM32F1xx_HAL_Driver/Src/stm32f1xx_hal_rcc.c ****   *
  53:Drivers/STM32F1xx_HAL_Driver/Src/stm32f1xx_hal_rcc.c ****   * <h2><center>&copy; COPYRIGHT(c) 2016 STMicroelectronics</center></h2>
  54:Drivers/STM32F1xx_HAL_Driver/Src/stm32f1xx_hal_rcc.c ****   *
  55:Drivers/STM32F1xx_HAL_Driver/Src/stm32f1xx_hal_rcc.c ****   * Redistribution and use in source and binary forms, with or without modification,
  56:Drivers/STM32F1xx_HAL_Driver/Src/stm32f1xx_hal_rcc.c ****   * are permitted provided that the following conditions are met:
  57:Drivers/STM32F1xx_HAL_Driver/Src/stm32f1xx_hal_rcc.c ****   *   1. Redistributions of source code must retain the above copyright notice,
  58:Drivers/STM32F1xx_HAL_Driver/Src/stm32f1xx_hal_rcc.c ****   *      this list of conditions and the following disclaimer.
  59:Drivers/STM32F1xx_HAL_Driver/Src/stm32f1xx_hal_rcc.c ****   *   2. Redistributions in binary form must reproduce the above copyright notice,
  60:Drivers/STM32F1xx_HAL_Driver/Src/stm32f1xx_hal_rcc.c ****   *      this list of conditions and the following disclaimer in the documentation
  61:Drivers/STM32F1xx_HAL_Driver/Src/stm32f1xx_hal_rcc.c ****   *      and/or other materials provided with the distribution.
  62:Drivers/STM32F1xx_HAL_Driver/Src/stm32f1xx_hal_rcc.c ****   *   3. Neither the name of STMicroelectronics nor the names of its contributors
  63:Drivers/STM32F1xx_HAL_Driver/Src/stm32f1xx_hal_rcc.c ****   *      may be used to endorse or promote products derived from this software
  64:Drivers/STM32F1xx_HAL_Driver/Src/stm32f1xx_hal_rcc.c ****   *      without specific prior written permission.
  65:Drivers/STM32F1xx_HAL_Driver/Src/stm32f1xx_hal_rcc.c ****   *
  66:Drivers/STM32F1xx_HAL_Driver/Src/stm32f1xx_hal_rcc.c ****   * THIS SOFTWARE IS PROVIDED BY THE COPYRIGHT HOLDERS AND CONTRIBUTORS "AS IS"
  67:Drivers/STM32F1xx_HAL_Driver/Src/stm32f1xx_hal_rcc.c ****   * AND ANY EXPRESS OR IMPLIED WARRANTIES, INCLUDING, BUT NOT LIMITED TO, THE
  68:Drivers/STM32F1xx_HAL_Driver/Src/stm32f1xx_hal_rcc.c ****   * IMPLIED WARRANTIES OF MERCHANTABILITY AND FITNESS FOR A PARTICULAR PURPOSE ARE
  69:Drivers/STM32F1xx_HAL_Driver/Src/stm32f1xx_hal_rcc.c ****   * DISCLAIMED. IN NO EVENT SHALL THE COPYRIGHT HOLDER OR CONTRIBUTORS BE LIABLE
  70:Drivers/STM32F1xx_HAL_Driver/Src/stm32f1xx_hal_rcc.c ****   * FOR ANY DIRECT, INDIRECT, INCIDENTAL, SPECIAL, EXEMPLARY, OR CONSEQUENTIAL
  71:Drivers/STM32F1xx_HAL_Driver/Src/stm32f1xx_hal_rcc.c ****   * DAMAGES (INCLUDING, BUT NOT LIMITED TO, PROCUREMENT OF SUBSTITUTE GOODS OR
  72:Drivers/STM32F1xx_HAL_Driver/Src/stm32f1xx_hal_rcc.c ****   * SERVICES; LOSS OF USE, DATA, OR PROFITS; OR BUSINESS INTERRUPTION) HOWEVER
  73:Drivers/STM32F1xx_HAL_Driver/Src/stm32f1xx_hal_rcc.c ****   * CAUSED AND ON ANY THEORY OF LIABILITY, WHETHER IN CONTRACT, STRICT LIABILITY,
  74:Drivers/STM32F1xx_HAL_Driver/Src/stm32f1xx_hal_rcc.c ****   * OR TORT (INCLUDING NEGLIGENCE OR OTHERWISE) ARISING IN ANY WAY OUT OF THE USE
  75:Drivers/STM32F1xx_HAL_Driver/Src/stm32f1xx_hal_rcc.c ****   * OF THIS SOFTWARE, EVEN IF ADVISED OF THE POSSIBILITY OF SUCH DAMAGE.
  76:Drivers/STM32F1xx_HAL_Driver/Src/stm32f1xx_hal_rcc.c ****   *
  77:Drivers/STM32F1xx_HAL_Driver/Src/stm32f1xx_hal_rcc.c ****   ******************************************************************************  
  78:Drivers/STM32F1xx_HAL_Driver/Src/stm32f1xx_hal_rcc.c **** */
  79:Drivers/STM32F1xx_HAL_Driver/Src/stm32f1xx_hal_rcc.c ****   
  80:Drivers/STM32F1xx_HAL_Driver/Src/stm32f1xx_hal_rcc.c **** /* Includes ------------------------------------------------------------------*/
  81:Drivers/STM32F1xx_HAL_Driver/Src/stm32f1xx_hal_rcc.c **** #include "stm32f1xx_hal.h"
  82:Drivers/STM32F1xx_HAL_Driver/Src/stm32f1xx_hal_rcc.c **** 
  83:Drivers/STM32F1xx_HAL_Driver/Src/stm32f1xx_hal_rcc.c **** /** @addtogroup STM32F1xx_HAL_Driver
  84:Drivers/STM32F1xx_HAL_Driver/Src/stm32f1xx_hal_rcc.c ****   * @{
  85:Drivers/STM32F1xx_HAL_Driver/Src/stm32f1xx_hal_rcc.c ****   */
  86:Drivers/STM32F1xx_HAL_Driver/Src/stm32f1xx_hal_rcc.c **** 
  87:Drivers/STM32F1xx_HAL_Driver/Src/stm32f1xx_hal_rcc.c **** /** @defgroup RCC RCC
  88:Drivers/STM32F1xx_HAL_Driver/Src/stm32f1xx_hal_rcc.c **** * @brief RCC HAL module driver
  89:Drivers/STM32F1xx_HAL_Driver/Src/stm32f1xx_hal_rcc.c ****   * @{
ARM GAS  /tmp/ccJTbD9y.s 			page 3


  90:Drivers/STM32F1xx_HAL_Driver/Src/stm32f1xx_hal_rcc.c ****   */
  91:Drivers/STM32F1xx_HAL_Driver/Src/stm32f1xx_hal_rcc.c **** 
  92:Drivers/STM32F1xx_HAL_Driver/Src/stm32f1xx_hal_rcc.c **** #ifdef HAL_RCC_MODULE_ENABLED
  93:Drivers/STM32F1xx_HAL_Driver/Src/stm32f1xx_hal_rcc.c **** 
  94:Drivers/STM32F1xx_HAL_Driver/Src/stm32f1xx_hal_rcc.c **** /* Private typedef -----------------------------------------------------------*/
  95:Drivers/STM32F1xx_HAL_Driver/Src/stm32f1xx_hal_rcc.c **** /* Private define ------------------------------------------------------------*/
  96:Drivers/STM32F1xx_HAL_Driver/Src/stm32f1xx_hal_rcc.c **** /** @defgroup RCC_Private_Constants RCC Private Constants
  97:Drivers/STM32F1xx_HAL_Driver/Src/stm32f1xx_hal_rcc.c ****  * @{
  98:Drivers/STM32F1xx_HAL_Driver/Src/stm32f1xx_hal_rcc.c ****  */
  99:Drivers/STM32F1xx_HAL_Driver/Src/stm32f1xx_hal_rcc.c **** /**
 100:Drivers/STM32F1xx_HAL_Driver/Src/stm32f1xx_hal_rcc.c ****   * @}
 101:Drivers/STM32F1xx_HAL_Driver/Src/stm32f1xx_hal_rcc.c ****   */
 102:Drivers/STM32F1xx_HAL_Driver/Src/stm32f1xx_hal_rcc.c **** /* Private macro -------------------------------------------------------------*/
 103:Drivers/STM32F1xx_HAL_Driver/Src/stm32f1xx_hal_rcc.c **** /** @defgroup RCC_Private_Macros RCC Private Macros
 104:Drivers/STM32F1xx_HAL_Driver/Src/stm32f1xx_hal_rcc.c ****   * @{
 105:Drivers/STM32F1xx_HAL_Driver/Src/stm32f1xx_hal_rcc.c ****   */
 106:Drivers/STM32F1xx_HAL_Driver/Src/stm32f1xx_hal_rcc.c **** 
 107:Drivers/STM32F1xx_HAL_Driver/Src/stm32f1xx_hal_rcc.c **** #define MCO1_CLK_ENABLE()     __HAL_RCC_GPIOA_CLK_ENABLE()
 108:Drivers/STM32F1xx_HAL_Driver/Src/stm32f1xx_hal_rcc.c **** #define MCO1_GPIO_PORT        GPIOA
 109:Drivers/STM32F1xx_HAL_Driver/Src/stm32f1xx_hal_rcc.c **** #define MCO1_PIN              GPIO_PIN_8
 110:Drivers/STM32F1xx_HAL_Driver/Src/stm32f1xx_hal_rcc.c **** 
 111:Drivers/STM32F1xx_HAL_Driver/Src/stm32f1xx_hal_rcc.c **** /**
 112:Drivers/STM32F1xx_HAL_Driver/Src/stm32f1xx_hal_rcc.c ****   * @}
 113:Drivers/STM32F1xx_HAL_Driver/Src/stm32f1xx_hal_rcc.c ****   */
 114:Drivers/STM32F1xx_HAL_Driver/Src/stm32f1xx_hal_rcc.c **** 
 115:Drivers/STM32F1xx_HAL_Driver/Src/stm32f1xx_hal_rcc.c **** /* Private variables ---------------------------------------------------------*/
 116:Drivers/STM32F1xx_HAL_Driver/Src/stm32f1xx_hal_rcc.c **** /** @defgroup RCC_Private_Variables RCC Private Variables
 117:Drivers/STM32F1xx_HAL_Driver/Src/stm32f1xx_hal_rcc.c ****   * @{
 118:Drivers/STM32F1xx_HAL_Driver/Src/stm32f1xx_hal_rcc.c ****   */
 119:Drivers/STM32F1xx_HAL_Driver/Src/stm32f1xx_hal_rcc.c **** /**
 120:Drivers/STM32F1xx_HAL_Driver/Src/stm32f1xx_hal_rcc.c ****   * @}
 121:Drivers/STM32F1xx_HAL_Driver/Src/stm32f1xx_hal_rcc.c ****   */
 122:Drivers/STM32F1xx_HAL_Driver/Src/stm32f1xx_hal_rcc.c **** 
 123:Drivers/STM32F1xx_HAL_Driver/Src/stm32f1xx_hal_rcc.c **** /* Private function prototypes -----------------------------------------------*/
 124:Drivers/STM32F1xx_HAL_Driver/Src/stm32f1xx_hal_rcc.c **** static void RCC_Delay(uint32_t mdelay);
 125:Drivers/STM32F1xx_HAL_Driver/Src/stm32f1xx_hal_rcc.c **** 
 126:Drivers/STM32F1xx_HAL_Driver/Src/stm32f1xx_hal_rcc.c **** /* Exported functions --------------------------------------------------------*/
 127:Drivers/STM32F1xx_HAL_Driver/Src/stm32f1xx_hal_rcc.c **** 
 128:Drivers/STM32F1xx_HAL_Driver/Src/stm32f1xx_hal_rcc.c **** /** @defgroup RCC_Exported_Functions RCC Exported Functions
 129:Drivers/STM32F1xx_HAL_Driver/Src/stm32f1xx_hal_rcc.c ****   * @{
 130:Drivers/STM32F1xx_HAL_Driver/Src/stm32f1xx_hal_rcc.c ****   */
 131:Drivers/STM32F1xx_HAL_Driver/Src/stm32f1xx_hal_rcc.c **** 
 132:Drivers/STM32F1xx_HAL_Driver/Src/stm32f1xx_hal_rcc.c **** /** @defgroup RCC_Exported_Functions_Group1 Initialization and de-initialization functions 
 133:Drivers/STM32F1xx_HAL_Driver/Src/stm32f1xx_hal_rcc.c ****   *  @brief    Initialization and Configuration functions 
 134:Drivers/STM32F1xx_HAL_Driver/Src/stm32f1xx_hal_rcc.c ****   *
 135:Drivers/STM32F1xx_HAL_Driver/Src/stm32f1xx_hal_rcc.c ****   @verbatim    
 136:Drivers/STM32F1xx_HAL_Driver/Src/stm32f1xx_hal_rcc.c ****   ===============================================================================
 137:Drivers/STM32F1xx_HAL_Driver/Src/stm32f1xx_hal_rcc.c ****            ##### Initialization and de-initialization functions #####
 138:Drivers/STM32F1xx_HAL_Driver/Src/stm32f1xx_hal_rcc.c ****   ===============================================================================
 139:Drivers/STM32F1xx_HAL_Driver/Src/stm32f1xx_hal_rcc.c ****     [..]
 140:Drivers/STM32F1xx_HAL_Driver/Src/stm32f1xx_hal_rcc.c ****       This section provides functions allowing to configure the internal/external oscillators
 141:Drivers/STM32F1xx_HAL_Driver/Src/stm32f1xx_hal_rcc.c ****       (HSE, HSI, LSE, LSI, PLL, CSS and MCO) and the System buses clocks (SYSCLK, AHB, APB1
 142:Drivers/STM32F1xx_HAL_Driver/Src/stm32f1xx_hal_rcc.c ****       and APB2).
 143:Drivers/STM32F1xx_HAL_Driver/Src/stm32f1xx_hal_rcc.c **** 
 144:Drivers/STM32F1xx_HAL_Driver/Src/stm32f1xx_hal_rcc.c ****     [..] Internal/external clock and PLL configuration
 145:Drivers/STM32F1xx_HAL_Driver/Src/stm32f1xx_hal_rcc.c ****       (#) HSI (high-speed internal), 8 MHz factory-trimmed RC used directly or through
 146:Drivers/STM32F1xx_HAL_Driver/Src/stm32f1xx_hal_rcc.c ****           the PLL as System clock source.
ARM GAS  /tmp/ccJTbD9y.s 			page 4


 147:Drivers/STM32F1xx_HAL_Driver/Src/stm32f1xx_hal_rcc.c ****       (#) LSI (low-speed internal), ~40 KHz low consumption RC used as IWDG and/or RTC
 148:Drivers/STM32F1xx_HAL_Driver/Src/stm32f1xx_hal_rcc.c ****           clock source.
 149:Drivers/STM32F1xx_HAL_Driver/Src/stm32f1xx_hal_rcc.c **** 
 150:Drivers/STM32F1xx_HAL_Driver/Src/stm32f1xx_hal_rcc.c ****       (#) HSE (high-speed external), 4 to 24 MHz (STM32F100xx) or 4 to 16 MHz (STM32F101x/STM32F102
 151:Drivers/STM32F1xx_HAL_Driver/Src/stm32f1xx_hal_rcc.c ****           through the PLL as System clock source. Can be used also as RTC clock source.
 152:Drivers/STM32F1xx_HAL_Driver/Src/stm32f1xx_hal_rcc.c **** 
 153:Drivers/STM32F1xx_HAL_Driver/Src/stm32f1xx_hal_rcc.c ****       (#) LSE (low-speed external), 32 KHz oscillator used as RTC clock source.   
 154:Drivers/STM32F1xx_HAL_Driver/Src/stm32f1xx_hal_rcc.c **** 
 155:Drivers/STM32F1xx_HAL_Driver/Src/stm32f1xx_hal_rcc.c ****       (#) PLL (clocked by HSI or HSE), featuring different output clocks:
 156:Drivers/STM32F1xx_HAL_Driver/Src/stm32f1xx_hal_rcc.c ****         (++) The first output is used to generate the high speed system clock (up to 72 MHz for STM
 157:Drivers/STM32F1xx_HAL_Driver/Src/stm32f1xx_hal_rcc.c ****         (++) The second output is used to generate the clock for the USB OTG FS (48 MHz)
 158:Drivers/STM32F1xx_HAL_Driver/Src/stm32f1xx_hal_rcc.c **** 
 159:Drivers/STM32F1xx_HAL_Driver/Src/stm32f1xx_hal_rcc.c ****       (#) CSS (Clock security system), once enable using the macro __HAL_RCC_CSS_ENABLE()
 160:Drivers/STM32F1xx_HAL_Driver/Src/stm32f1xx_hal_rcc.c ****           and if a HSE clock failure occurs(HSE used directly or through PLL as System 
 161:Drivers/STM32F1xx_HAL_Driver/Src/stm32f1xx_hal_rcc.c ****           clock source), the System clocks automatically switched to HSI and an interrupt
 162:Drivers/STM32F1xx_HAL_Driver/Src/stm32f1xx_hal_rcc.c ****           is generated if enabled. The interrupt is linked to the Cortex-M3 NMI 
 163:Drivers/STM32F1xx_HAL_Driver/Src/stm32f1xx_hal_rcc.c ****           (Non-Maskable Interrupt) exception vector.   
 164:Drivers/STM32F1xx_HAL_Driver/Src/stm32f1xx_hal_rcc.c **** 
 165:Drivers/STM32F1xx_HAL_Driver/Src/stm32f1xx_hal_rcc.c ****       (#) MCO1 (microcontroller clock output), used to output SYSCLK, HSI,  
 166:Drivers/STM32F1xx_HAL_Driver/Src/stm32f1xx_hal_rcc.c ****           HSE or PLL clock (divided by 2) on PA8 pin + PLL2CLK, PLL3CLK/2, PLL3CLK and XTI for STM3
 167:Drivers/STM32F1xx_HAL_Driver/Src/stm32f1xx_hal_rcc.c **** 
 168:Drivers/STM32F1xx_HAL_Driver/Src/stm32f1xx_hal_rcc.c ****     [..] System, AHB and APB buses clocks configuration
 169:Drivers/STM32F1xx_HAL_Driver/Src/stm32f1xx_hal_rcc.c ****       (#) Several clock sources can be used to drive the System clock (SYSCLK): HSI,
 170:Drivers/STM32F1xx_HAL_Driver/Src/stm32f1xx_hal_rcc.c ****           HSE and PLL.
 171:Drivers/STM32F1xx_HAL_Driver/Src/stm32f1xx_hal_rcc.c ****           The AHB clock (HCLK) is derived from System clock through configurable
 172:Drivers/STM32F1xx_HAL_Driver/Src/stm32f1xx_hal_rcc.c ****           prescaler and used to clock the CPU, memory and peripherals mapped
 173:Drivers/STM32F1xx_HAL_Driver/Src/stm32f1xx_hal_rcc.c ****           on AHB bus (DMA, GPIO...). APB1 (PCLK1) and APB2 (PCLK2) clocks are derived
 174:Drivers/STM32F1xx_HAL_Driver/Src/stm32f1xx_hal_rcc.c ****           from AHB clock through configurable prescalers and used to clock
 175:Drivers/STM32F1xx_HAL_Driver/Src/stm32f1xx_hal_rcc.c ****           the peripherals mapped on these buses. You can use
 176:Drivers/STM32F1xx_HAL_Driver/Src/stm32f1xx_hal_rcc.c ****           "@ref HAL_RCC_GetSysClockFreq()" function to retrieve the frequencies of these clocks.
 177:Drivers/STM32F1xx_HAL_Driver/Src/stm32f1xx_hal_rcc.c **** 
 178:Drivers/STM32F1xx_HAL_Driver/Src/stm32f1xx_hal_rcc.c ****       -@- All the peripheral clocks are derived from the System clock (SYSCLK) except:
 179:Drivers/STM32F1xx_HAL_Driver/Src/stm32f1xx_hal_rcc.c ****           (+@) RTC: RTC clock can be derived either from the LSI, LSE or HSE clock
 180:Drivers/STM32F1xx_HAL_Driver/Src/stm32f1xx_hal_rcc.c ****               divided by 128. 
 181:Drivers/STM32F1xx_HAL_Driver/Src/stm32f1xx_hal_rcc.c ****           (+@) USB OTG FS and RTC: USB OTG FS require a frequency equal to 48 MHz
 182:Drivers/STM32F1xx_HAL_Driver/Src/stm32f1xx_hal_rcc.c ****               to work correctly. This clock is derived of the main PLL through PLL Multiplier.
 183:Drivers/STM32F1xx_HAL_Driver/Src/stm32f1xx_hal_rcc.c ****           (+@) I2S interface on STM32F105x/STM32F107x can be derived from PLL3CLK
 184:Drivers/STM32F1xx_HAL_Driver/Src/stm32f1xx_hal_rcc.c ****           (+@) IWDG clock which is always the LSI clock.
 185:Drivers/STM32F1xx_HAL_Driver/Src/stm32f1xx_hal_rcc.c **** 
 186:Drivers/STM32F1xx_HAL_Driver/Src/stm32f1xx_hal_rcc.c ****       (#) For STM32F10xxx, the maximum frequency of the SYSCLK and HCLK/PCLK2 is 72 MHz, PCLK1 36 M
 187:Drivers/STM32F1xx_HAL_Driver/Src/stm32f1xx_hal_rcc.c ****           For STM32F100xx, the maximum frequency of the SYSCLK and HCLK/PCLK1/PCLK2 is 24 MHz.  
 188:Drivers/STM32F1xx_HAL_Driver/Src/stm32f1xx_hal_rcc.c ****           Depending on the SYSCLK frequency, the flash latency should be adapted accordingly.
 189:Drivers/STM32F1xx_HAL_Driver/Src/stm32f1xx_hal_rcc.c ****   @endverbatim
 190:Drivers/STM32F1xx_HAL_Driver/Src/stm32f1xx_hal_rcc.c ****   * @{
 191:Drivers/STM32F1xx_HAL_Driver/Src/stm32f1xx_hal_rcc.c ****   */
 192:Drivers/STM32F1xx_HAL_Driver/Src/stm32f1xx_hal_rcc.c ****   
 193:Drivers/STM32F1xx_HAL_Driver/Src/stm32f1xx_hal_rcc.c **** /*
 194:Drivers/STM32F1xx_HAL_Driver/Src/stm32f1xx_hal_rcc.c ****   Additional consideration on the SYSCLK based on Latency settings:
 195:Drivers/STM32F1xx_HAL_Driver/Src/stm32f1xx_hal_rcc.c ****         +-----------------------------------------------+
 196:Drivers/STM32F1xx_HAL_Driver/Src/stm32f1xx_hal_rcc.c ****         | Latency       | SYSCLK clock frequency (MHz)  |
 197:Drivers/STM32F1xx_HAL_Driver/Src/stm32f1xx_hal_rcc.c ****         |---------------|-------------------------------|
 198:Drivers/STM32F1xx_HAL_Driver/Src/stm32f1xx_hal_rcc.c ****         |0WS(1CPU cycle)|       0 < SYSCLK <= 24        |
 199:Drivers/STM32F1xx_HAL_Driver/Src/stm32f1xx_hal_rcc.c ****         |---------------|-------------------------------|
 200:Drivers/STM32F1xx_HAL_Driver/Src/stm32f1xx_hal_rcc.c ****         |1WS(2CPU cycle)|      24 < SYSCLK <= 48        |
 201:Drivers/STM32F1xx_HAL_Driver/Src/stm32f1xx_hal_rcc.c ****         |---------------|-------------------------------|
 202:Drivers/STM32F1xx_HAL_Driver/Src/stm32f1xx_hal_rcc.c ****         |2WS(3CPU cycle)|      48 < SYSCLK <= 72        |
 203:Drivers/STM32F1xx_HAL_Driver/Src/stm32f1xx_hal_rcc.c ****         +-----------------------------------------------+
ARM GAS  /tmp/ccJTbD9y.s 			page 5


 204:Drivers/STM32F1xx_HAL_Driver/Src/stm32f1xx_hal_rcc.c ****   */
 205:Drivers/STM32F1xx_HAL_Driver/Src/stm32f1xx_hal_rcc.c **** 
 206:Drivers/STM32F1xx_HAL_Driver/Src/stm32f1xx_hal_rcc.c **** /**
 207:Drivers/STM32F1xx_HAL_Driver/Src/stm32f1xx_hal_rcc.c ****   * @brief  Resets the RCC clock configuration to the default reset state.
 208:Drivers/STM32F1xx_HAL_Driver/Src/stm32f1xx_hal_rcc.c ****   * @note   The default reset state of the clock configuration is given below:
 209:Drivers/STM32F1xx_HAL_Driver/Src/stm32f1xx_hal_rcc.c ****   *            - HSI ON and used as system clock source
 210:Drivers/STM32F1xx_HAL_Driver/Src/stm32f1xx_hal_rcc.c ****   *            - HSE and PLL OFF
 211:Drivers/STM32F1xx_HAL_Driver/Src/stm32f1xx_hal_rcc.c ****   *            - AHB, APB1 and APB2 prescaler set to 1.
 212:Drivers/STM32F1xx_HAL_Driver/Src/stm32f1xx_hal_rcc.c ****   *            - CSS and MCO1 OFF
 213:Drivers/STM32F1xx_HAL_Driver/Src/stm32f1xx_hal_rcc.c ****   *            - All interrupts disabled
 214:Drivers/STM32F1xx_HAL_Driver/Src/stm32f1xx_hal_rcc.c ****   * @note   This function does not modify the configuration of the
 215:Drivers/STM32F1xx_HAL_Driver/Src/stm32f1xx_hal_rcc.c ****   *            - Peripheral clocks
 216:Drivers/STM32F1xx_HAL_Driver/Src/stm32f1xx_hal_rcc.c ****   *            - LSI, LSE and RTC clocks
 217:Drivers/STM32F1xx_HAL_Driver/Src/stm32f1xx_hal_rcc.c ****   * @retval None
 218:Drivers/STM32F1xx_HAL_Driver/Src/stm32f1xx_hal_rcc.c ****   */
 219:Drivers/STM32F1xx_HAL_Driver/Src/stm32f1xx_hal_rcc.c **** void HAL_RCC_DeInit(void)
 220:Drivers/STM32F1xx_HAL_Driver/Src/stm32f1xx_hal_rcc.c **** {
 221:Drivers/STM32F1xx_HAL_Driver/Src/stm32f1xx_hal_rcc.c ****   /* Switch SYSCLK to HSI */
 222:Drivers/STM32F1xx_HAL_Driver/Src/stm32f1xx_hal_rcc.c ****   CLEAR_BIT(RCC->CFGR, RCC_CFGR_SW);
 223:Drivers/STM32F1xx_HAL_Driver/Src/stm32f1xx_hal_rcc.c **** 
 224:Drivers/STM32F1xx_HAL_Driver/Src/stm32f1xx_hal_rcc.c ****   /* Reset HSEON, CSSON, & PLLON bits */
 225:Drivers/STM32F1xx_HAL_Driver/Src/stm32f1xx_hal_rcc.c ****   CLEAR_BIT(RCC->CR, RCC_CR_HSEON | RCC_CR_CSSON | RCC_CR_PLLON);
 226:Drivers/STM32F1xx_HAL_Driver/Src/stm32f1xx_hal_rcc.c ****   
 227:Drivers/STM32F1xx_HAL_Driver/Src/stm32f1xx_hal_rcc.c ****   /* Reset HSEBYP bit */
 228:Drivers/STM32F1xx_HAL_Driver/Src/stm32f1xx_hal_rcc.c ****   CLEAR_BIT(RCC->CR, RCC_CR_HSEBYP);
 229:Drivers/STM32F1xx_HAL_Driver/Src/stm32f1xx_hal_rcc.c ****   
 230:Drivers/STM32F1xx_HAL_Driver/Src/stm32f1xx_hal_rcc.c ****   /* Reset CFGR register */
 231:Drivers/STM32F1xx_HAL_Driver/Src/stm32f1xx_hal_rcc.c ****   CLEAR_REG(RCC->CFGR);
 232:Drivers/STM32F1xx_HAL_Driver/Src/stm32f1xx_hal_rcc.c ****   
 233:Drivers/STM32F1xx_HAL_Driver/Src/stm32f1xx_hal_rcc.c ****   /* Set HSITRIM bits to the reset value */
 234:Drivers/STM32F1xx_HAL_Driver/Src/stm32f1xx_hal_rcc.c ****   MODIFY_REG(RCC->CR, RCC_CR_HSITRIM, (0x10U << RCC_CR_HSITRIM_Pos));
 235:Drivers/STM32F1xx_HAL_Driver/Src/stm32f1xx_hal_rcc.c ****   
 236:Drivers/STM32F1xx_HAL_Driver/Src/stm32f1xx_hal_rcc.c **** #if defined(RCC_CFGR2_SUPPORT)
 237:Drivers/STM32F1xx_HAL_Driver/Src/stm32f1xx_hal_rcc.c ****   /* Reset CFGR2 register */
 238:Drivers/STM32F1xx_HAL_Driver/Src/stm32f1xx_hal_rcc.c ****   CLEAR_REG(RCC->CFGR2);
 239:Drivers/STM32F1xx_HAL_Driver/Src/stm32f1xx_hal_rcc.c **** 
 240:Drivers/STM32F1xx_HAL_Driver/Src/stm32f1xx_hal_rcc.c **** #endif /* RCC_CFGR2_SUPPORT */
 241:Drivers/STM32F1xx_HAL_Driver/Src/stm32f1xx_hal_rcc.c ****   /* Disable all interrupts */
 242:Drivers/STM32F1xx_HAL_Driver/Src/stm32f1xx_hal_rcc.c ****   CLEAR_REG(RCC->CIR);
 243:Drivers/STM32F1xx_HAL_Driver/Src/stm32f1xx_hal_rcc.c **** 
 244:Drivers/STM32F1xx_HAL_Driver/Src/stm32f1xx_hal_rcc.c ****   /* Update the SystemCoreClock global variable */
 245:Drivers/STM32F1xx_HAL_Driver/Src/stm32f1xx_hal_rcc.c ****   SystemCoreClock = HSI_VALUE;
 246:Drivers/STM32F1xx_HAL_Driver/Src/stm32f1xx_hal_rcc.c **** }
 247:Drivers/STM32F1xx_HAL_Driver/Src/stm32f1xx_hal_rcc.c **** 
 248:Drivers/STM32F1xx_HAL_Driver/Src/stm32f1xx_hal_rcc.c **** /**
 249:Drivers/STM32F1xx_HAL_Driver/Src/stm32f1xx_hal_rcc.c ****   * @brief  Initializes the RCC Oscillators according to the specified parameters in the
 250:Drivers/STM32F1xx_HAL_Driver/Src/stm32f1xx_hal_rcc.c ****   *         RCC_OscInitTypeDef.
 251:Drivers/STM32F1xx_HAL_Driver/Src/stm32f1xx_hal_rcc.c ****   * @param  RCC_OscInitStruct pointer to an RCC_OscInitTypeDef structure that
 252:Drivers/STM32F1xx_HAL_Driver/Src/stm32f1xx_hal_rcc.c ****   *         contains the configuration information for the RCC Oscillators.
 253:Drivers/STM32F1xx_HAL_Driver/Src/stm32f1xx_hal_rcc.c ****   * @note   The PLL is not disabled when used as system clock.
 254:Drivers/STM32F1xx_HAL_Driver/Src/stm32f1xx_hal_rcc.c ****   * @note   The PLL is not disabled when USB OTG FS clock is enabled (specific to devices with USB 
 255:Drivers/STM32F1xx_HAL_Driver/Src/stm32f1xx_hal_rcc.c ****   * @note   Transitions LSE Bypass to LSE On and LSE On to LSE Bypass are not
 256:Drivers/STM32F1xx_HAL_Driver/Src/stm32f1xx_hal_rcc.c ****   *         supported by this macro. User should request a transition to LSE Off
 257:Drivers/STM32F1xx_HAL_Driver/Src/stm32f1xx_hal_rcc.c ****   *         first and then LSE On or LSE Bypass.
 258:Drivers/STM32F1xx_HAL_Driver/Src/stm32f1xx_hal_rcc.c ****   * @note   Transition HSE Bypass to HSE On and HSE On to HSE Bypass are not
 259:Drivers/STM32F1xx_HAL_Driver/Src/stm32f1xx_hal_rcc.c ****   *         supported by this macro. User should request a transition to HSE Off
 260:Drivers/STM32F1xx_HAL_Driver/Src/stm32f1xx_hal_rcc.c ****   *         first and then HSE On or HSE Bypass.
ARM GAS  /tmp/ccJTbD9y.s 			page 6


 261:Drivers/STM32F1xx_HAL_Driver/Src/stm32f1xx_hal_rcc.c ****   * @retval HAL status
 262:Drivers/STM32F1xx_HAL_Driver/Src/stm32f1xx_hal_rcc.c ****   */
 263:Drivers/STM32F1xx_HAL_Driver/Src/stm32f1xx_hal_rcc.c **** HAL_StatusTypeDef HAL_RCC_OscConfig(RCC_OscInitTypeDef  *RCC_OscInitStruct)
 264:Drivers/STM32F1xx_HAL_Driver/Src/stm32f1xx_hal_rcc.c **** {
 265:Drivers/STM32F1xx_HAL_Driver/Src/stm32f1xx_hal_rcc.c ****    uint32_t tickstart = 0U;
 266:Drivers/STM32F1xx_HAL_Driver/Src/stm32f1xx_hal_rcc.c ****   
 267:Drivers/STM32F1xx_HAL_Driver/Src/stm32f1xx_hal_rcc.c ****   /* Check the parameters */
 268:Drivers/STM32F1xx_HAL_Driver/Src/stm32f1xx_hal_rcc.c ****   assert_param(RCC_OscInitStruct != NULL);
 269:Drivers/STM32F1xx_HAL_Driver/Src/stm32f1xx_hal_rcc.c ****   assert_param(IS_RCC_OSCILLATORTYPE(RCC_OscInitStruct->OscillatorType));
 270:Drivers/STM32F1xx_HAL_Driver/Src/stm32f1xx_hal_rcc.c ****   
 271:Drivers/STM32F1xx_HAL_Driver/Src/stm32f1xx_hal_rcc.c ****   /*------------------------------- HSE Configuration ------------------------*/ 
 272:Drivers/STM32F1xx_HAL_Driver/Src/stm32f1xx_hal_rcc.c ****   if(((RCC_OscInitStruct->OscillatorType) & RCC_OSCILLATORTYPE_HSE) == RCC_OSCILLATORTYPE_HSE)
 273:Drivers/STM32F1xx_HAL_Driver/Src/stm32f1xx_hal_rcc.c ****   {
 274:Drivers/STM32F1xx_HAL_Driver/Src/stm32f1xx_hal_rcc.c ****     /* Check the parameters */
 275:Drivers/STM32F1xx_HAL_Driver/Src/stm32f1xx_hal_rcc.c ****     assert_param(IS_RCC_HSE(RCC_OscInitStruct->HSEState));
 276:Drivers/STM32F1xx_HAL_Driver/Src/stm32f1xx_hal_rcc.c ****         
 277:Drivers/STM32F1xx_HAL_Driver/Src/stm32f1xx_hal_rcc.c ****     /* When the HSE is used as system clock or clock source for PLL in these cases it is not allowe
 278:Drivers/STM32F1xx_HAL_Driver/Src/stm32f1xx_hal_rcc.c ****     if((__HAL_RCC_GET_SYSCLK_SOURCE() == RCC_SYSCLKSOURCE_STATUS_HSE) 
 279:Drivers/STM32F1xx_HAL_Driver/Src/stm32f1xx_hal_rcc.c ****        || ((__HAL_RCC_GET_SYSCLK_SOURCE() == RCC_SYSCLKSOURCE_STATUS_PLLCLK) && (__HAL_RCC_GET_PLL_
 280:Drivers/STM32F1xx_HAL_Driver/Src/stm32f1xx_hal_rcc.c ****     {
 281:Drivers/STM32F1xx_HAL_Driver/Src/stm32f1xx_hal_rcc.c ****       if((__HAL_RCC_GET_FLAG(RCC_FLAG_HSERDY) != RESET) && (RCC_OscInitStruct->HSEState == RCC_HSE_
 282:Drivers/STM32F1xx_HAL_Driver/Src/stm32f1xx_hal_rcc.c ****       {
 283:Drivers/STM32F1xx_HAL_Driver/Src/stm32f1xx_hal_rcc.c ****         return HAL_ERROR;
 284:Drivers/STM32F1xx_HAL_Driver/Src/stm32f1xx_hal_rcc.c ****       }
 285:Drivers/STM32F1xx_HAL_Driver/Src/stm32f1xx_hal_rcc.c ****     }
 286:Drivers/STM32F1xx_HAL_Driver/Src/stm32f1xx_hal_rcc.c ****     else
 287:Drivers/STM32F1xx_HAL_Driver/Src/stm32f1xx_hal_rcc.c ****     {
 288:Drivers/STM32F1xx_HAL_Driver/Src/stm32f1xx_hal_rcc.c ****       /* Set the new HSE configuration ---------------------------------------*/
 289:Drivers/STM32F1xx_HAL_Driver/Src/stm32f1xx_hal_rcc.c ****       __HAL_RCC_HSE_CONFIG(RCC_OscInitStruct->HSEState);
 290:Drivers/STM32F1xx_HAL_Driver/Src/stm32f1xx_hal_rcc.c ****       
 291:Drivers/STM32F1xx_HAL_Driver/Src/stm32f1xx_hal_rcc.c **** 
 292:Drivers/STM32F1xx_HAL_Driver/Src/stm32f1xx_hal_rcc.c ****        /* Check the HSE State */
 293:Drivers/STM32F1xx_HAL_Driver/Src/stm32f1xx_hal_rcc.c ****       if(RCC_OscInitStruct->HSEState != RCC_HSE_OFF)
 294:Drivers/STM32F1xx_HAL_Driver/Src/stm32f1xx_hal_rcc.c ****       {
 295:Drivers/STM32F1xx_HAL_Driver/Src/stm32f1xx_hal_rcc.c ****         /* Get Start Tick */
 296:Drivers/STM32F1xx_HAL_Driver/Src/stm32f1xx_hal_rcc.c ****         tickstart = HAL_GetTick();
 297:Drivers/STM32F1xx_HAL_Driver/Src/stm32f1xx_hal_rcc.c ****         
 298:Drivers/STM32F1xx_HAL_Driver/Src/stm32f1xx_hal_rcc.c ****         /* Wait till HSE is ready */
 299:Drivers/STM32F1xx_HAL_Driver/Src/stm32f1xx_hal_rcc.c ****         while(__HAL_RCC_GET_FLAG(RCC_FLAG_HSERDY) == RESET)
 300:Drivers/STM32F1xx_HAL_Driver/Src/stm32f1xx_hal_rcc.c ****         {
 301:Drivers/STM32F1xx_HAL_Driver/Src/stm32f1xx_hal_rcc.c ****           if((HAL_GetTick() - tickstart ) > HSE_TIMEOUT_VALUE)
 302:Drivers/STM32F1xx_HAL_Driver/Src/stm32f1xx_hal_rcc.c ****           {
 303:Drivers/STM32F1xx_HAL_Driver/Src/stm32f1xx_hal_rcc.c ****             return HAL_TIMEOUT;
 304:Drivers/STM32F1xx_HAL_Driver/Src/stm32f1xx_hal_rcc.c ****           }
 305:Drivers/STM32F1xx_HAL_Driver/Src/stm32f1xx_hal_rcc.c ****         }
 306:Drivers/STM32F1xx_HAL_Driver/Src/stm32f1xx_hal_rcc.c ****       }
 307:Drivers/STM32F1xx_HAL_Driver/Src/stm32f1xx_hal_rcc.c ****       else
 308:Drivers/STM32F1xx_HAL_Driver/Src/stm32f1xx_hal_rcc.c ****       {
 309:Drivers/STM32F1xx_HAL_Driver/Src/stm32f1xx_hal_rcc.c ****         /* Get Start Tick */
 310:Drivers/STM32F1xx_HAL_Driver/Src/stm32f1xx_hal_rcc.c ****         tickstart = HAL_GetTick();
 311:Drivers/STM32F1xx_HAL_Driver/Src/stm32f1xx_hal_rcc.c ****         
 312:Drivers/STM32F1xx_HAL_Driver/Src/stm32f1xx_hal_rcc.c ****         /* Wait till HSE is disabled */
 313:Drivers/STM32F1xx_HAL_Driver/Src/stm32f1xx_hal_rcc.c ****         while(__HAL_RCC_GET_FLAG(RCC_FLAG_HSERDY) != RESET)
 314:Drivers/STM32F1xx_HAL_Driver/Src/stm32f1xx_hal_rcc.c ****         {
 315:Drivers/STM32F1xx_HAL_Driver/Src/stm32f1xx_hal_rcc.c ****            if((HAL_GetTick() - tickstart ) > HSE_TIMEOUT_VALUE)
 316:Drivers/STM32F1xx_HAL_Driver/Src/stm32f1xx_hal_rcc.c ****           {
 317:Drivers/STM32F1xx_HAL_Driver/Src/stm32f1xx_hal_rcc.c ****             return HAL_TIMEOUT;
ARM GAS  /tmp/ccJTbD9y.s 			page 7


 318:Drivers/STM32F1xx_HAL_Driver/Src/stm32f1xx_hal_rcc.c ****           }
 319:Drivers/STM32F1xx_HAL_Driver/Src/stm32f1xx_hal_rcc.c ****         }
 320:Drivers/STM32F1xx_HAL_Driver/Src/stm32f1xx_hal_rcc.c ****       }
 321:Drivers/STM32F1xx_HAL_Driver/Src/stm32f1xx_hal_rcc.c ****     }
 322:Drivers/STM32F1xx_HAL_Driver/Src/stm32f1xx_hal_rcc.c ****   }
 323:Drivers/STM32F1xx_HAL_Driver/Src/stm32f1xx_hal_rcc.c ****   /*----------------------------- HSI Configuration --------------------------*/ 
 324:Drivers/STM32F1xx_HAL_Driver/Src/stm32f1xx_hal_rcc.c ****   if(((RCC_OscInitStruct->OscillatorType) & RCC_OSCILLATORTYPE_HSI) == RCC_OSCILLATORTYPE_HSI)
 325:Drivers/STM32F1xx_HAL_Driver/Src/stm32f1xx_hal_rcc.c ****   {
 326:Drivers/STM32F1xx_HAL_Driver/Src/stm32f1xx_hal_rcc.c ****     /* Check the parameters */
 327:Drivers/STM32F1xx_HAL_Driver/Src/stm32f1xx_hal_rcc.c ****     assert_param(IS_RCC_HSI(RCC_OscInitStruct->HSIState));
 328:Drivers/STM32F1xx_HAL_Driver/Src/stm32f1xx_hal_rcc.c ****     assert_param(IS_RCC_CALIBRATION_VALUE(RCC_OscInitStruct->HSICalibrationValue));
 329:Drivers/STM32F1xx_HAL_Driver/Src/stm32f1xx_hal_rcc.c ****     
 330:Drivers/STM32F1xx_HAL_Driver/Src/stm32f1xx_hal_rcc.c ****     /* Check if HSI is used as system clock or as PLL source when PLL is selected as system clock *
 331:Drivers/STM32F1xx_HAL_Driver/Src/stm32f1xx_hal_rcc.c ****     if((__HAL_RCC_GET_SYSCLK_SOURCE() == RCC_SYSCLKSOURCE_STATUS_HSI) 
 332:Drivers/STM32F1xx_HAL_Driver/Src/stm32f1xx_hal_rcc.c ****        || ((__HAL_RCC_GET_SYSCLK_SOURCE() == RCC_SYSCLKSOURCE_STATUS_PLLCLK) && (__HAL_RCC_GET_PLL_
 333:Drivers/STM32F1xx_HAL_Driver/Src/stm32f1xx_hal_rcc.c ****     {
 334:Drivers/STM32F1xx_HAL_Driver/Src/stm32f1xx_hal_rcc.c ****       /* When HSI is used as system clock it will not disabled */
 335:Drivers/STM32F1xx_HAL_Driver/Src/stm32f1xx_hal_rcc.c ****       if((__HAL_RCC_GET_FLAG(RCC_FLAG_HSIRDY) != RESET) && (RCC_OscInitStruct->HSIState != RCC_HSI_
 336:Drivers/STM32F1xx_HAL_Driver/Src/stm32f1xx_hal_rcc.c ****       {
 337:Drivers/STM32F1xx_HAL_Driver/Src/stm32f1xx_hal_rcc.c ****         return HAL_ERROR;
 338:Drivers/STM32F1xx_HAL_Driver/Src/stm32f1xx_hal_rcc.c ****       }
 339:Drivers/STM32F1xx_HAL_Driver/Src/stm32f1xx_hal_rcc.c ****       /* Otherwise, just the calibration is allowed */
 340:Drivers/STM32F1xx_HAL_Driver/Src/stm32f1xx_hal_rcc.c ****       else
 341:Drivers/STM32F1xx_HAL_Driver/Src/stm32f1xx_hal_rcc.c ****       {
 342:Drivers/STM32F1xx_HAL_Driver/Src/stm32f1xx_hal_rcc.c ****         /* Adjusts the Internal High Speed oscillator (HSI) calibration value.*/
 343:Drivers/STM32F1xx_HAL_Driver/Src/stm32f1xx_hal_rcc.c ****         __HAL_RCC_HSI_CALIBRATIONVALUE_ADJUST(RCC_OscInitStruct->HSICalibrationValue);
 344:Drivers/STM32F1xx_HAL_Driver/Src/stm32f1xx_hal_rcc.c ****       }
 345:Drivers/STM32F1xx_HAL_Driver/Src/stm32f1xx_hal_rcc.c ****     }
 346:Drivers/STM32F1xx_HAL_Driver/Src/stm32f1xx_hal_rcc.c ****     else
 347:Drivers/STM32F1xx_HAL_Driver/Src/stm32f1xx_hal_rcc.c ****     {
 348:Drivers/STM32F1xx_HAL_Driver/Src/stm32f1xx_hal_rcc.c ****       /* Check the HSI State */
 349:Drivers/STM32F1xx_HAL_Driver/Src/stm32f1xx_hal_rcc.c ****       if(RCC_OscInitStruct->HSIState != RCC_HSI_OFF)
 350:Drivers/STM32F1xx_HAL_Driver/Src/stm32f1xx_hal_rcc.c ****       {
 351:Drivers/STM32F1xx_HAL_Driver/Src/stm32f1xx_hal_rcc.c ****        /* Enable the Internal High Speed oscillator (HSI). */
 352:Drivers/STM32F1xx_HAL_Driver/Src/stm32f1xx_hal_rcc.c ****         __HAL_RCC_HSI_ENABLE();
 353:Drivers/STM32F1xx_HAL_Driver/Src/stm32f1xx_hal_rcc.c ****         
 354:Drivers/STM32F1xx_HAL_Driver/Src/stm32f1xx_hal_rcc.c ****         /* Get Start Tick */
 355:Drivers/STM32F1xx_HAL_Driver/Src/stm32f1xx_hal_rcc.c ****         tickstart = HAL_GetTick();
 356:Drivers/STM32F1xx_HAL_Driver/Src/stm32f1xx_hal_rcc.c ****         
 357:Drivers/STM32F1xx_HAL_Driver/Src/stm32f1xx_hal_rcc.c ****         /* Wait till HSI is ready */
 358:Drivers/STM32F1xx_HAL_Driver/Src/stm32f1xx_hal_rcc.c ****         while(__HAL_RCC_GET_FLAG(RCC_FLAG_HSIRDY) == RESET)
 359:Drivers/STM32F1xx_HAL_Driver/Src/stm32f1xx_hal_rcc.c ****         {
 360:Drivers/STM32F1xx_HAL_Driver/Src/stm32f1xx_hal_rcc.c ****           if((HAL_GetTick() - tickstart ) > HSI_TIMEOUT_VALUE)
 361:Drivers/STM32F1xx_HAL_Driver/Src/stm32f1xx_hal_rcc.c ****           {
 362:Drivers/STM32F1xx_HAL_Driver/Src/stm32f1xx_hal_rcc.c ****             return HAL_TIMEOUT;
 363:Drivers/STM32F1xx_HAL_Driver/Src/stm32f1xx_hal_rcc.c ****           }
 364:Drivers/STM32F1xx_HAL_Driver/Src/stm32f1xx_hal_rcc.c ****         }
 365:Drivers/STM32F1xx_HAL_Driver/Src/stm32f1xx_hal_rcc.c ****                 
 366:Drivers/STM32F1xx_HAL_Driver/Src/stm32f1xx_hal_rcc.c ****         /* Adjusts the Internal High Speed oscillator (HSI) calibration value.*/
 367:Drivers/STM32F1xx_HAL_Driver/Src/stm32f1xx_hal_rcc.c ****         __HAL_RCC_HSI_CALIBRATIONVALUE_ADJUST(RCC_OscInitStruct->HSICalibrationValue);
 368:Drivers/STM32F1xx_HAL_Driver/Src/stm32f1xx_hal_rcc.c ****       }
 369:Drivers/STM32F1xx_HAL_Driver/Src/stm32f1xx_hal_rcc.c ****       else
 370:Drivers/STM32F1xx_HAL_Driver/Src/stm32f1xx_hal_rcc.c ****       {
 371:Drivers/STM32F1xx_HAL_Driver/Src/stm32f1xx_hal_rcc.c ****         /* Disable the Internal High Speed oscillator (HSI). */
 372:Drivers/STM32F1xx_HAL_Driver/Src/stm32f1xx_hal_rcc.c ****         __HAL_RCC_HSI_DISABLE();
 373:Drivers/STM32F1xx_HAL_Driver/Src/stm32f1xx_hal_rcc.c ****         
 374:Drivers/STM32F1xx_HAL_Driver/Src/stm32f1xx_hal_rcc.c ****         /* Get Start Tick */
ARM GAS  /tmp/ccJTbD9y.s 			page 8


 375:Drivers/STM32F1xx_HAL_Driver/Src/stm32f1xx_hal_rcc.c ****         tickstart = HAL_GetTick();
 376:Drivers/STM32F1xx_HAL_Driver/Src/stm32f1xx_hal_rcc.c ****         
 377:Drivers/STM32F1xx_HAL_Driver/Src/stm32f1xx_hal_rcc.c ****         /* Wait till HSI is disabled */
 378:Drivers/STM32F1xx_HAL_Driver/Src/stm32f1xx_hal_rcc.c ****         while(__HAL_RCC_GET_FLAG(RCC_FLAG_HSIRDY) != RESET)
 379:Drivers/STM32F1xx_HAL_Driver/Src/stm32f1xx_hal_rcc.c ****         {
 380:Drivers/STM32F1xx_HAL_Driver/Src/stm32f1xx_hal_rcc.c ****           if((HAL_GetTick() - tickstart ) > HSI_TIMEOUT_VALUE)
 381:Drivers/STM32F1xx_HAL_Driver/Src/stm32f1xx_hal_rcc.c ****           {
 382:Drivers/STM32F1xx_HAL_Driver/Src/stm32f1xx_hal_rcc.c ****             return HAL_TIMEOUT;
 383:Drivers/STM32F1xx_HAL_Driver/Src/stm32f1xx_hal_rcc.c ****           }
 384:Drivers/STM32F1xx_HAL_Driver/Src/stm32f1xx_hal_rcc.c ****         }
 385:Drivers/STM32F1xx_HAL_Driver/Src/stm32f1xx_hal_rcc.c ****       }
 386:Drivers/STM32F1xx_HAL_Driver/Src/stm32f1xx_hal_rcc.c ****     }
 387:Drivers/STM32F1xx_HAL_Driver/Src/stm32f1xx_hal_rcc.c ****   }
 388:Drivers/STM32F1xx_HAL_Driver/Src/stm32f1xx_hal_rcc.c ****   /*------------------------------ LSI Configuration -------------------------*/ 
 389:Drivers/STM32F1xx_HAL_Driver/Src/stm32f1xx_hal_rcc.c ****   if(((RCC_OscInitStruct->OscillatorType) & RCC_OSCILLATORTYPE_LSI) == RCC_OSCILLATORTYPE_LSI)
 390:Drivers/STM32F1xx_HAL_Driver/Src/stm32f1xx_hal_rcc.c ****   {
 391:Drivers/STM32F1xx_HAL_Driver/Src/stm32f1xx_hal_rcc.c ****     /* Check the parameters */
 392:Drivers/STM32F1xx_HAL_Driver/Src/stm32f1xx_hal_rcc.c ****     assert_param(IS_RCC_LSI(RCC_OscInitStruct->LSIState));
 393:Drivers/STM32F1xx_HAL_Driver/Src/stm32f1xx_hal_rcc.c ****     
 394:Drivers/STM32F1xx_HAL_Driver/Src/stm32f1xx_hal_rcc.c ****     /* Check the LSI State */
 395:Drivers/STM32F1xx_HAL_Driver/Src/stm32f1xx_hal_rcc.c ****     if(RCC_OscInitStruct->LSIState != RCC_LSI_OFF)
 396:Drivers/STM32F1xx_HAL_Driver/Src/stm32f1xx_hal_rcc.c ****     {
 397:Drivers/STM32F1xx_HAL_Driver/Src/stm32f1xx_hal_rcc.c ****       /* Enable the Internal Low Speed oscillator (LSI). */
 398:Drivers/STM32F1xx_HAL_Driver/Src/stm32f1xx_hal_rcc.c ****       __HAL_RCC_LSI_ENABLE();
 399:Drivers/STM32F1xx_HAL_Driver/Src/stm32f1xx_hal_rcc.c ****       
 400:Drivers/STM32F1xx_HAL_Driver/Src/stm32f1xx_hal_rcc.c ****       /* Get Start Tick */
 401:Drivers/STM32F1xx_HAL_Driver/Src/stm32f1xx_hal_rcc.c ****       tickstart = HAL_GetTick();
 402:Drivers/STM32F1xx_HAL_Driver/Src/stm32f1xx_hal_rcc.c ****       
 403:Drivers/STM32F1xx_HAL_Driver/Src/stm32f1xx_hal_rcc.c ****       /* Wait till LSI is ready */  
 404:Drivers/STM32F1xx_HAL_Driver/Src/stm32f1xx_hal_rcc.c ****       while(__HAL_RCC_GET_FLAG(RCC_FLAG_LSIRDY) == RESET)
 405:Drivers/STM32F1xx_HAL_Driver/Src/stm32f1xx_hal_rcc.c ****       {
 406:Drivers/STM32F1xx_HAL_Driver/Src/stm32f1xx_hal_rcc.c ****         if((HAL_GetTick() - tickstart ) > LSI_TIMEOUT_VALUE)
 407:Drivers/STM32F1xx_HAL_Driver/Src/stm32f1xx_hal_rcc.c ****         {
 408:Drivers/STM32F1xx_HAL_Driver/Src/stm32f1xx_hal_rcc.c ****           return HAL_TIMEOUT;
 409:Drivers/STM32F1xx_HAL_Driver/Src/stm32f1xx_hal_rcc.c ****         }
 410:Drivers/STM32F1xx_HAL_Driver/Src/stm32f1xx_hal_rcc.c ****       }
 411:Drivers/STM32F1xx_HAL_Driver/Src/stm32f1xx_hal_rcc.c ****       /*  To have a fully stabilized clock in the specified range, a software delay of 1ms 
 412:Drivers/STM32F1xx_HAL_Driver/Src/stm32f1xx_hal_rcc.c ****           should be added.*/
 413:Drivers/STM32F1xx_HAL_Driver/Src/stm32f1xx_hal_rcc.c ****       RCC_Delay(1);
 414:Drivers/STM32F1xx_HAL_Driver/Src/stm32f1xx_hal_rcc.c ****     }
 415:Drivers/STM32F1xx_HAL_Driver/Src/stm32f1xx_hal_rcc.c ****     else
 416:Drivers/STM32F1xx_HAL_Driver/Src/stm32f1xx_hal_rcc.c ****     {
 417:Drivers/STM32F1xx_HAL_Driver/Src/stm32f1xx_hal_rcc.c ****       /* Disable the Internal Low Speed oscillator (LSI). */
 418:Drivers/STM32F1xx_HAL_Driver/Src/stm32f1xx_hal_rcc.c ****       __HAL_RCC_LSI_DISABLE();
 419:Drivers/STM32F1xx_HAL_Driver/Src/stm32f1xx_hal_rcc.c ****       
 420:Drivers/STM32F1xx_HAL_Driver/Src/stm32f1xx_hal_rcc.c ****       /* Get Start Tick */
 421:Drivers/STM32F1xx_HAL_Driver/Src/stm32f1xx_hal_rcc.c ****       tickstart = HAL_GetTick();
 422:Drivers/STM32F1xx_HAL_Driver/Src/stm32f1xx_hal_rcc.c ****       
 423:Drivers/STM32F1xx_HAL_Driver/Src/stm32f1xx_hal_rcc.c ****       /* Wait till LSI is disabled */  
 424:Drivers/STM32F1xx_HAL_Driver/Src/stm32f1xx_hal_rcc.c ****       while(__HAL_RCC_GET_FLAG(RCC_FLAG_LSIRDY) != RESET)
 425:Drivers/STM32F1xx_HAL_Driver/Src/stm32f1xx_hal_rcc.c ****       {
 426:Drivers/STM32F1xx_HAL_Driver/Src/stm32f1xx_hal_rcc.c ****         if((HAL_GetTick() - tickstart ) > LSI_TIMEOUT_VALUE)
 427:Drivers/STM32F1xx_HAL_Driver/Src/stm32f1xx_hal_rcc.c ****         {
 428:Drivers/STM32F1xx_HAL_Driver/Src/stm32f1xx_hal_rcc.c ****           return HAL_TIMEOUT;
 429:Drivers/STM32F1xx_HAL_Driver/Src/stm32f1xx_hal_rcc.c ****         }
 430:Drivers/STM32F1xx_HAL_Driver/Src/stm32f1xx_hal_rcc.c ****       }
 431:Drivers/STM32F1xx_HAL_Driver/Src/stm32f1xx_hal_rcc.c ****     }
ARM GAS  /tmp/ccJTbD9y.s 			page 9


 432:Drivers/STM32F1xx_HAL_Driver/Src/stm32f1xx_hal_rcc.c ****   }
 433:Drivers/STM32F1xx_HAL_Driver/Src/stm32f1xx_hal_rcc.c ****   /*------------------------------ LSE Configuration -------------------------*/ 
 434:Drivers/STM32F1xx_HAL_Driver/Src/stm32f1xx_hal_rcc.c ****   if(((RCC_OscInitStruct->OscillatorType) & RCC_OSCILLATORTYPE_LSE) == RCC_OSCILLATORTYPE_LSE)
 435:Drivers/STM32F1xx_HAL_Driver/Src/stm32f1xx_hal_rcc.c ****   {
 436:Drivers/STM32F1xx_HAL_Driver/Src/stm32f1xx_hal_rcc.c ****     FlagStatus       pwrclkchanged = RESET;
 437:Drivers/STM32F1xx_HAL_Driver/Src/stm32f1xx_hal_rcc.c ****     
 438:Drivers/STM32F1xx_HAL_Driver/Src/stm32f1xx_hal_rcc.c ****     /* Check the parameters */
 439:Drivers/STM32F1xx_HAL_Driver/Src/stm32f1xx_hal_rcc.c ****     assert_param(IS_RCC_LSE(RCC_OscInitStruct->LSEState));
 440:Drivers/STM32F1xx_HAL_Driver/Src/stm32f1xx_hal_rcc.c **** 
 441:Drivers/STM32F1xx_HAL_Driver/Src/stm32f1xx_hal_rcc.c ****     /* Update LSE configuration in Backup Domain control register    */
 442:Drivers/STM32F1xx_HAL_Driver/Src/stm32f1xx_hal_rcc.c ****     /* Requires to enable write access to Backup Domain of necessary */
 443:Drivers/STM32F1xx_HAL_Driver/Src/stm32f1xx_hal_rcc.c ****     if(__HAL_RCC_PWR_IS_CLK_DISABLED())
 444:Drivers/STM32F1xx_HAL_Driver/Src/stm32f1xx_hal_rcc.c ****     {
 445:Drivers/STM32F1xx_HAL_Driver/Src/stm32f1xx_hal_rcc.c ****       __HAL_RCC_PWR_CLK_ENABLE();
 446:Drivers/STM32F1xx_HAL_Driver/Src/stm32f1xx_hal_rcc.c ****       pwrclkchanged = SET;
 447:Drivers/STM32F1xx_HAL_Driver/Src/stm32f1xx_hal_rcc.c ****     }
 448:Drivers/STM32F1xx_HAL_Driver/Src/stm32f1xx_hal_rcc.c ****     
 449:Drivers/STM32F1xx_HAL_Driver/Src/stm32f1xx_hal_rcc.c ****     if(HAL_IS_BIT_CLR(PWR->CR, PWR_CR_DBP))
 450:Drivers/STM32F1xx_HAL_Driver/Src/stm32f1xx_hal_rcc.c ****     {
 451:Drivers/STM32F1xx_HAL_Driver/Src/stm32f1xx_hal_rcc.c ****       /* Enable write access to Backup domain */
 452:Drivers/STM32F1xx_HAL_Driver/Src/stm32f1xx_hal_rcc.c ****       SET_BIT(PWR->CR, PWR_CR_DBP);
 453:Drivers/STM32F1xx_HAL_Driver/Src/stm32f1xx_hal_rcc.c ****       
 454:Drivers/STM32F1xx_HAL_Driver/Src/stm32f1xx_hal_rcc.c ****       /* Wait for Backup domain Write protection disable */
 455:Drivers/STM32F1xx_HAL_Driver/Src/stm32f1xx_hal_rcc.c ****       tickstart = HAL_GetTick();
 456:Drivers/STM32F1xx_HAL_Driver/Src/stm32f1xx_hal_rcc.c **** 
 457:Drivers/STM32F1xx_HAL_Driver/Src/stm32f1xx_hal_rcc.c ****       while(HAL_IS_BIT_CLR(PWR->CR, PWR_CR_DBP))
 458:Drivers/STM32F1xx_HAL_Driver/Src/stm32f1xx_hal_rcc.c ****       {
 459:Drivers/STM32F1xx_HAL_Driver/Src/stm32f1xx_hal_rcc.c ****         if((HAL_GetTick() - tickstart) > RCC_DBP_TIMEOUT_VALUE)
 460:Drivers/STM32F1xx_HAL_Driver/Src/stm32f1xx_hal_rcc.c ****         {
 461:Drivers/STM32F1xx_HAL_Driver/Src/stm32f1xx_hal_rcc.c ****           return HAL_TIMEOUT;
 462:Drivers/STM32F1xx_HAL_Driver/Src/stm32f1xx_hal_rcc.c ****         }
 463:Drivers/STM32F1xx_HAL_Driver/Src/stm32f1xx_hal_rcc.c ****       }
 464:Drivers/STM32F1xx_HAL_Driver/Src/stm32f1xx_hal_rcc.c ****     }
 465:Drivers/STM32F1xx_HAL_Driver/Src/stm32f1xx_hal_rcc.c **** 
 466:Drivers/STM32F1xx_HAL_Driver/Src/stm32f1xx_hal_rcc.c ****     /* Set the new LSE configuration -----------------------------------------*/
 467:Drivers/STM32F1xx_HAL_Driver/Src/stm32f1xx_hal_rcc.c ****     __HAL_RCC_LSE_CONFIG(RCC_OscInitStruct->LSEState);
 468:Drivers/STM32F1xx_HAL_Driver/Src/stm32f1xx_hal_rcc.c ****     /* Check the LSE State */
 469:Drivers/STM32F1xx_HAL_Driver/Src/stm32f1xx_hal_rcc.c ****     if(RCC_OscInitStruct->LSEState != RCC_LSE_OFF)
 470:Drivers/STM32F1xx_HAL_Driver/Src/stm32f1xx_hal_rcc.c ****     {
 471:Drivers/STM32F1xx_HAL_Driver/Src/stm32f1xx_hal_rcc.c ****       /* Get Start Tick */
 472:Drivers/STM32F1xx_HAL_Driver/Src/stm32f1xx_hal_rcc.c ****       tickstart = HAL_GetTick();
 473:Drivers/STM32F1xx_HAL_Driver/Src/stm32f1xx_hal_rcc.c ****       
 474:Drivers/STM32F1xx_HAL_Driver/Src/stm32f1xx_hal_rcc.c ****       /* Wait till LSE is ready */  
 475:Drivers/STM32F1xx_HAL_Driver/Src/stm32f1xx_hal_rcc.c ****       while(__HAL_RCC_GET_FLAG(RCC_FLAG_LSERDY) == RESET)
 476:Drivers/STM32F1xx_HAL_Driver/Src/stm32f1xx_hal_rcc.c ****       {
 477:Drivers/STM32F1xx_HAL_Driver/Src/stm32f1xx_hal_rcc.c ****         if((HAL_GetTick() - tickstart ) > RCC_LSE_TIMEOUT_VALUE)
 478:Drivers/STM32F1xx_HAL_Driver/Src/stm32f1xx_hal_rcc.c ****         {
 479:Drivers/STM32F1xx_HAL_Driver/Src/stm32f1xx_hal_rcc.c ****           return HAL_TIMEOUT;
 480:Drivers/STM32F1xx_HAL_Driver/Src/stm32f1xx_hal_rcc.c ****         }
 481:Drivers/STM32F1xx_HAL_Driver/Src/stm32f1xx_hal_rcc.c ****       }
 482:Drivers/STM32F1xx_HAL_Driver/Src/stm32f1xx_hal_rcc.c ****     }
 483:Drivers/STM32F1xx_HAL_Driver/Src/stm32f1xx_hal_rcc.c ****     else
 484:Drivers/STM32F1xx_HAL_Driver/Src/stm32f1xx_hal_rcc.c ****     {
 485:Drivers/STM32F1xx_HAL_Driver/Src/stm32f1xx_hal_rcc.c ****       /* Get Start Tick */
 486:Drivers/STM32F1xx_HAL_Driver/Src/stm32f1xx_hal_rcc.c ****       tickstart = HAL_GetTick();
 487:Drivers/STM32F1xx_HAL_Driver/Src/stm32f1xx_hal_rcc.c ****       
 488:Drivers/STM32F1xx_HAL_Driver/Src/stm32f1xx_hal_rcc.c ****       /* Wait till LSE is disabled */  
ARM GAS  /tmp/ccJTbD9y.s 			page 10


 489:Drivers/STM32F1xx_HAL_Driver/Src/stm32f1xx_hal_rcc.c ****       while(__HAL_RCC_GET_FLAG(RCC_FLAG_LSERDY) != RESET)
 490:Drivers/STM32F1xx_HAL_Driver/Src/stm32f1xx_hal_rcc.c ****       {
 491:Drivers/STM32F1xx_HAL_Driver/Src/stm32f1xx_hal_rcc.c ****         if((HAL_GetTick() - tickstart ) > RCC_LSE_TIMEOUT_VALUE)
 492:Drivers/STM32F1xx_HAL_Driver/Src/stm32f1xx_hal_rcc.c ****         {
 493:Drivers/STM32F1xx_HAL_Driver/Src/stm32f1xx_hal_rcc.c ****           return HAL_TIMEOUT;
 494:Drivers/STM32F1xx_HAL_Driver/Src/stm32f1xx_hal_rcc.c ****         }
 495:Drivers/STM32F1xx_HAL_Driver/Src/stm32f1xx_hal_rcc.c ****       }
 496:Drivers/STM32F1xx_HAL_Driver/Src/stm32f1xx_hal_rcc.c ****     }
 497:Drivers/STM32F1xx_HAL_Driver/Src/stm32f1xx_hal_rcc.c **** 
 498:Drivers/STM32F1xx_HAL_Driver/Src/stm32f1xx_hal_rcc.c ****     /* Require to disable power clock if necessary */
 499:Drivers/STM32F1xx_HAL_Driver/Src/stm32f1xx_hal_rcc.c ****     if(pwrclkchanged == SET)
 500:Drivers/STM32F1xx_HAL_Driver/Src/stm32f1xx_hal_rcc.c ****     {
 501:Drivers/STM32F1xx_HAL_Driver/Src/stm32f1xx_hal_rcc.c ****       __HAL_RCC_PWR_CLK_DISABLE();
 502:Drivers/STM32F1xx_HAL_Driver/Src/stm32f1xx_hal_rcc.c ****     }
 503:Drivers/STM32F1xx_HAL_Driver/Src/stm32f1xx_hal_rcc.c ****   }
 504:Drivers/STM32F1xx_HAL_Driver/Src/stm32f1xx_hal_rcc.c **** 
 505:Drivers/STM32F1xx_HAL_Driver/Src/stm32f1xx_hal_rcc.c **** #if defined(RCC_CR_PLL2ON)
 506:Drivers/STM32F1xx_HAL_Driver/Src/stm32f1xx_hal_rcc.c ****   /*-------------------------------- PLL2 Configuration -----------------------*/
 507:Drivers/STM32F1xx_HAL_Driver/Src/stm32f1xx_hal_rcc.c ****   /* Check the parameters */
 508:Drivers/STM32F1xx_HAL_Driver/Src/stm32f1xx_hal_rcc.c ****   assert_param(IS_RCC_PLL2(RCC_OscInitStruct->PLL2.PLL2State));
 509:Drivers/STM32F1xx_HAL_Driver/Src/stm32f1xx_hal_rcc.c ****   if ((RCC_OscInitStruct->PLL2.PLL2State) != RCC_PLL2_NONE)
 510:Drivers/STM32F1xx_HAL_Driver/Src/stm32f1xx_hal_rcc.c ****   {
 511:Drivers/STM32F1xx_HAL_Driver/Src/stm32f1xx_hal_rcc.c ****     /* This bit can not be cleared if the PLL2 clock is used indirectly as system 
 512:Drivers/STM32F1xx_HAL_Driver/Src/stm32f1xx_hal_rcc.c ****       clock (i.e. it is used as PLL clock entry that is used as system clock). */
 513:Drivers/STM32F1xx_HAL_Driver/Src/stm32f1xx_hal_rcc.c ****     if((__HAL_RCC_GET_PLL_OSCSOURCE() == RCC_PLLSOURCE_HSE) && \
 514:Drivers/STM32F1xx_HAL_Driver/Src/stm32f1xx_hal_rcc.c ****         (__HAL_RCC_GET_SYSCLK_SOURCE() == RCC_SYSCLKSOURCE_STATUS_PLLCLK) && \
 515:Drivers/STM32F1xx_HAL_Driver/Src/stm32f1xx_hal_rcc.c ****         ((READ_BIT(RCC->CFGR2,RCC_CFGR2_PREDIV1SRC)) == RCC_CFGR2_PREDIV1SRC_PLL2))
 516:Drivers/STM32F1xx_HAL_Driver/Src/stm32f1xx_hal_rcc.c ****     {
 517:Drivers/STM32F1xx_HAL_Driver/Src/stm32f1xx_hal_rcc.c ****       return HAL_ERROR;
 518:Drivers/STM32F1xx_HAL_Driver/Src/stm32f1xx_hal_rcc.c ****     }
 519:Drivers/STM32F1xx_HAL_Driver/Src/stm32f1xx_hal_rcc.c ****     else
 520:Drivers/STM32F1xx_HAL_Driver/Src/stm32f1xx_hal_rcc.c ****     {
 521:Drivers/STM32F1xx_HAL_Driver/Src/stm32f1xx_hal_rcc.c ****       if((RCC_OscInitStruct->PLL2.PLL2State) == RCC_PLL2_ON)
 522:Drivers/STM32F1xx_HAL_Driver/Src/stm32f1xx_hal_rcc.c ****       {
 523:Drivers/STM32F1xx_HAL_Driver/Src/stm32f1xx_hal_rcc.c ****         /* Check the parameters */
 524:Drivers/STM32F1xx_HAL_Driver/Src/stm32f1xx_hal_rcc.c ****         assert_param(IS_RCC_PLL2_MUL(RCC_OscInitStruct->PLL2.PLL2MUL));
 525:Drivers/STM32F1xx_HAL_Driver/Src/stm32f1xx_hal_rcc.c ****         assert_param(IS_RCC_HSE_PREDIV2(RCC_OscInitStruct->PLL2.HSEPrediv2Value));
 526:Drivers/STM32F1xx_HAL_Driver/Src/stm32f1xx_hal_rcc.c **** 
 527:Drivers/STM32F1xx_HAL_Driver/Src/stm32f1xx_hal_rcc.c ****         /* Prediv2 can be written only when the PLLI2S is disabled. */
 528:Drivers/STM32F1xx_HAL_Driver/Src/stm32f1xx_hal_rcc.c ****         /* Return an error only if new value is different from the programmed value */
 529:Drivers/STM32F1xx_HAL_Driver/Src/stm32f1xx_hal_rcc.c ****         if (HAL_IS_BIT_SET(RCC->CR,RCC_CR_PLL3ON) && \
 530:Drivers/STM32F1xx_HAL_Driver/Src/stm32f1xx_hal_rcc.c ****           (__HAL_RCC_HSE_GET_PREDIV2() != RCC_OscInitStruct->PLL2.HSEPrediv2Value))
 531:Drivers/STM32F1xx_HAL_Driver/Src/stm32f1xx_hal_rcc.c ****         {
 532:Drivers/STM32F1xx_HAL_Driver/Src/stm32f1xx_hal_rcc.c ****           return HAL_ERROR;
 533:Drivers/STM32F1xx_HAL_Driver/Src/stm32f1xx_hal_rcc.c ****         }
 534:Drivers/STM32F1xx_HAL_Driver/Src/stm32f1xx_hal_rcc.c ****         
 535:Drivers/STM32F1xx_HAL_Driver/Src/stm32f1xx_hal_rcc.c ****         /* Disable the main PLL2. */
 536:Drivers/STM32F1xx_HAL_Driver/Src/stm32f1xx_hal_rcc.c ****         __HAL_RCC_PLL2_DISABLE();
 537:Drivers/STM32F1xx_HAL_Driver/Src/stm32f1xx_hal_rcc.c ****         
 538:Drivers/STM32F1xx_HAL_Driver/Src/stm32f1xx_hal_rcc.c ****         /* Get Start Tick */
 539:Drivers/STM32F1xx_HAL_Driver/Src/stm32f1xx_hal_rcc.c ****         tickstart = HAL_GetTick();
 540:Drivers/STM32F1xx_HAL_Driver/Src/stm32f1xx_hal_rcc.c ****         
 541:Drivers/STM32F1xx_HAL_Driver/Src/stm32f1xx_hal_rcc.c ****         /* Wait till PLL2 is disabled */
 542:Drivers/STM32F1xx_HAL_Driver/Src/stm32f1xx_hal_rcc.c ****         while(__HAL_RCC_GET_FLAG(RCC_FLAG_PLL2RDY) != RESET)
 543:Drivers/STM32F1xx_HAL_Driver/Src/stm32f1xx_hal_rcc.c ****         {
 544:Drivers/STM32F1xx_HAL_Driver/Src/stm32f1xx_hal_rcc.c ****           if((HAL_GetTick() - tickstart ) > PLL2_TIMEOUT_VALUE)
 545:Drivers/STM32F1xx_HAL_Driver/Src/stm32f1xx_hal_rcc.c ****           {
ARM GAS  /tmp/ccJTbD9y.s 			page 11


 546:Drivers/STM32F1xx_HAL_Driver/Src/stm32f1xx_hal_rcc.c ****             return HAL_TIMEOUT;
 547:Drivers/STM32F1xx_HAL_Driver/Src/stm32f1xx_hal_rcc.c ****           }
 548:Drivers/STM32F1xx_HAL_Driver/Src/stm32f1xx_hal_rcc.c ****         }
 549:Drivers/STM32F1xx_HAL_Driver/Src/stm32f1xx_hal_rcc.c ****         
 550:Drivers/STM32F1xx_HAL_Driver/Src/stm32f1xx_hal_rcc.c ****         /* Configure the HSE prediv2 factor --------------------------------*/
 551:Drivers/STM32F1xx_HAL_Driver/Src/stm32f1xx_hal_rcc.c ****         __HAL_RCC_HSE_PREDIV2_CONFIG(RCC_OscInitStruct->PLL2.HSEPrediv2Value);
 552:Drivers/STM32F1xx_HAL_Driver/Src/stm32f1xx_hal_rcc.c **** 
 553:Drivers/STM32F1xx_HAL_Driver/Src/stm32f1xx_hal_rcc.c ****         /* Configure the main PLL2 multiplication factors. */
 554:Drivers/STM32F1xx_HAL_Driver/Src/stm32f1xx_hal_rcc.c ****         __HAL_RCC_PLL2_CONFIG(RCC_OscInitStruct->PLL2.PLL2MUL);
 555:Drivers/STM32F1xx_HAL_Driver/Src/stm32f1xx_hal_rcc.c ****         
 556:Drivers/STM32F1xx_HAL_Driver/Src/stm32f1xx_hal_rcc.c ****         /* Enable the main PLL2. */
 557:Drivers/STM32F1xx_HAL_Driver/Src/stm32f1xx_hal_rcc.c ****         __HAL_RCC_PLL2_ENABLE();
 558:Drivers/STM32F1xx_HAL_Driver/Src/stm32f1xx_hal_rcc.c ****         
 559:Drivers/STM32F1xx_HAL_Driver/Src/stm32f1xx_hal_rcc.c ****         /* Get Start Tick */
 560:Drivers/STM32F1xx_HAL_Driver/Src/stm32f1xx_hal_rcc.c ****         tickstart = HAL_GetTick();
 561:Drivers/STM32F1xx_HAL_Driver/Src/stm32f1xx_hal_rcc.c ****         
 562:Drivers/STM32F1xx_HAL_Driver/Src/stm32f1xx_hal_rcc.c ****         /* Wait till PLL2 is ready */
 563:Drivers/STM32F1xx_HAL_Driver/Src/stm32f1xx_hal_rcc.c ****         while(__HAL_RCC_GET_FLAG(RCC_FLAG_PLL2RDY)  == RESET)
 564:Drivers/STM32F1xx_HAL_Driver/Src/stm32f1xx_hal_rcc.c ****         {
 565:Drivers/STM32F1xx_HAL_Driver/Src/stm32f1xx_hal_rcc.c ****           if((HAL_GetTick() - tickstart ) > PLL2_TIMEOUT_VALUE)
 566:Drivers/STM32F1xx_HAL_Driver/Src/stm32f1xx_hal_rcc.c ****           {
 567:Drivers/STM32F1xx_HAL_Driver/Src/stm32f1xx_hal_rcc.c ****             return HAL_TIMEOUT;
 568:Drivers/STM32F1xx_HAL_Driver/Src/stm32f1xx_hal_rcc.c ****           }
 569:Drivers/STM32F1xx_HAL_Driver/Src/stm32f1xx_hal_rcc.c ****         }
 570:Drivers/STM32F1xx_HAL_Driver/Src/stm32f1xx_hal_rcc.c ****       }
 571:Drivers/STM32F1xx_HAL_Driver/Src/stm32f1xx_hal_rcc.c ****       else
 572:Drivers/STM32F1xx_HAL_Driver/Src/stm32f1xx_hal_rcc.c ****       {
 573:Drivers/STM32F1xx_HAL_Driver/Src/stm32f1xx_hal_rcc.c ****        /* Set PREDIV1 source to HSE */
 574:Drivers/STM32F1xx_HAL_Driver/Src/stm32f1xx_hal_rcc.c ****         CLEAR_BIT(RCC->CFGR2, RCC_CFGR2_PREDIV1SRC);
 575:Drivers/STM32F1xx_HAL_Driver/Src/stm32f1xx_hal_rcc.c **** 
 576:Drivers/STM32F1xx_HAL_Driver/Src/stm32f1xx_hal_rcc.c ****         /* Disable the main PLL2. */
 577:Drivers/STM32F1xx_HAL_Driver/Src/stm32f1xx_hal_rcc.c ****         __HAL_RCC_PLL2_DISABLE();
 578:Drivers/STM32F1xx_HAL_Driver/Src/stm32f1xx_hal_rcc.c ****  
 579:Drivers/STM32F1xx_HAL_Driver/Src/stm32f1xx_hal_rcc.c ****         /* Get Start Tick */
 580:Drivers/STM32F1xx_HAL_Driver/Src/stm32f1xx_hal_rcc.c ****         tickstart = HAL_GetTick();
 581:Drivers/STM32F1xx_HAL_Driver/Src/stm32f1xx_hal_rcc.c ****         
 582:Drivers/STM32F1xx_HAL_Driver/Src/stm32f1xx_hal_rcc.c ****         /* Wait till PLL2 is disabled */  
 583:Drivers/STM32F1xx_HAL_Driver/Src/stm32f1xx_hal_rcc.c ****         while(__HAL_RCC_GET_FLAG(RCC_FLAG_PLL2RDY)  != RESET)
 584:Drivers/STM32F1xx_HAL_Driver/Src/stm32f1xx_hal_rcc.c ****         {
 585:Drivers/STM32F1xx_HAL_Driver/Src/stm32f1xx_hal_rcc.c ****           if((HAL_GetTick() - tickstart ) > PLL2_TIMEOUT_VALUE)
 586:Drivers/STM32F1xx_HAL_Driver/Src/stm32f1xx_hal_rcc.c ****           {
 587:Drivers/STM32F1xx_HAL_Driver/Src/stm32f1xx_hal_rcc.c ****             return HAL_TIMEOUT;
 588:Drivers/STM32F1xx_HAL_Driver/Src/stm32f1xx_hal_rcc.c ****           }
 589:Drivers/STM32F1xx_HAL_Driver/Src/stm32f1xx_hal_rcc.c ****         }
 590:Drivers/STM32F1xx_HAL_Driver/Src/stm32f1xx_hal_rcc.c ****       }
 591:Drivers/STM32F1xx_HAL_Driver/Src/stm32f1xx_hal_rcc.c ****     }
 592:Drivers/STM32F1xx_HAL_Driver/Src/stm32f1xx_hal_rcc.c ****   }
 593:Drivers/STM32F1xx_HAL_Driver/Src/stm32f1xx_hal_rcc.c **** 
 594:Drivers/STM32F1xx_HAL_Driver/Src/stm32f1xx_hal_rcc.c **** #endif /* RCC_CR_PLL2ON */
 595:Drivers/STM32F1xx_HAL_Driver/Src/stm32f1xx_hal_rcc.c ****   /*-------------------------------- PLL Configuration -----------------------*/
 596:Drivers/STM32F1xx_HAL_Driver/Src/stm32f1xx_hal_rcc.c ****   /* Check the parameters */
 597:Drivers/STM32F1xx_HAL_Driver/Src/stm32f1xx_hal_rcc.c ****   assert_param(IS_RCC_PLL(RCC_OscInitStruct->PLL.PLLState));
 598:Drivers/STM32F1xx_HAL_Driver/Src/stm32f1xx_hal_rcc.c ****   if ((RCC_OscInitStruct->PLL.PLLState) != RCC_PLL_NONE)
 599:Drivers/STM32F1xx_HAL_Driver/Src/stm32f1xx_hal_rcc.c ****   {
 600:Drivers/STM32F1xx_HAL_Driver/Src/stm32f1xx_hal_rcc.c ****     /* Check if the PLL is used as system clock or not */
 601:Drivers/STM32F1xx_HAL_Driver/Src/stm32f1xx_hal_rcc.c ****     if(__HAL_RCC_GET_SYSCLK_SOURCE() != RCC_SYSCLKSOURCE_STATUS_PLLCLK)
 602:Drivers/STM32F1xx_HAL_Driver/Src/stm32f1xx_hal_rcc.c ****     { 
ARM GAS  /tmp/ccJTbD9y.s 			page 12


 603:Drivers/STM32F1xx_HAL_Driver/Src/stm32f1xx_hal_rcc.c ****       if((RCC_OscInitStruct->PLL.PLLState) == RCC_PLL_ON)
 604:Drivers/STM32F1xx_HAL_Driver/Src/stm32f1xx_hal_rcc.c ****       {
 605:Drivers/STM32F1xx_HAL_Driver/Src/stm32f1xx_hal_rcc.c ****         /* Check the parameters */
 606:Drivers/STM32F1xx_HAL_Driver/Src/stm32f1xx_hal_rcc.c ****         assert_param(IS_RCC_PLLSOURCE(RCC_OscInitStruct->PLL.PLLSource));
 607:Drivers/STM32F1xx_HAL_Driver/Src/stm32f1xx_hal_rcc.c ****         assert_param(IS_RCC_PLL_MUL(RCC_OscInitStruct->PLL.PLLMUL));
 608:Drivers/STM32F1xx_HAL_Driver/Src/stm32f1xx_hal_rcc.c ****   
 609:Drivers/STM32F1xx_HAL_Driver/Src/stm32f1xx_hal_rcc.c ****         /* Disable the main PLL. */
 610:Drivers/STM32F1xx_HAL_Driver/Src/stm32f1xx_hal_rcc.c ****         __HAL_RCC_PLL_DISABLE();
 611:Drivers/STM32F1xx_HAL_Driver/Src/stm32f1xx_hal_rcc.c ****         
 612:Drivers/STM32F1xx_HAL_Driver/Src/stm32f1xx_hal_rcc.c ****         /* Get Start Tick */
 613:Drivers/STM32F1xx_HAL_Driver/Src/stm32f1xx_hal_rcc.c ****         tickstart = HAL_GetTick();
 614:Drivers/STM32F1xx_HAL_Driver/Src/stm32f1xx_hal_rcc.c ****         
 615:Drivers/STM32F1xx_HAL_Driver/Src/stm32f1xx_hal_rcc.c ****         /* Wait till PLL is disabled */
 616:Drivers/STM32F1xx_HAL_Driver/Src/stm32f1xx_hal_rcc.c ****         while(__HAL_RCC_GET_FLAG(RCC_FLAG_PLLRDY)  != RESET)
 617:Drivers/STM32F1xx_HAL_Driver/Src/stm32f1xx_hal_rcc.c ****         {
 618:Drivers/STM32F1xx_HAL_Driver/Src/stm32f1xx_hal_rcc.c ****           if((HAL_GetTick() - tickstart ) > PLL_TIMEOUT_VALUE)
 619:Drivers/STM32F1xx_HAL_Driver/Src/stm32f1xx_hal_rcc.c ****           {
 620:Drivers/STM32F1xx_HAL_Driver/Src/stm32f1xx_hal_rcc.c ****             return HAL_TIMEOUT;
 621:Drivers/STM32F1xx_HAL_Driver/Src/stm32f1xx_hal_rcc.c ****           }
 622:Drivers/STM32F1xx_HAL_Driver/Src/stm32f1xx_hal_rcc.c ****         }
 623:Drivers/STM32F1xx_HAL_Driver/Src/stm32f1xx_hal_rcc.c **** 
 624:Drivers/STM32F1xx_HAL_Driver/Src/stm32f1xx_hal_rcc.c ****         /* Configure the HSE prediv factor --------------------------------*/
 625:Drivers/STM32F1xx_HAL_Driver/Src/stm32f1xx_hal_rcc.c ****         /* It can be written only when the PLL is disabled. Not used in PLL source is different tha
 626:Drivers/STM32F1xx_HAL_Driver/Src/stm32f1xx_hal_rcc.c ****         if(RCC_OscInitStruct->PLL.PLLSource == RCC_PLLSOURCE_HSE)
 627:Drivers/STM32F1xx_HAL_Driver/Src/stm32f1xx_hal_rcc.c ****         {
 628:Drivers/STM32F1xx_HAL_Driver/Src/stm32f1xx_hal_rcc.c ****           /* Check the parameter */
 629:Drivers/STM32F1xx_HAL_Driver/Src/stm32f1xx_hal_rcc.c ****           assert_param(IS_RCC_HSE_PREDIV(RCC_OscInitStruct->HSEPredivValue));
 630:Drivers/STM32F1xx_HAL_Driver/Src/stm32f1xx_hal_rcc.c **** #if defined(RCC_CFGR2_PREDIV1SRC)
 631:Drivers/STM32F1xx_HAL_Driver/Src/stm32f1xx_hal_rcc.c ****           assert_param(IS_RCC_PREDIV1_SOURCE(RCC_OscInitStruct->Prediv1Source));
 632:Drivers/STM32F1xx_HAL_Driver/Src/stm32f1xx_hal_rcc.c ****           
 633:Drivers/STM32F1xx_HAL_Driver/Src/stm32f1xx_hal_rcc.c ****           /* Set PREDIV1 source */
 634:Drivers/STM32F1xx_HAL_Driver/Src/stm32f1xx_hal_rcc.c ****           SET_BIT(RCC->CFGR2, RCC_OscInitStruct->Prediv1Source);
 635:Drivers/STM32F1xx_HAL_Driver/Src/stm32f1xx_hal_rcc.c **** #endif /* RCC_CFGR2_PREDIV1SRC */
 636:Drivers/STM32F1xx_HAL_Driver/Src/stm32f1xx_hal_rcc.c **** 
 637:Drivers/STM32F1xx_HAL_Driver/Src/stm32f1xx_hal_rcc.c ****           /* Set PREDIV1 Value */
 638:Drivers/STM32F1xx_HAL_Driver/Src/stm32f1xx_hal_rcc.c ****           __HAL_RCC_HSE_PREDIV_CONFIG(RCC_OscInitStruct->HSEPredivValue);
 639:Drivers/STM32F1xx_HAL_Driver/Src/stm32f1xx_hal_rcc.c ****         }
 640:Drivers/STM32F1xx_HAL_Driver/Src/stm32f1xx_hal_rcc.c **** 
 641:Drivers/STM32F1xx_HAL_Driver/Src/stm32f1xx_hal_rcc.c ****         /* Configure the main PLL clock source and multiplication factors. */
 642:Drivers/STM32F1xx_HAL_Driver/Src/stm32f1xx_hal_rcc.c ****         __HAL_RCC_PLL_CONFIG(RCC_OscInitStruct->PLL.PLLSource,
 643:Drivers/STM32F1xx_HAL_Driver/Src/stm32f1xx_hal_rcc.c ****                              RCC_OscInitStruct->PLL.PLLMUL);
 644:Drivers/STM32F1xx_HAL_Driver/Src/stm32f1xx_hal_rcc.c ****         /* Enable the main PLL. */
 645:Drivers/STM32F1xx_HAL_Driver/Src/stm32f1xx_hal_rcc.c ****         __HAL_RCC_PLL_ENABLE();
 646:Drivers/STM32F1xx_HAL_Driver/Src/stm32f1xx_hal_rcc.c ****         
 647:Drivers/STM32F1xx_HAL_Driver/Src/stm32f1xx_hal_rcc.c ****         /* Get Start Tick */
 648:Drivers/STM32F1xx_HAL_Driver/Src/stm32f1xx_hal_rcc.c ****         tickstart = HAL_GetTick();
 649:Drivers/STM32F1xx_HAL_Driver/Src/stm32f1xx_hal_rcc.c ****         
 650:Drivers/STM32F1xx_HAL_Driver/Src/stm32f1xx_hal_rcc.c ****         /* Wait till PLL is ready */
 651:Drivers/STM32F1xx_HAL_Driver/Src/stm32f1xx_hal_rcc.c ****         while(__HAL_RCC_GET_FLAG(RCC_FLAG_PLLRDY)  == RESET)
 652:Drivers/STM32F1xx_HAL_Driver/Src/stm32f1xx_hal_rcc.c ****         {
 653:Drivers/STM32F1xx_HAL_Driver/Src/stm32f1xx_hal_rcc.c ****           if((HAL_GetTick() - tickstart ) > PLL_TIMEOUT_VALUE)
 654:Drivers/STM32F1xx_HAL_Driver/Src/stm32f1xx_hal_rcc.c ****           {
 655:Drivers/STM32F1xx_HAL_Driver/Src/stm32f1xx_hal_rcc.c ****             return HAL_TIMEOUT;
 656:Drivers/STM32F1xx_HAL_Driver/Src/stm32f1xx_hal_rcc.c ****           }
 657:Drivers/STM32F1xx_HAL_Driver/Src/stm32f1xx_hal_rcc.c ****         }
 658:Drivers/STM32F1xx_HAL_Driver/Src/stm32f1xx_hal_rcc.c ****       }
 659:Drivers/STM32F1xx_HAL_Driver/Src/stm32f1xx_hal_rcc.c ****       else
ARM GAS  /tmp/ccJTbD9y.s 			page 13


 660:Drivers/STM32F1xx_HAL_Driver/Src/stm32f1xx_hal_rcc.c ****       {
 661:Drivers/STM32F1xx_HAL_Driver/Src/stm32f1xx_hal_rcc.c ****         /* Disable the main PLL. */
 662:Drivers/STM32F1xx_HAL_Driver/Src/stm32f1xx_hal_rcc.c ****         __HAL_RCC_PLL_DISABLE();
 663:Drivers/STM32F1xx_HAL_Driver/Src/stm32f1xx_hal_rcc.c ****  
 664:Drivers/STM32F1xx_HAL_Driver/Src/stm32f1xx_hal_rcc.c ****         /* Get Start Tick */
 665:Drivers/STM32F1xx_HAL_Driver/Src/stm32f1xx_hal_rcc.c ****         tickstart = HAL_GetTick();
 666:Drivers/STM32F1xx_HAL_Driver/Src/stm32f1xx_hal_rcc.c ****         
 667:Drivers/STM32F1xx_HAL_Driver/Src/stm32f1xx_hal_rcc.c ****         /* Wait till PLL is disabled */  
 668:Drivers/STM32F1xx_HAL_Driver/Src/stm32f1xx_hal_rcc.c ****         while(__HAL_RCC_GET_FLAG(RCC_FLAG_PLLRDY)  != RESET)
 669:Drivers/STM32F1xx_HAL_Driver/Src/stm32f1xx_hal_rcc.c ****         {
 670:Drivers/STM32F1xx_HAL_Driver/Src/stm32f1xx_hal_rcc.c ****           if((HAL_GetTick() - tickstart ) > PLL_TIMEOUT_VALUE)
 671:Drivers/STM32F1xx_HAL_Driver/Src/stm32f1xx_hal_rcc.c ****           {
 672:Drivers/STM32F1xx_HAL_Driver/Src/stm32f1xx_hal_rcc.c ****             return HAL_TIMEOUT;
 673:Drivers/STM32F1xx_HAL_Driver/Src/stm32f1xx_hal_rcc.c ****           }
 674:Drivers/STM32F1xx_HAL_Driver/Src/stm32f1xx_hal_rcc.c ****         }
 675:Drivers/STM32F1xx_HAL_Driver/Src/stm32f1xx_hal_rcc.c ****       }
 676:Drivers/STM32F1xx_HAL_Driver/Src/stm32f1xx_hal_rcc.c ****     }
 677:Drivers/STM32F1xx_HAL_Driver/Src/stm32f1xx_hal_rcc.c ****     else
 678:Drivers/STM32F1xx_HAL_Driver/Src/stm32f1xx_hal_rcc.c ****     {
 679:Drivers/STM32F1xx_HAL_Driver/Src/stm32f1xx_hal_rcc.c ****       return HAL_ERROR;
 680:Drivers/STM32F1xx_HAL_Driver/Src/stm32f1xx_hal_rcc.c ****     }
 681:Drivers/STM32F1xx_HAL_Driver/Src/stm32f1xx_hal_rcc.c ****   }
 682:Drivers/STM32F1xx_HAL_Driver/Src/stm32f1xx_hal_rcc.c ****   
 683:Drivers/STM32F1xx_HAL_Driver/Src/stm32f1xx_hal_rcc.c ****   return HAL_OK;
 684:Drivers/STM32F1xx_HAL_Driver/Src/stm32f1xx_hal_rcc.c **** }
 685:Drivers/STM32F1xx_HAL_Driver/Src/stm32f1xx_hal_rcc.c **** 
 686:Drivers/STM32F1xx_HAL_Driver/Src/stm32f1xx_hal_rcc.c **** /**
 687:Drivers/STM32F1xx_HAL_Driver/Src/stm32f1xx_hal_rcc.c ****   * @brief  Initializes the CPU, AHB and APB buses clocks according to the specified 
 688:Drivers/STM32F1xx_HAL_Driver/Src/stm32f1xx_hal_rcc.c ****   *         parameters in the RCC_ClkInitStruct.
 689:Drivers/STM32F1xx_HAL_Driver/Src/stm32f1xx_hal_rcc.c ****   * @param  RCC_ClkInitStruct pointer to an RCC_OscInitTypeDef structure that
 690:Drivers/STM32F1xx_HAL_Driver/Src/stm32f1xx_hal_rcc.c ****   *         contains the configuration information for the RCC peripheral.
 691:Drivers/STM32F1xx_HAL_Driver/Src/stm32f1xx_hal_rcc.c ****   * @param  FLatency FLASH Latency                   
 692:Drivers/STM32F1xx_HAL_Driver/Src/stm32f1xx_hal_rcc.c ****   *          The value of this parameter depend on device used within the same series
 693:Drivers/STM32F1xx_HAL_Driver/Src/stm32f1xx_hal_rcc.c ****   * @note   The SystemCoreClock CMSIS variable is used to store System Clock Frequency 
 694:Drivers/STM32F1xx_HAL_Driver/Src/stm32f1xx_hal_rcc.c ****   *         and updated by @ref HAL_RCC_GetHCLKFreq() function called within this function
 695:Drivers/STM32F1xx_HAL_Driver/Src/stm32f1xx_hal_rcc.c ****   *
 696:Drivers/STM32F1xx_HAL_Driver/Src/stm32f1xx_hal_rcc.c ****   * @note   The HSI is used (enabled by hardware) as system clock source after
 697:Drivers/STM32F1xx_HAL_Driver/Src/stm32f1xx_hal_rcc.c ****   *         start-up from Reset, wake-up from STOP and STANDBY mode, or in case
 698:Drivers/STM32F1xx_HAL_Driver/Src/stm32f1xx_hal_rcc.c ****   *         of failure of the HSE used directly or indirectly as system clock
 699:Drivers/STM32F1xx_HAL_Driver/Src/stm32f1xx_hal_rcc.c ****   *         (if the Clock Security System CSS is enabled).
 700:Drivers/STM32F1xx_HAL_Driver/Src/stm32f1xx_hal_rcc.c ****   *           
 701:Drivers/STM32F1xx_HAL_Driver/Src/stm32f1xx_hal_rcc.c ****   * @note   A switch from one clock source to another occurs only if the target
 702:Drivers/STM32F1xx_HAL_Driver/Src/stm32f1xx_hal_rcc.c ****   *         clock source is ready (clock stable after start-up delay or PLL locked). 
 703:Drivers/STM32F1xx_HAL_Driver/Src/stm32f1xx_hal_rcc.c ****   *         If a clock source which is not yet ready is selected, the switch will
 704:Drivers/STM32F1xx_HAL_Driver/Src/stm32f1xx_hal_rcc.c ****   *         occur when the clock source will be ready. 
 705:Drivers/STM32F1xx_HAL_Driver/Src/stm32f1xx_hal_rcc.c ****   *         You can use @ref HAL_RCC_GetClockConfig() function to know which clock is
 706:Drivers/STM32F1xx_HAL_Driver/Src/stm32f1xx_hal_rcc.c ****   *         currently used as system clock source.
 707:Drivers/STM32F1xx_HAL_Driver/Src/stm32f1xx_hal_rcc.c ****   * @retval HAL status
 708:Drivers/STM32F1xx_HAL_Driver/Src/stm32f1xx_hal_rcc.c ****   */
 709:Drivers/STM32F1xx_HAL_Driver/Src/stm32f1xx_hal_rcc.c **** HAL_StatusTypeDef HAL_RCC_ClockConfig(RCC_ClkInitTypeDef  *RCC_ClkInitStruct, uint32_t FLatency)
 710:Drivers/STM32F1xx_HAL_Driver/Src/stm32f1xx_hal_rcc.c **** {
 711:Drivers/STM32F1xx_HAL_Driver/Src/stm32f1xx_hal_rcc.c ****   uint32_t tickstart = 0U;
 712:Drivers/STM32F1xx_HAL_Driver/Src/stm32f1xx_hal_rcc.c ****   
 713:Drivers/STM32F1xx_HAL_Driver/Src/stm32f1xx_hal_rcc.c ****   /* Check the parameters */
 714:Drivers/STM32F1xx_HAL_Driver/Src/stm32f1xx_hal_rcc.c ****   assert_param(RCC_ClkInitStruct != NULL);
 715:Drivers/STM32F1xx_HAL_Driver/Src/stm32f1xx_hal_rcc.c ****   assert_param(IS_RCC_CLOCKTYPE(RCC_ClkInitStruct->ClockType));
 716:Drivers/STM32F1xx_HAL_Driver/Src/stm32f1xx_hal_rcc.c ****   assert_param(IS_FLASH_LATENCY(FLatency));
ARM GAS  /tmp/ccJTbD9y.s 			page 14


 717:Drivers/STM32F1xx_HAL_Driver/Src/stm32f1xx_hal_rcc.c **** 
 718:Drivers/STM32F1xx_HAL_Driver/Src/stm32f1xx_hal_rcc.c ****   /* To correctly read data from FLASH memory, the number of wait states (LATENCY) 
 719:Drivers/STM32F1xx_HAL_Driver/Src/stm32f1xx_hal_rcc.c ****   must be correctly programmed according to the frequency of the CPU clock 
 720:Drivers/STM32F1xx_HAL_Driver/Src/stm32f1xx_hal_rcc.c ****     (HCLK) of the device. */
 721:Drivers/STM32F1xx_HAL_Driver/Src/stm32f1xx_hal_rcc.c **** 
 722:Drivers/STM32F1xx_HAL_Driver/Src/stm32f1xx_hal_rcc.c **** #if defined(FLASH_ACR_LATENCY)
 723:Drivers/STM32F1xx_HAL_Driver/Src/stm32f1xx_hal_rcc.c ****   /* Increasing the number of wait states because of higher CPU frequency */
 724:Drivers/STM32F1xx_HAL_Driver/Src/stm32f1xx_hal_rcc.c ****   if(FLatency > (FLASH->ACR & FLASH_ACR_LATENCY))
 725:Drivers/STM32F1xx_HAL_Driver/Src/stm32f1xx_hal_rcc.c ****   {    
 726:Drivers/STM32F1xx_HAL_Driver/Src/stm32f1xx_hal_rcc.c ****     /* Program the new number of wait states to the LATENCY bits in the FLASH_ACR register */
 727:Drivers/STM32F1xx_HAL_Driver/Src/stm32f1xx_hal_rcc.c ****     __HAL_FLASH_SET_LATENCY(FLatency);
 728:Drivers/STM32F1xx_HAL_Driver/Src/stm32f1xx_hal_rcc.c ****     
 729:Drivers/STM32F1xx_HAL_Driver/Src/stm32f1xx_hal_rcc.c ****     /* Check that the new number of wait states is taken into account to access the Flash
 730:Drivers/STM32F1xx_HAL_Driver/Src/stm32f1xx_hal_rcc.c ****     memory by reading the FLASH_ACR register */
 731:Drivers/STM32F1xx_HAL_Driver/Src/stm32f1xx_hal_rcc.c ****     if((FLASH->ACR & FLASH_ACR_LATENCY) != FLatency)
 732:Drivers/STM32F1xx_HAL_Driver/Src/stm32f1xx_hal_rcc.c ****     {
 733:Drivers/STM32F1xx_HAL_Driver/Src/stm32f1xx_hal_rcc.c ****       return HAL_ERROR;
 734:Drivers/STM32F1xx_HAL_Driver/Src/stm32f1xx_hal_rcc.c ****     }
 735:Drivers/STM32F1xx_HAL_Driver/Src/stm32f1xx_hal_rcc.c ****   }
 736:Drivers/STM32F1xx_HAL_Driver/Src/stm32f1xx_hal_rcc.c **** 
 737:Drivers/STM32F1xx_HAL_Driver/Src/stm32f1xx_hal_rcc.c **** #endif /* FLASH_ACR_LATENCY */
 738:Drivers/STM32F1xx_HAL_Driver/Src/stm32f1xx_hal_rcc.c ****   /*-------------------------- HCLK Configuration --------------------------*/
 739:Drivers/STM32F1xx_HAL_Driver/Src/stm32f1xx_hal_rcc.c ****   if(((RCC_ClkInitStruct->ClockType) & RCC_CLOCKTYPE_HCLK) == RCC_CLOCKTYPE_HCLK)
 740:Drivers/STM32F1xx_HAL_Driver/Src/stm32f1xx_hal_rcc.c ****   {
 741:Drivers/STM32F1xx_HAL_Driver/Src/stm32f1xx_hal_rcc.c ****     assert_param(IS_RCC_HCLK(RCC_ClkInitStruct->AHBCLKDivider));
 742:Drivers/STM32F1xx_HAL_Driver/Src/stm32f1xx_hal_rcc.c ****     MODIFY_REG(RCC->CFGR, RCC_CFGR_HPRE, RCC_ClkInitStruct->AHBCLKDivider);
 743:Drivers/STM32F1xx_HAL_Driver/Src/stm32f1xx_hal_rcc.c ****   }
 744:Drivers/STM32F1xx_HAL_Driver/Src/stm32f1xx_hal_rcc.c **** 
 745:Drivers/STM32F1xx_HAL_Driver/Src/stm32f1xx_hal_rcc.c ****   /*------------------------- SYSCLK Configuration ---------------------------*/ 
 746:Drivers/STM32F1xx_HAL_Driver/Src/stm32f1xx_hal_rcc.c ****   if(((RCC_ClkInitStruct->ClockType) & RCC_CLOCKTYPE_SYSCLK) == RCC_CLOCKTYPE_SYSCLK)
 747:Drivers/STM32F1xx_HAL_Driver/Src/stm32f1xx_hal_rcc.c ****   {    
 748:Drivers/STM32F1xx_HAL_Driver/Src/stm32f1xx_hal_rcc.c ****     assert_param(IS_RCC_SYSCLKSOURCE(RCC_ClkInitStruct->SYSCLKSource));
 749:Drivers/STM32F1xx_HAL_Driver/Src/stm32f1xx_hal_rcc.c ****     
 750:Drivers/STM32F1xx_HAL_Driver/Src/stm32f1xx_hal_rcc.c ****     /* HSE is selected as System Clock Source */
 751:Drivers/STM32F1xx_HAL_Driver/Src/stm32f1xx_hal_rcc.c ****     if(RCC_ClkInitStruct->SYSCLKSource == RCC_SYSCLKSOURCE_HSE)
 752:Drivers/STM32F1xx_HAL_Driver/Src/stm32f1xx_hal_rcc.c ****     {
 753:Drivers/STM32F1xx_HAL_Driver/Src/stm32f1xx_hal_rcc.c ****       /* Check the HSE ready flag */  
 754:Drivers/STM32F1xx_HAL_Driver/Src/stm32f1xx_hal_rcc.c ****       if(__HAL_RCC_GET_FLAG(RCC_FLAG_HSERDY) == RESET)
 755:Drivers/STM32F1xx_HAL_Driver/Src/stm32f1xx_hal_rcc.c ****       {
 756:Drivers/STM32F1xx_HAL_Driver/Src/stm32f1xx_hal_rcc.c ****         return HAL_ERROR;
 757:Drivers/STM32F1xx_HAL_Driver/Src/stm32f1xx_hal_rcc.c ****       }
 758:Drivers/STM32F1xx_HAL_Driver/Src/stm32f1xx_hal_rcc.c ****     }
 759:Drivers/STM32F1xx_HAL_Driver/Src/stm32f1xx_hal_rcc.c ****     /* PLL is selected as System Clock Source */
 760:Drivers/STM32F1xx_HAL_Driver/Src/stm32f1xx_hal_rcc.c ****     else if(RCC_ClkInitStruct->SYSCLKSource == RCC_SYSCLKSOURCE_PLLCLK)
 761:Drivers/STM32F1xx_HAL_Driver/Src/stm32f1xx_hal_rcc.c ****     {
 762:Drivers/STM32F1xx_HAL_Driver/Src/stm32f1xx_hal_rcc.c ****       /* Check the PLL ready flag */  
 763:Drivers/STM32F1xx_HAL_Driver/Src/stm32f1xx_hal_rcc.c ****       if(__HAL_RCC_GET_FLAG(RCC_FLAG_PLLRDY) == RESET)
 764:Drivers/STM32F1xx_HAL_Driver/Src/stm32f1xx_hal_rcc.c ****       {
 765:Drivers/STM32F1xx_HAL_Driver/Src/stm32f1xx_hal_rcc.c ****         return HAL_ERROR;
 766:Drivers/STM32F1xx_HAL_Driver/Src/stm32f1xx_hal_rcc.c ****       }
 767:Drivers/STM32F1xx_HAL_Driver/Src/stm32f1xx_hal_rcc.c ****     }
 768:Drivers/STM32F1xx_HAL_Driver/Src/stm32f1xx_hal_rcc.c ****     /* HSI is selected as System Clock Source */
 769:Drivers/STM32F1xx_HAL_Driver/Src/stm32f1xx_hal_rcc.c ****     else
 770:Drivers/STM32F1xx_HAL_Driver/Src/stm32f1xx_hal_rcc.c ****     {
 771:Drivers/STM32F1xx_HAL_Driver/Src/stm32f1xx_hal_rcc.c ****       /* Check the HSI ready flag */  
 772:Drivers/STM32F1xx_HAL_Driver/Src/stm32f1xx_hal_rcc.c ****       if(__HAL_RCC_GET_FLAG(RCC_FLAG_HSIRDY) == RESET)
 773:Drivers/STM32F1xx_HAL_Driver/Src/stm32f1xx_hal_rcc.c ****       {
ARM GAS  /tmp/ccJTbD9y.s 			page 15


 774:Drivers/STM32F1xx_HAL_Driver/Src/stm32f1xx_hal_rcc.c ****         return HAL_ERROR;
 775:Drivers/STM32F1xx_HAL_Driver/Src/stm32f1xx_hal_rcc.c ****       }
 776:Drivers/STM32F1xx_HAL_Driver/Src/stm32f1xx_hal_rcc.c ****     }
 777:Drivers/STM32F1xx_HAL_Driver/Src/stm32f1xx_hal_rcc.c ****     __HAL_RCC_SYSCLK_CONFIG(RCC_ClkInitStruct->SYSCLKSource);
 778:Drivers/STM32F1xx_HAL_Driver/Src/stm32f1xx_hal_rcc.c **** 
 779:Drivers/STM32F1xx_HAL_Driver/Src/stm32f1xx_hal_rcc.c ****     /* Get Start Tick */
 780:Drivers/STM32F1xx_HAL_Driver/Src/stm32f1xx_hal_rcc.c ****     tickstart = HAL_GetTick();
 781:Drivers/STM32F1xx_HAL_Driver/Src/stm32f1xx_hal_rcc.c ****     
 782:Drivers/STM32F1xx_HAL_Driver/Src/stm32f1xx_hal_rcc.c ****     if(RCC_ClkInitStruct->SYSCLKSource == RCC_SYSCLKSOURCE_HSE)
 783:Drivers/STM32F1xx_HAL_Driver/Src/stm32f1xx_hal_rcc.c ****     {
 784:Drivers/STM32F1xx_HAL_Driver/Src/stm32f1xx_hal_rcc.c ****       while (__HAL_RCC_GET_SYSCLK_SOURCE() != RCC_SYSCLKSOURCE_STATUS_HSE)
 785:Drivers/STM32F1xx_HAL_Driver/Src/stm32f1xx_hal_rcc.c ****       {
 786:Drivers/STM32F1xx_HAL_Driver/Src/stm32f1xx_hal_rcc.c ****         if((HAL_GetTick() - tickstart ) > CLOCKSWITCH_TIMEOUT_VALUE)
 787:Drivers/STM32F1xx_HAL_Driver/Src/stm32f1xx_hal_rcc.c ****         {
 788:Drivers/STM32F1xx_HAL_Driver/Src/stm32f1xx_hal_rcc.c ****           return HAL_TIMEOUT;
 789:Drivers/STM32F1xx_HAL_Driver/Src/stm32f1xx_hal_rcc.c ****         }
 790:Drivers/STM32F1xx_HAL_Driver/Src/stm32f1xx_hal_rcc.c ****       }
 791:Drivers/STM32F1xx_HAL_Driver/Src/stm32f1xx_hal_rcc.c ****     }
 792:Drivers/STM32F1xx_HAL_Driver/Src/stm32f1xx_hal_rcc.c ****     else if(RCC_ClkInitStruct->SYSCLKSource == RCC_SYSCLKSOURCE_PLLCLK)
 793:Drivers/STM32F1xx_HAL_Driver/Src/stm32f1xx_hal_rcc.c ****     {
 794:Drivers/STM32F1xx_HAL_Driver/Src/stm32f1xx_hal_rcc.c ****       while (__HAL_RCC_GET_SYSCLK_SOURCE() != RCC_SYSCLKSOURCE_STATUS_PLLCLK)
 795:Drivers/STM32F1xx_HAL_Driver/Src/stm32f1xx_hal_rcc.c ****       {
 796:Drivers/STM32F1xx_HAL_Driver/Src/stm32f1xx_hal_rcc.c ****         if((HAL_GetTick() - tickstart ) > CLOCKSWITCH_TIMEOUT_VALUE)
 797:Drivers/STM32F1xx_HAL_Driver/Src/stm32f1xx_hal_rcc.c ****         {
 798:Drivers/STM32F1xx_HAL_Driver/Src/stm32f1xx_hal_rcc.c ****           return HAL_TIMEOUT;
 799:Drivers/STM32F1xx_HAL_Driver/Src/stm32f1xx_hal_rcc.c ****         }
 800:Drivers/STM32F1xx_HAL_Driver/Src/stm32f1xx_hal_rcc.c ****       }
 801:Drivers/STM32F1xx_HAL_Driver/Src/stm32f1xx_hal_rcc.c ****     }
 802:Drivers/STM32F1xx_HAL_Driver/Src/stm32f1xx_hal_rcc.c ****     else
 803:Drivers/STM32F1xx_HAL_Driver/Src/stm32f1xx_hal_rcc.c ****     {
 804:Drivers/STM32F1xx_HAL_Driver/Src/stm32f1xx_hal_rcc.c ****       while (__HAL_RCC_GET_SYSCLK_SOURCE() != RCC_SYSCLKSOURCE_STATUS_HSI)
 805:Drivers/STM32F1xx_HAL_Driver/Src/stm32f1xx_hal_rcc.c ****       {
 806:Drivers/STM32F1xx_HAL_Driver/Src/stm32f1xx_hal_rcc.c ****         if((HAL_GetTick() - tickstart ) > CLOCKSWITCH_TIMEOUT_VALUE)
 807:Drivers/STM32F1xx_HAL_Driver/Src/stm32f1xx_hal_rcc.c ****         {
 808:Drivers/STM32F1xx_HAL_Driver/Src/stm32f1xx_hal_rcc.c ****           return HAL_TIMEOUT;
 809:Drivers/STM32F1xx_HAL_Driver/Src/stm32f1xx_hal_rcc.c ****         }
 810:Drivers/STM32F1xx_HAL_Driver/Src/stm32f1xx_hal_rcc.c ****       }
 811:Drivers/STM32F1xx_HAL_Driver/Src/stm32f1xx_hal_rcc.c ****     }      
 812:Drivers/STM32F1xx_HAL_Driver/Src/stm32f1xx_hal_rcc.c ****   }    
 813:Drivers/STM32F1xx_HAL_Driver/Src/stm32f1xx_hal_rcc.c **** #if defined(FLASH_ACR_LATENCY)
 814:Drivers/STM32F1xx_HAL_Driver/Src/stm32f1xx_hal_rcc.c ****   /* Decreasing the number of wait states because of lower CPU frequency */
 815:Drivers/STM32F1xx_HAL_Driver/Src/stm32f1xx_hal_rcc.c ****   if(FLatency < (FLASH->ACR & FLASH_ACR_LATENCY))
 816:Drivers/STM32F1xx_HAL_Driver/Src/stm32f1xx_hal_rcc.c ****   {    
 817:Drivers/STM32F1xx_HAL_Driver/Src/stm32f1xx_hal_rcc.c ****     /* Program the new number of wait states to the LATENCY bits in the FLASH_ACR register */
 818:Drivers/STM32F1xx_HAL_Driver/Src/stm32f1xx_hal_rcc.c ****     __HAL_FLASH_SET_LATENCY(FLatency);
 819:Drivers/STM32F1xx_HAL_Driver/Src/stm32f1xx_hal_rcc.c ****     
 820:Drivers/STM32F1xx_HAL_Driver/Src/stm32f1xx_hal_rcc.c ****     /* Check that the new number of wait states is taken into account to access the Flash
 821:Drivers/STM32F1xx_HAL_Driver/Src/stm32f1xx_hal_rcc.c ****     memory by reading the FLASH_ACR register */
 822:Drivers/STM32F1xx_HAL_Driver/Src/stm32f1xx_hal_rcc.c ****     if((FLASH->ACR & FLASH_ACR_LATENCY) != FLatency)
 823:Drivers/STM32F1xx_HAL_Driver/Src/stm32f1xx_hal_rcc.c ****     {
 824:Drivers/STM32F1xx_HAL_Driver/Src/stm32f1xx_hal_rcc.c ****       return HAL_ERROR;
 825:Drivers/STM32F1xx_HAL_Driver/Src/stm32f1xx_hal_rcc.c ****     }
 826:Drivers/STM32F1xx_HAL_Driver/Src/stm32f1xx_hal_rcc.c ****   }    
 827:Drivers/STM32F1xx_HAL_Driver/Src/stm32f1xx_hal_rcc.c **** #endif /* FLASH_ACR_LATENCY */
 828:Drivers/STM32F1xx_HAL_Driver/Src/stm32f1xx_hal_rcc.c **** 
 829:Drivers/STM32F1xx_HAL_Driver/Src/stm32f1xx_hal_rcc.c ****   /*-------------------------- PCLK1 Configuration ---------------------------*/ 
 830:Drivers/STM32F1xx_HAL_Driver/Src/stm32f1xx_hal_rcc.c ****   if(((RCC_ClkInitStruct->ClockType) & RCC_CLOCKTYPE_PCLK1) == RCC_CLOCKTYPE_PCLK1)
ARM GAS  /tmp/ccJTbD9y.s 			page 16


 831:Drivers/STM32F1xx_HAL_Driver/Src/stm32f1xx_hal_rcc.c ****   {
 832:Drivers/STM32F1xx_HAL_Driver/Src/stm32f1xx_hal_rcc.c ****     assert_param(IS_RCC_PCLK(RCC_ClkInitStruct->APB1CLKDivider));
 833:Drivers/STM32F1xx_HAL_Driver/Src/stm32f1xx_hal_rcc.c ****     MODIFY_REG(RCC->CFGR, RCC_CFGR_PPRE1, RCC_ClkInitStruct->APB1CLKDivider);
 834:Drivers/STM32F1xx_HAL_Driver/Src/stm32f1xx_hal_rcc.c ****   }
 835:Drivers/STM32F1xx_HAL_Driver/Src/stm32f1xx_hal_rcc.c ****   
 836:Drivers/STM32F1xx_HAL_Driver/Src/stm32f1xx_hal_rcc.c ****   /*-------------------------- PCLK2 Configuration ---------------------------*/ 
 837:Drivers/STM32F1xx_HAL_Driver/Src/stm32f1xx_hal_rcc.c ****   if(((RCC_ClkInitStruct->ClockType) & RCC_CLOCKTYPE_PCLK2) == RCC_CLOCKTYPE_PCLK2)
 838:Drivers/STM32F1xx_HAL_Driver/Src/stm32f1xx_hal_rcc.c ****   {
 839:Drivers/STM32F1xx_HAL_Driver/Src/stm32f1xx_hal_rcc.c ****     assert_param(IS_RCC_PCLK(RCC_ClkInitStruct->APB2CLKDivider));
 840:Drivers/STM32F1xx_HAL_Driver/Src/stm32f1xx_hal_rcc.c ****     MODIFY_REG(RCC->CFGR, RCC_CFGR_PPRE2, ((RCC_ClkInitStruct->APB2CLKDivider) << 3));
 841:Drivers/STM32F1xx_HAL_Driver/Src/stm32f1xx_hal_rcc.c ****   }
 842:Drivers/STM32F1xx_HAL_Driver/Src/stm32f1xx_hal_rcc.c ****  
 843:Drivers/STM32F1xx_HAL_Driver/Src/stm32f1xx_hal_rcc.c ****   /* Update the SystemCoreClock global variable */
 844:Drivers/STM32F1xx_HAL_Driver/Src/stm32f1xx_hal_rcc.c ****   SystemCoreClock = HAL_RCC_GetSysClockFreq() >> AHBPrescTable[(RCC->CFGR & RCC_CFGR_HPRE)>> RCC_CF
 845:Drivers/STM32F1xx_HAL_Driver/Src/stm32f1xx_hal_rcc.c **** 
 846:Drivers/STM32F1xx_HAL_Driver/Src/stm32f1xx_hal_rcc.c ****   /* Configure the source of time base considering new system clocks settings*/
 847:Drivers/STM32F1xx_HAL_Driver/Src/stm32f1xx_hal_rcc.c ****   HAL_InitTick (TICK_INT_PRIORITY);
 848:Drivers/STM32F1xx_HAL_Driver/Src/stm32f1xx_hal_rcc.c ****   
 849:Drivers/STM32F1xx_HAL_Driver/Src/stm32f1xx_hal_rcc.c ****   return HAL_OK;
 850:Drivers/STM32F1xx_HAL_Driver/Src/stm32f1xx_hal_rcc.c **** }
 851:Drivers/STM32F1xx_HAL_Driver/Src/stm32f1xx_hal_rcc.c **** 
 852:Drivers/STM32F1xx_HAL_Driver/Src/stm32f1xx_hal_rcc.c **** /**
 853:Drivers/STM32F1xx_HAL_Driver/Src/stm32f1xx_hal_rcc.c ****   * @}
 854:Drivers/STM32F1xx_HAL_Driver/Src/stm32f1xx_hal_rcc.c ****   */
 855:Drivers/STM32F1xx_HAL_Driver/Src/stm32f1xx_hal_rcc.c **** 
 856:Drivers/STM32F1xx_HAL_Driver/Src/stm32f1xx_hal_rcc.c **** /** @defgroup RCC_Exported_Functions_Group2 Peripheral Control functions
 857:Drivers/STM32F1xx_HAL_Driver/Src/stm32f1xx_hal_rcc.c ****   *  @brief   RCC clocks control functions
 858:Drivers/STM32F1xx_HAL_Driver/Src/stm32f1xx_hal_rcc.c ****   *
 859:Drivers/STM32F1xx_HAL_Driver/Src/stm32f1xx_hal_rcc.c ****   @verbatim   
 860:Drivers/STM32F1xx_HAL_Driver/Src/stm32f1xx_hal_rcc.c ****   ===============================================================================
 861:Drivers/STM32F1xx_HAL_Driver/Src/stm32f1xx_hal_rcc.c ****                   ##### Peripheral Control functions #####
 862:Drivers/STM32F1xx_HAL_Driver/Src/stm32f1xx_hal_rcc.c ****   ===============================================================================  
 863:Drivers/STM32F1xx_HAL_Driver/Src/stm32f1xx_hal_rcc.c ****     [..]
 864:Drivers/STM32F1xx_HAL_Driver/Src/stm32f1xx_hal_rcc.c ****     This subsection provides a set of functions allowing to control the RCC Clocks 
 865:Drivers/STM32F1xx_HAL_Driver/Src/stm32f1xx_hal_rcc.c ****     frequencies.
 866:Drivers/STM32F1xx_HAL_Driver/Src/stm32f1xx_hal_rcc.c **** 
 867:Drivers/STM32F1xx_HAL_Driver/Src/stm32f1xx_hal_rcc.c ****   @endverbatim
 868:Drivers/STM32F1xx_HAL_Driver/Src/stm32f1xx_hal_rcc.c ****   * @{
 869:Drivers/STM32F1xx_HAL_Driver/Src/stm32f1xx_hal_rcc.c ****   */
 870:Drivers/STM32F1xx_HAL_Driver/Src/stm32f1xx_hal_rcc.c **** 
 871:Drivers/STM32F1xx_HAL_Driver/Src/stm32f1xx_hal_rcc.c **** /**
 872:Drivers/STM32F1xx_HAL_Driver/Src/stm32f1xx_hal_rcc.c ****   * @brief  Selects the clock source to output on MCO pin.
 873:Drivers/STM32F1xx_HAL_Driver/Src/stm32f1xx_hal_rcc.c ****   * @note   MCO pin should be configured in alternate function mode.
 874:Drivers/STM32F1xx_HAL_Driver/Src/stm32f1xx_hal_rcc.c ****   * @param  RCC_MCOx specifies the output direction for the clock source.
 875:Drivers/STM32F1xx_HAL_Driver/Src/stm32f1xx_hal_rcc.c ****   *          This parameter can be one of the following values:
 876:Drivers/STM32F1xx_HAL_Driver/Src/stm32f1xx_hal_rcc.c ****   *            @arg @ref RCC_MCO1 Clock source to output on MCO1 pin(PA8).
 877:Drivers/STM32F1xx_HAL_Driver/Src/stm32f1xx_hal_rcc.c ****   * @param  RCC_MCOSource specifies the clock source to output.
 878:Drivers/STM32F1xx_HAL_Driver/Src/stm32f1xx_hal_rcc.c ****   *          This parameter can be one of the following values:
 879:Drivers/STM32F1xx_HAL_Driver/Src/stm32f1xx_hal_rcc.c ****   *            @arg @ref RCC_MCO1SOURCE_NOCLOCK     No clock selected as MCO clock
 880:Drivers/STM32F1xx_HAL_Driver/Src/stm32f1xx_hal_rcc.c ****   *            @arg @ref RCC_MCO1SOURCE_SYSCLK      System clock selected as MCO clock
 881:Drivers/STM32F1xx_HAL_Driver/Src/stm32f1xx_hal_rcc.c ****   *            @arg @ref RCC_MCO1SOURCE_HSI         HSI selected as MCO clock
 882:Drivers/STM32F1xx_HAL_Driver/Src/stm32f1xx_hal_rcc.c ****   *            @arg @ref RCC_MCO1SOURCE_HSE         HSE selected as MCO clock
 883:Drivers/STM32F1xx_HAL_Driver/Src/stm32f1xx_hal_rcc.c ****   @if STM32F105xC
 884:Drivers/STM32F1xx_HAL_Driver/Src/stm32f1xx_hal_rcc.c ****   *            @arg @ref RCC_MCO1SOURCE_PLLCLK       PLL clock divided by 2 selected as MCO source
 885:Drivers/STM32F1xx_HAL_Driver/Src/stm32f1xx_hal_rcc.c ****   *            @arg @ref RCC_MCO1SOURCE_PLL2CLK      PLL2 clock selected as MCO source
 886:Drivers/STM32F1xx_HAL_Driver/Src/stm32f1xx_hal_rcc.c ****   *            @arg @ref RCC_MCO1SOURCE_PLL3CLK_DIV2 PLL3 clock divided by 2 selected as MCO source
 887:Drivers/STM32F1xx_HAL_Driver/Src/stm32f1xx_hal_rcc.c ****   *            @arg @ref RCC_MCO1SOURCE_EXT_HSE      XT1 external 3-25 MHz oscillator clock selecte
ARM GAS  /tmp/ccJTbD9y.s 			page 17


 888:Drivers/STM32F1xx_HAL_Driver/Src/stm32f1xx_hal_rcc.c ****   *            @arg @ref RCC_MCO1SOURCE_PLL3CLK      PLL3 clock selected as MCO source
 889:Drivers/STM32F1xx_HAL_Driver/Src/stm32f1xx_hal_rcc.c ****   @endif
 890:Drivers/STM32F1xx_HAL_Driver/Src/stm32f1xx_hal_rcc.c ****   @if STM32F107xC
 891:Drivers/STM32F1xx_HAL_Driver/Src/stm32f1xx_hal_rcc.c ****   *            @arg @ref RCC_MCO1SOURCE_PLLCLK       PLL clock divided by 2 selected as MCO source
 892:Drivers/STM32F1xx_HAL_Driver/Src/stm32f1xx_hal_rcc.c ****   *            @arg @ref RCC_MCO1SOURCE_PLL2CLK      PLL2 clock selected as MCO source
 893:Drivers/STM32F1xx_HAL_Driver/Src/stm32f1xx_hal_rcc.c ****   *            @arg @ref RCC_MCO1SOURCE_PLL3CLK_DIV2 PLL3 clock divided by 2 selected as MCO source
 894:Drivers/STM32F1xx_HAL_Driver/Src/stm32f1xx_hal_rcc.c ****   *            @arg @ref RCC_MCO1SOURCE_EXT_HSE XT1  external 3-25 MHz oscillator clock selected as
 895:Drivers/STM32F1xx_HAL_Driver/Src/stm32f1xx_hal_rcc.c ****   *            @arg @ref RCC_MCO1SOURCE_PLL3CLK      PLL3 clock selected as MCO source
 896:Drivers/STM32F1xx_HAL_Driver/Src/stm32f1xx_hal_rcc.c ****   @endif
 897:Drivers/STM32F1xx_HAL_Driver/Src/stm32f1xx_hal_rcc.c ****   * @param  RCC_MCODiv specifies the MCO DIV.
 898:Drivers/STM32F1xx_HAL_Driver/Src/stm32f1xx_hal_rcc.c ****   *          This parameter can be one of the following values:
 899:Drivers/STM32F1xx_HAL_Driver/Src/stm32f1xx_hal_rcc.c ****   *            @arg @ref RCC_MCODIV_1 no division applied to MCO clock
 900:Drivers/STM32F1xx_HAL_Driver/Src/stm32f1xx_hal_rcc.c ****   * @retval None
 901:Drivers/STM32F1xx_HAL_Driver/Src/stm32f1xx_hal_rcc.c ****   */
 902:Drivers/STM32F1xx_HAL_Driver/Src/stm32f1xx_hal_rcc.c **** void HAL_RCC_MCOConfig(uint32_t RCC_MCOx, uint32_t RCC_MCOSource, uint32_t RCC_MCODiv)
 903:Drivers/STM32F1xx_HAL_Driver/Src/stm32f1xx_hal_rcc.c **** {
 904:Drivers/STM32F1xx_HAL_Driver/Src/stm32f1xx_hal_rcc.c ****   GPIO_InitTypeDef gpio = {0U};
 905:Drivers/STM32F1xx_HAL_Driver/Src/stm32f1xx_hal_rcc.c **** 
 906:Drivers/STM32F1xx_HAL_Driver/Src/stm32f1xx_hal_rcc.c ****   /* Check the parameters */
 907:Drivers/STM32F1xx_HAL_Driver/Src/stm32f1xx_hal_rcc.c ****   assert_param(IS_RCC_MCO(RCC_MCOx));
 908:Drivers/STM32F1xx_HAL_Driver/Src/stm32f1xx_hal_rcc.c ****   assert_param(IS_RCC_MCODIV(RCC_MCODiv));
 909:Drivers/STM32F1xx_HAL_Driver/Src/stm32f1xx_hal_rcc.c ****   assert_param(IS_RCC_MCO1SOURCE(RCC_MCOSource));
 910:Drivers/STM32F1xx_HAL_Driver/Src/stm32f1xx_hal_rcc.c **** 
 911:Drivers/STM32F1xx_HAL_Driver/Src/stm32f1xx_hal_rcc.c ****   /* Prevent unused argument(s) compilation warning */
 912:Drivers/STM32F1xx_HAL_Driver/Src/stm32f1xx_hal_rcc.c ****   UNUSED(RCC_MCOx);
 913:Drivers/STM32F1xx_HAL_Driver/Src/stm32f1xx_hal_rcc.c ****   UNUSED(RCC_MCODiv);
 914:Drivers/STM32F1xx_HAL_Driver/Src/stm32f1xx_hal_rcc.c **** 
 915:Drivers/STM32F1xx_HAL_Driver/Src/stm32f1xx_hal_rcc.c ****   /* Configure the MCO1 pin in alternate function mode */
 916:Drivers/STM32F1xx_HAL_Driver/Src/stm32f1xx_hal_rcc.c ****   gpio.Mode      = GPIO_MODE_AF_PP;
 917:Drivers/STM32F1xx_HAL_Driver/Src/stm32f1xx_hal_rcc.c ****   gpio.Speed     = GPIO_SPEED_FREQ_HIGH;
 918:Drivers/STM32F1xx_HAL_Driver/Src/stm32f1xx_hal_rcc.c ****   gpio.Pull      = GPIO_NOPULL;
 919:Drivers/STM32F1xx_HAL_Driver/Src/stm32f1xx_hal_rcc.c ****   gpio.Pin       = MCO1_PIN;
 920:Drivers/STM32F1xx_HAL_Driver/Src/stm32f1xx_hal_rcc.c **** 
 921:Drivers/STM32F1xx_HAL_Driver/Src/stm32f1xx_hal_rcc.c ****   /* MCO1 Clock Enable */
 922:Drivers/STM32F1xx_HAL_Driver/Src/stm32f1xx_hal_rcc.c ****   MCO1_CLK_ENABLE();
 923:Drivers/STM32F1xx_HAL_Driver/Src/stm32f1xx_hal_rcc.c **** 
 924:Drivers/STM32F1xx_HAL_Driver/Src/stm32f1xx_hal_rcc.c ****   HAL_GPIO_Init(MCO1_GPIO_PORT, &gpio);
 925:Drivers/STM32F1xx_HAL_Driver/Src/stm32f1xx_hal_rcc.c **** 
 926:Drivers/STM32F1xx_HAL_Driver/Src/stm32f1xx_hal_rcc.c ****   /* Configure the MCO clock source */
 927:Drivers/STM32F1xx_HAL_Driver/Src/stm32f1xx_hal_rcc.c ****   __HAL_RCC_MCO1_CONFIG(RCC_MCOSource, RCC_MCODiv);
 928:Drivers/STM32F1xx_HAL_Driver/Src/stm32f1xx_hal_rcc.c **** }
 929:Drivers/STM32F1xx_HAL_Driver/Src/stm32f1xx_hal_rcc.c **** 
 930:Drivers/STM32F1xx_HAL_Driver/Src/stm32f1xx_hal_rcc.c **** /**
 931:Drivers/STM32F1xx_HAL_Driver/Src/stm32f1xx_hal_rcc.c ****   * @brief  Enables the Clock Security System.
 932:Drivers/STM32F1xx_HAL_Driver/Src/stm32f1xx_hal_rcc.c ****   * @note   If a failure is detected on the HSE oscillator clock, this oscillator
 933:Drivers/STM32F1xx_HAL_Driver/Src/stm32f1xx_hal_rcc.c ****   *         is automatically disabled and an interrupt is generated to inform the
 934:Drivers/STM32F1xx_HAL_Driver/Src/stm32f1xx_hal_rcc.c ****   *         software about the failure (Clock Security System Interrupt, CSSI),
 935:Drivers/STM32F1xx_HAL_Driver/Src/stm32f1xx_hal_rcc.c ****   *         allowing the MCU to perform rescue operations. The CSSI is linked to 
 936:Drivers/STM32F1xx_HAL_Driver/Src/stm32f1xx_hal_rcc.c ****   *         the Cortex-M3 NMI (Non-Maskable Interrupt) exception vector.  
 937:Drivers/STM32F1xx_HAL_Driver/Src/stm32f1xx_hal_rcc.c ****   * @retval None
 938:Drivers/STM32F1xx_HAL_Driver/Src/stm32f1xx_hal_rcc.c ****   */
 939:Drivers/STM32F1xx_HAL_Driver/Src/stm32f1xx_hal_rcc.c **** void HAL_RCC_EnableCSS(void)
 940:Drivers/STM32F1xx_HAL_Driver/Src/stm32f1xx_hal_rcc.c **** {
 941:Drivers/STM32F1xx_HAL_Driver/Src/stm32f1xx_hal_rcc.c ****   *(__IO uint32_t *) RCC_CR_CSSON_BB = (uint32_t)ENABLE;
 942:Drivers/STM32F1xx_HAL_Driver/Src/stm32f1xx_hal_rcc.c **** }
 943:Drivers/STM32F1xx_HAL_Driver/Src/stm32f1xx_hal_rcc.c **** 
 944:Drivers/STM32F1xx_HAL_Driver/Src/stm32f1xx_hal_rcc.c **** /**
ARM GAS  /tmp/ccJTbD9y.s 			page 18


 945:Drivers/STM32F1xx_HAL_Driver/Src/stm32f1xx_hal_rcc.c ****   * @brief  Disables the Clock Security System.
 946:Drivers/STM32F1xx_HAL_Driver/Src/stm32f1xx_hal_rcc.c ****   * @retval None
 947:Drivers/STM32F1xx_HAL_Driver/Src/stm32f1xx_hal_rcc.c ****   */
 948:Drivers/STM32F1xx_HAL_Driver/Src/stm32f1xx_hal_rcc.c **** void HAL_RCC_DisableCSS(void)
 949:Drivers/STM32F1xx_HAL_Driver/Src/stm32f1xx_hal_rcc.c **** {
 950:Drivers/STM32F1xx_HAL_Driver/Src/stm32f1xx_hal_rcc.c ****   *(__IO uint32_t *) RCC_CR_CSSON_BB = (uint32_t)DISABLE;
 951:Drivers/STM32F1xx_HAL_Driver/Src/stm32f1xx_hal_rcc.c **** }
 952:Drivers/STM32F1xx_HAL_Driver/Src/stm32f1xx_hal_rcc.c **** 
 953:Drivers/STM32F1xx_HAL_Driver/Src/stm32f1xx_hal_rcc.c **** /**
 954:Drivers/STM32F1xx_HAL_Driver/Src/stm32f1xx_hal_rcc.c ****   * @brief  Returns the SYSCLK frequency     
 955:Drivers/STM32F1xx_HAL_Driver/Src/stm32f1xx_hal_rcc.c ****   * @note   The system frequency computed by this function is not the real 
 956:Drivers/STM32F1xx_HAL_Driver/Src/stm32f1xx_hal_rcc.c ****   *         frequency in the chip. It is calculated based on the predefined 
 957:Drivers/STM32F1xx_HAL_Driver/Src/stm32f1xx_hal_rcc.c ****   *         constant and the selected clock source:
 958:Drivers/STM32F1xx_HAL_Driver/Src/stm32f1xx_hal_rcc.c ****   * @note     If SYSCLK source is HSI, function returns values based on HSI_VALUE(*)
 959:Drivers/STM32F1xx_HAL_Driver/Src/stm32f1xx_hal_rcc.c ****   * @note     If SYSCLK source is HSE, function returns a value based on HSE_VALUE
 960:Drivers/STM32F1xx_HAL_Driver/Src/stm32f1xx_hal_rcc.c ****   *           divided by PREDIV factor(**)
 961:Drivers/STM32F1xx_HAL_Driver/Src/stm32f1xx_hal_rcc.c ****   * @note     If SYSCLK source is PLL, function returns a value based on HSE_VALUE
 962:Drivers/STM32F1xx_HAL_Driver/Src/stm32f1xx_hal_rcc.c ****   *           divided by PREDIV factor(**) or HSI_VALUE(*) multiplied by the PLL factor.
 963:Drivers/STM32F1xx_HAL_Driver/Src/stm32f1xx_hal_rcc.c ****   * @note     (*) HSI_VALUE is a constant defined in stm32f1xx_hal_conf.h file (default value
 964:Drivers/STM32F1xx_HAL_Driver/Src/stm32f1xx_hal_rcc.c ****   *               8 MHz) but the real value may vary depending on the variations
 965:Drivers/STM32F1xx_HAL_Driver/Src/stm32f1xx_hal_rcc.c ****   *               in voltage and temperature.
 966:Drivers/STM32F1xx_HAL_Driver/Src/stm32f1xx_hal_rcc.c ****   * @note     (**) HSE_VALUE is a constant defined in stm32f1xx_hal_conf.h file (default value
 967:Drivers/STM32F1xx_HAL_Driver/Src/stm32f1xx_hal_rcc.c ****   *                8 MHz), user has to ensure that HSE_VALUE is same as the real
 968:Drivers/STM32F1xx_HAL_Driver/Src/stm32f1xx_hal_rcc.c ****   *                frequency of the crystal used. Otherwise, this function may
 969:Drivers/STM32F1xx_HAL_Driver/Src/stm32f1xx_hal_rcc.c ****   *                have wrong result.
 970:Drivers/STM32F1xx_HAL_Driver/Src/stm32f1xx_hal_rcc.c ****   *                  
 971:Drivers/STM32F1xx_HAL_Driver/Src/stm32f1xx_hal_rcc.c ****   * @note   The result of this function could be not correct when using fractional
 972:Drivers/STM32F1xx_HAL_Driver/Src/stm32f1xx_hal_rcc.c ****   *         value for HSE crystal.
 973:Drivers/STM32F1xx_HAL_Driver/Src/stm32f1xx_hal_rcc.c ****   *           
 974:Drivers/STM32F1xx_HAL_Driver/Src/stm32f1xx_hal_rcc.c ****   * @note   This function can be used by the user application to compute the 
 975:Drivers/STM32F1xx_HAL_Driver/Src/stm32f1xx_hal_rcc.c ****   *         baud-rate for the communication peripherals or configure other parameters.
 976:Drivers/STM32F1xx_HAL_Driver/Src/stm32f1xx_hal_rcc.c ****   *           
 977:Drivers/STM32F1xx_HAL_Driver/Src/stm32f1xx_hal_rcc.c ****   * @note   Each time SYSCLK changes, this function must be called to update the
 978:Drivers/STM32F1xx_HAL_Driver/Src/stm32f1xx_hal_rcc.c ****   *         right SYSCLK value. Otherwise, any configuration based on this function will be incorre
 979:Drivers/STM32F1xx_HAL_Driver/Src/stm32f1xx_hal_rcc.c ****   *         
 980:Drivers/STM32F1xx_HAL_Driver/Src/stm32f1xx_hal_rcc.c ****   * @retval SYSCLK frequency
 981:Drivers/STM32F1xx_HAL_Driver/Src/stm32f1xx_hal_rcc.c ****   */
 982:Drivers/STM32F1xx_HAL_Driver/Src/stm32f1xx_hal_rcc.c **** uint32_t HAL_RCC_GetSysClockFreq(void)
 983:Drivers/STM32F1xx_HAL_Driver/Src/stm32f1xx_hal_rcc.c **** {
 984:Drivers/STM32F1xx_HAL_Driver/Src/stm32f1xx_hal_rcc.c **** #if defined(RCC_CFGR2_PREDIV1SRC)
 985:Drivers/STM32F1xx_HAL_Driver/Src/stm32f1xx_hal_rcc.c ****   const uint8_t aPLLMULFactorTable[14] = {0, 0, 4, 5, 6, 7, 8, 9, 0, 0, 0, 0, 0, 13};
 986:Drivers/STM32F1xx_HAL_Driver/Src/stm32f1xx_hal_rcc.c ****   const uint8_t aPredivFactorTable[16] = {1, 2, 3, 4, 5, 6, 7, 8, 9, 10, 11, 12, 13, 14, 15, 16};
 987:Drivers/STM32F1xx_HAL_Driver/Src/stm32f1xx_hal_rcc.c **** #else
 988:Drivers/STM32F1xx_HAL_Driver/Src/stm32f1xx_hal_rcc.c ****   const uint8_t aPLLMULFactorTable[16] = {2, 3, 4, 5, 6, 7, 8, 9, 10, 11, 12, 13, 14, 15, 16, 16};
 989:Drivers/STM32F1xx_HAL_Driver/Src/stm32f1xx_hal_rcc.c **** #if defined(RCC_CFGR2_PREDIV1)
 990:Drivers/STM32F1xx_HAL_Driver/Src/stm32f1xx_hal_rcc.c ****   const uint8_t aPredivFactorTable[16] = {1, 2, 3, 4, 5, 6, 7, 8, 9, 10, 11, 12, 13, 14, 15, 16};
 991:Drivers/STM32F1xx_HAL_Driver/Src/stm32f1xx_hal_rcc.c **** #else
 992:Drivers/STM32F1xx_HAL_Driver/Src/stm32f1xx_hal_rcc.c ****   const uint8_t aPredivFactorTable[2] = {1, 2};
 993:Drivers/STM32F1xx_HAL_Driver/Src/stm32f1xx_hal_rcc.c **** #endif /*RCC_CFGR2_PREDIV1*/
 994:Drivers/STM32F1xx_HAL_Driver/Src/stm32f1xx_hal_rcc.c **** 
 995:Drivers/STM32F1xx_HAL_Driver/Src/stm32f1xx_hal_rcc.c **** #endif
 996:Drivers/STM32F1xx_HAL_Driver/Src/stm32f1xx_hal_rcc.c ****   uint32_t tmpreg = 0U, prediv = 0U, pllclk = 0U, pllmul = 0U;
 997:Drivers/STM32F1xx_HAL_Driver/Src/stm32f1xx_hal_rcc.c ****   uint32_t sysclockfreq = 0U;
 998:Drivers/STM32F1xx_HAL_Driver/Src/stm32f1xx_hal_rcc.c **** #if defined(RCC_CFGR2_PREDIV1SRC)
 999:Drivers/STM32F1xx_HAL_Driver/Src/stm32f1xx_hal_rcc.c ****   uint32_t prediv2 = 0U, pll2mul = 0U;
1000:Drivers/STM32F1xx_HAL_Driver/Src/stm32f1xx_hal_rcc.c **** #endif /*RCC_CFGR2_PREDIV1SRC*/
1001:Drivers/STM32F1xx_HAL_Driver/Src/stm32f1xx_hal_rcc.c ****   
ARM GAS  /tmp/ccJTbD9y.s 			page 19


1002:Drivers/STM32F1xx_HAL_Driver/Src/stm32f1xx_hal_rcc.c ****   tmpreg = RCC->CFGR;
1003:Drivers/STM32F1xx_HAL_Driver/Src/stm32f1xx_hal_rcc.c ****   
1004:Drivers/STM32F1xx_HAL_Driver/Src/stm32f1xx_hal_rcc.c ****   /* Get SYSCLK source -------------------------------------------------------*/
1005:Drivers/STM32F1xx_HAL_Driver/Src/stm32f1xx_hal_rcc.c ****   switch (tmpreg & RCC_CFGR_SWS)
1006:Drivers/STM32F1xx_HAL_Driver/Src/stm32f1xx_hal_rcc.c ****   {
1007:Drivers/STM32F1xx_HAL_Driver/Src/stm32f1xx_hal_rcc.c ****     case RCC_SYSCLKSOURCE_STATUS_HSE:  /* HSE used as system clock */
1008:Drivers/STM32F1xx_HAL_Driver/Src/stm32f1xx_hal_rcc.c ****     {
1009:Drivers/STM32F1xx_HAL_Driver/Src/stm32f1xx_hal_rcc.c ****       sysclockfreq = HSE_VALUE;
1010:Drivers/STM32F1xx_HAL_Driver/Src/stm32f1xx_hal_rcc.c ****       break;
1011:Drivers/STM32F1xx_HAL_Driver/Src/stm32f1xx_hal_rcc.c ****     }
1012:Drivers/STM32F1xx_HAL_Driver/Src/stm32f1xx_hal_rcc.c ****     case RCC_SYSCLKSOURCE_STATUS_PLLCLK:  /* PLL used as system clock */
1013:Drivers/STM32F1xx_HAL_Driver/Src/stm32f1xx_hal_rcc.c ****     {
1014:Drivers/STM32F1xx_HAL_Driver/Src/stm32f1xx_hal_rcc.c ****       pllmul = aPLLMULFactorTable[(uint32_t)(tmpreg & RCC_CFGR_PLLMULL) >> RCC_CFGR_PLLMULL_Pos];
1015:Drivers/STM32F1xx_HAL_Driver/Src/stm32f1xx_hal_rcc.c ****       if ((tmpreg & RCC_CFGR_PLLSRC) != RCC_PLLSOURCE_HSI_DIV2)
1016:Drivers/STM32F1xx_HAL_Driver/Src/stm32f1xx_hal_rcc.c ****       {
1017:Drivers/STM32F1xx_HAL_Driver/Src/stm32f1xx_hal_rcc.c **** #if defined(RCC_CFGR2_PREDIV1)
1018:Drivers/STM32F1xx_HAL_Driver/Src/stm32f1xx_hal_rcc.c ****         prediv = aPredivFactorTable[(uint32_t)(RCC->CFGR2 & RCC_CFGR2_PREDIV1) >> RCC_CFGR2_PREDIV1
1019:Drivers/STM32F1xx_HAL_Driver/Src/stm32f1xx_hal_rcc.c **** #else
1020:Drivers/STM32F1xx_HAL_Driver/Src/stm32f1xx_hal_rcc.c ****         prediv = aPredivFactorTable[(uint32_t)(RCC->CFGR & RCC_CFGR_PLLXTPRE) >> RCC_CFGR_PLLXTPRE_
1021:Drivers/STM32F1xx_HAL_Driver/Src/stm32f1xx_hal_rcc.c **** #endif /*RCC_CFGR2_PREDIV1*/
1022:Drivers/STM32F1xx_HAL_Driver/Src/stm32f1xx_hal_rcc.c **** #if defined(RCC_CFGR2_PREDIV1SRC)
1023:Drivers/STM32F1xx_HAL_Driver/Src/stm32f1xx_hal_rcc.c **** 
1024:Drivers/STM32F1xx_HAL_Driver/Src/stm32f1xx_hal_rcc.c ****         if(HAL_IS_BIT_SET(RCC->CFGR2, RCC_CFGR2_PREDIV1SRC))
1025:Drivers/STM32F1xx_HAL_Driver/Src/stm32f1xx_hal_rcc.c ****         {
1026:Drivers/STM32F1xx_HAL_Driver/Src/stm32f1xx_hal_rcc.c ****           /* PLL2 selected as Prediv1 source */
1027:Drivers/STM32F1xx_HAL_Driver/Src/stm32f1xx_hal_rcc.c ****           /* PLLCLK = PLL2CLK / PREDIV1 * PLLMUL with PLL2CLK = HSE/PREDIV2 * PLL2MUL */
1028:Drivers/STM32F1xx_HAL_Driver/Src/stm32f1xx_hal_rcc.c ****           prediv2 = ((RCC->CFGR2 & RCC_CFGR2_PREDIV2) >> RCC_CFGR2_PREDIV2_Pos) + 1;
1029:Drivers/STM32F1xx_HAL_Driver/Src/stm32f1xx_hal_rcc.c ****           pll2mul = ((RCC->CFGR2 & RCC_CFGR2_PLL2MUL) >> RCC_CFGR2_PLL2MUL_Pos) + 2;
1030:Drivers/STM32F1xx_HAL_Driver/Src/stm32f1xx_hal_rcc.c ****           pllclk = (uint32_t)((((HSE_VALUE / prediv2) * pll2mul) / prediv) * pllmul);
1031:Drivers/STM32F1xx_HAL_Driver/Src/stm32f1xx_hal_rcc.c ****         }
1032:Drivers/STM32F1xx_HAL_Driver/Src/stm32f1xx_hal_rcc.c ****         else
1033:Drivers/STM32F1xx_HAL_Driver/Src/stm32f1xx_hal_rcc.c ****         {
1034:Drivers/STM32F1xx_HAL_Driver/Src/stm32f1xx_hal_rcc.c ****           /* HSE used as PLL clock source : PLLCLK = HSE/PREDIV1 * PLLMUL */
1035:Drivers/STM32F1xx_HAL_Driver/Src/stm32f1xx_hal_rcc.c ****           pllclk = (uint32_t)((HSE_VALUE / prediv) * pllmul);
1036:Drivers/STM32F1xx_HAL_Driver/Src/stm32f1xx_hal_rcc.c ****         }
1037:Drivers/STM32F1xx_HAL_Driver/Src/stm32f1xx_hal_rcc.c ****         
1038:Drivers/STM32F1xx_HAL_Driver/Src/stm32f1xx_hal_rcc.c ****         /* If PLLMUL was set to 13 means that it was to cover the case PLLMUL 6.5 (avoid using floa
1039:Drivers/STM32F1xx_HAL_Driver/Src/stm32f1xx_hal_rcc.c ****         /* In this case need to divide pllclk by 2 */
1040:Drivers/STM32F1xx_HAL_Driver/Src/stm32f1xx_hal_rcc.c ****         if (pllmul == aPLLMULFactorTable[(uint32_t)(RCC_CFGR_PLLMULL6_5) >> RCC_CFGR_PLLMULL_Pos])
1041:Drivers/STM32F1xx_HAL_Driver/Src/stm32f1xx_hal_rcc.c ****         {
1042:Drivers/STM32F1xx_HAL_Driver/Src/stm32f1xx_hal_rcc.c ****             pllclk = pllclk / 2;
1043:Drivers/STM32F1xx_HAL_Driver/Src/stm32f1xx_hal_rcc.c ****         }
1044:Drivers/STM32F1xx_HAL_Driver/Src/stm32f1xx_hal_rcc.c **** #else
1045:Drivers/STM32F1xx_HAL_Driver/Src/stm32f1xx_hal_rcc.c ****         /* HSE used as PLL clock source : PLLCLK = HSE/PREDIV1 * PLLMUL */
1046:Drivers/STM32F1xx_HAL_Driver/Src/stm32f1xx_hal_rcc.c ****         pllclk = (uint32_t)((HSE_VALUE / prediv) * pllmul);
1047:Drivers/STM32F1xx_HAL_Driver/Src/stm32f1xx_hal_rcc.c **** #endif /*RCC_CFGR2_PREDIV1SRC*/
1048:Drivers/STM32F1xx_HAL_Driver/Src/stm32f1xx_hal_rcc.c ****       }
1049:Drivers/STM32F1xx_HAL_Driver/Src/stm32f1xx_hal_rcc.c ****       else
1050:Drivers/STM32F1xx_HAL_Driver/Src/stm32f1xx_hal_rcc.c ****       {
1051:Drivers/STM32F1xx_HAL_Driver/Src/stm32f1xx_hal_rcc.c ****         /* HSI used as PLL clock source : PLLCLK = HSI/2 * PLLMUL */
1052:Drivers/STM32F1xx_HAL_Driver/Src/stm32f1xx_hal_rcc.c ****         pllclk = (uint32_t)((HSI_VALUE >> 1) * pllmul);
1053:Drivers/STM32F1xx_HAL_Driver/Src/stm32f1xx_hal_rcc.c ****       }
1054:Drivers/STM32F1xx_HAL_Driver/Src/stm32f1xx_hal_rcc.c ****       sysclockfreq = pllclk;
1055:Drivers/STM32F1xx_HAL_Driver/Src/stm32f1xx_hal_rcc.c ****       break;
1056:Drivers/STM32F1xx_HAL_Driver/Src/stm32f1xx_hal_rcc.c ****     }
1057:Drivers/STM32F1xx_HAL_Driver/Src/stm32f1xx_hal_rcc.c ****     case RCC_SYSCLKSOURCE_STATUS_HSI:  /* HSI used as system clock source */
1058:Drivers/STM32F1xx_HAL_Driver/Src/stm32f1xx_hal_rcc.c ****     default: /* HSI used as system clock */
ARM GAS  /tmp/ccJTbD9y.s 			page 20


1059:Drivers/STM32F1xx_HAL_Driver/Src/stm32f1xx_hal_rcc.c ****     {
1060:Drivers/STM32F1xx_HAL_Driver/Src/stm32f1xx_hal_rcc.c ****       sysclockfreq = HSI_VALUE;
1061:Drivers/STM32F1xx_HAL_Driver/Src/stm32f1xx_hal_rcc.c ****       break;
1062:Drivers/STM32F1xx_HAL_Driver/Src/stm32f1xx_hal_rcc.c ****     }
1063:Drivers/STM32F1xx_HAL_Driver/Src/stm32f1xx_hal_rcc.c ****   }
1064:Drivers/STM32F1xx_HAL_Driver/Src/stm32f1xx_hal_rcc.c ****   return sysclockfreq;
1065:Drivers/STM32F1xx_HAL_Driver/Src/stm32f1xx_hal_rcc.c **** }
1066:Drivers/STM32F1xx_HAL_Driver/Src/stm32f1xx_hal_rcc.c **** 
1067:Drivers/STM32F1xx_HAL_Driver/Src/stm32f1xx_hal_rcc.c **** /**
1068:Drivers/STM32F1xx_HAL_Driver/Src/stm32f1xx_hal_rcc.c ****   * @brief  Returns the HCLK frequency     
1069:Drivers/STM32F1xx_HAL_Driver/Src/stm32f1xx_hal_rcc.c ****   * @note   Each time HCLK changes, this function must be called to update the
1070:Drivers/STM32F1xx_HAL_Driver/Src/stm32f1xx_hal_rcc.c ****   *         right HCLK value. Otherwise, any configuration based on this function will be incorrect
1071:Drivers/STM32F1xx_HAL_Driver/Src/stm32f1xx_hal_rcc.c ****   * 
1072:Drivers/STM32F1xx_HAL_Driver/Src/stm32f1xx_hal_rcc.c ****   * @note   The SystemCoreClock CMSIS variable is used to store System Clock Frequency 
1073:Drivers/STM32F1xx_HAL_Driver/Src/stm32f1xx_hal_rcc.c ****   *         and updated within this function
1074:Drivers/STM32F1xx_HAL_Driver/Src/stm32f1xx_hal_rcc.c ****   * @retval HCLK frequency
1075:Drivers/STM32F1xx_HAL_Driver/Src/stm32f1xx_hal_rcc.c ****   */
1076:Drivers/STM32F1xx_HAL_Driver/Src/stm32f1xx_hal_rcc.c **** uint32_t HAL_RCC_GetHCLKFreq(void)
1077:Drivers/STM32F1xx_HAL_Driver/Src/stm32f1xx_hal_rcc.c **** {
1078:Drivers/STM32F1xx_HAL_Driver/Src/stm32f1xx_hal_rcc.c ****   return SystemCoreClock;
1079:Drivers/STM32F1xx_HAL_Driver/Src/stm32f1xx_hal_rcc.c **** }
1080:Drivers/STM32F1xx_HAL_Driver/Src/stm32f1xx_hal_rcc.c **** 
1081:Drivers/STM32F1xx_HAL_Driver/Src/stm32f1xx_hal_rcc.c **** /**
1082:Drivers/STM32F1xx_HAL_Driver/Src/stm32f1xx_hal_rcc.c ****   * @brief  Returns the PCLK1 frequency     
1083:Drivers/STM32F1xx_HAL_Driver/Src/stm32f1xx_hal_rcc.c ****   * @note   Each time PCLK1 changes, this function must be called to update the
1084:Drivers/STM32F1xx_HAL_Driver/Src/stm32f1xx_hal_rcc.c ****   *         right PCLK1 value. Otherwise, any configuration based on this function will be incorrec
1085:Drivers/STM32F1xx_HAL_Driver/Src/stm32f1xx_hal_rcc.c ****   * @retval PCLK1 frequency
1086:Drivers/STM32F1xx_HAL_Driver/Src/stm32f1xx_hal_rcc.c ****   */
1087:Drivers/STM32F1xx_HAL_Driver/Src/stm32f1xx_hal_rcc.c **** uint32_t HAL_RCC_GetPCLK1Freq(void)
1088:Drivers/STM32F1xx_HAL_Driver/Src/stm32f1xx_hal_rcc.c **** {
1089:Drivers/STM32F1xx_HAL_Driver/Src/stm32f1xx_hal_rcc.c ****   /* Get HCLK source and Compute PCLK1 frequency ---------------------------*/
1090:Drivers/STM32F1xx_HAL_Driver/Src/stm32f1xx_hal_rcc.c ****   return (HAL_RCC_GetHCLKFreq() >> APBPrescTable[(RCC->CFGR & RCC_CFGR_PPRE1) >> RCC_CFGR_PPRE1_Pos
1091:Drivers/STM32F1xx_HAL_Driver/Src/stm32f1xx_hal_rcc.c **** }    
1092:Drivers/STM32F1xx_HAL_Driver/Src/stm32f1xx_hal_rcc.c **** 
1093:Drivers/STM32F1xx_HAL_Driver/Src/stm32f1xx_hal_rcc.c **** /**
1094:Drivers/STM32F1xx_HAL_Driver/Src/stm32f1xx_hal_rcc.c ****   * @brief  Returns the PCLK2 frequency     
1095:Drivers/STM32F1xx_HAL_Driver/Src/stm32f1xx_hal_rcc.c ****   * @note   Each time PCLK2 changes, this function must be called to update the
1096:Drivers/STM32F1xx_HAL_Driver/Src/stm32f1xx_hal_rcc.c ****   *         right PCLK2 value. Otherwise, any configuration based on this function will be incorrec
1097:Drivers/STM32F1xx_HAL_Driver/Src/stm32f1xx_hal_rcc.c ****   * @retval PCLK2 frequency
1098:Drivers/STM32F1xx_HAL_Driver/Src/stm32f1xx_hal_rcc.c ****   */
1099:Drivers/STM32F1xx_HAL_Driver/Src/stm32f1xx_hal_rcc.c **** uint32_t HAL_RCC_GetPCLK2Freq(void)
1100:Drivers/STM32F1xx_HAL_Driver/Src/stm32f1xx_hal_rcc.c **** {
1101:Drivers/STM32F1xx_HAL_Driver/Src/stm32f1xx_hal_rcc.c ****   /* Get HCLK source and Compute PCLK2 frequency ---------------------------*/
1102:Drivers/STM32F1xx_HAL_Driver/Src/stm32f1xx_hal_rcc.c ****   return (HAL_RCC_GetHCLKFreq()>> APBPrescTable[(RCC->CFGR & RCC_CFGR_PPRE2) >> RCC_CFGR_PPRE2_Pos]
1103:Drivers/STM32F1xx_HAL_Driver/Src/stm32f1xx_hal_rcc.c **** } 
1104:Drivers/STM32F1xx_HAL_Driver/Src/stm32f1xx_hal_rcc.c **** 
1105:Drivers/STM32F1xx_HAL_Driver/Src/stm32f1xx_hal_rcc.c **** /**
1106:Drivers/STM32F1xx_HAL_Driver/Src/stm32f1xx_hal_rcc.c ****   * @brief  Configures the RCC_OscInitStruct according to the internal 
1107:Drivers/STM32F1xx_HAL_Driver/Src/stm32f1xx_hal_rcc.c ****   * RCC configuration registers.
1108:Drivers/STM32F1xx_HAL_Driver/Src/stm32f1xx_hal_rcc.c ****   * @param  RCC_OscInitStruct pointer to an RCC_OscInitTypeDef structure that 
1109:Drivers/STM32F1xx_HAL_Driver/Src/stm32f1xx_hal_rcc.c ****   * will be configured.
1110:Drivers/STM32F1xx_HAL_Driver/Src/stm32f1xx_hal_rcc.c ****   * @retval None
1111:Drivers/STM32F1xx_HAL_Driver/Src/stm32f1xx_hal_rcc.c ****   */
1112:Drivers/STM32F1xx_HAL_Driver/Src/stm32f1xx_hal_rcc.c **** void HAL_RCC_GetOscConfig(RCC_OscInitTypeDef  *RCC_OscInitStruct)
1113:Drivers/STM32F1xx_HAL_Driver/Src/stm32f1xx_hal_rcc.c **** {
1114:Drivers/STM32F1xx_HAL_Driver/Src/stm32f1xx_hal_rcc.c ****   /* Check the parameters */
1115:Drivers/STM32F1xx_HAL_Driver/Src/stm32f1xx_hal_rcc.c ****   assert_param(RCC_OscInitStruct != NULL);
ARM GAS  /tmp/ccJTbD9y.s 			page 21


1116:Drivers/STM32F1xx_HAL_Driver/Src/stm32f1xx_hal_rcc.c **** 
1117:Drivers/STM32F1xx_HAL_Driver/Src/stm32f1xx_hal_rcc.c ****   /* Set all possible values for the Oscillator type parameter ---------------*/
1118:Drivers/STM32F1xx_HAL_Driver/Src/stm32f1xx_hal_rcc.c ****   RCC_OscInitStruct->OscillatorType = RCC_OSCILLATORTYPE_HSE | RCC_OSCILLATORTYPE_HSI  \
1119:Drivers/STM32F1xx_HAL_Driver/Src/stm32f1xx_hal_rcc.c ****                   | RCC_OSCILLATORTYPE_LSE | RCC_OSCILLATORTYPE_LSI;
1120:Drivers/STM32F1xx_HAL_Driver/Src/stm32f1xx_hal_rcc.c **** 
1121:Drivers/STM32F1xx_HAL_Driver/Src/stm32f1xx_hal_rcc.c **** #if defined(RCC_CFGR2_PREDIV1SRC)
1122:Drivers/STM32F1xx_HAL_Driver/Src/stm32f1xx_hal_rcc.c ****   /* Get the Prediv1 source --------------------------------------------------*/
1123:Drivers/STM32F1xx_HAL_Driver/Src/stm32f1xx_hal_rcc.c ****   RCC_OscInitStruct->Prediv1Source = READ_BIT(RCC->CFGR2,RCC_CFGR2_PREDIV1SRC);
1124:Drivers/STM32F1xx_HAL_Driver/Src/stm32f1xx_hal_rcc.c **** #endif /* RCC_CFGR2_PREDIV1SRC */
1125:Drivers/STM32F1xx_HAL_Driver/Src/stm32f1xx_hal_rcc.c **** 
1126:Drivers/STM32F1xx_HAL_Driver/Src/stm32f1xx_hal_rcc.c ****   /* Get the HSE configuration -----------------------------------------------*/
1127:Drivers/STM32F1xx_HAL_Driver/Src/stm32f1xx_hal_rcc.c ****   if((RCC->CR &RCC_CR_HSEBYP) == RCC_CR_HSEBYP)
1128:Drivers/STM32F1xx_HAL_Driver/Src/stm32f1xx_hal_rcc.c ****   {
1129:Drivers/STM32F1xx_HAL_Driver/Src/stm32f1xx_hal_rcc.c ****     RCC_OscInitStruct->HSEState = RCC_HSE_BYPASS;
1130:Drivers/STM32F1xx_HAL_Driver/Src/stm32f1xx_hal_rcc.c ****   }
1131:Drivers/STM32F1xx_HAL_Driver/Src/stm32f1xx_hal_rcc.c ****   else if((RCC->CR &RCC_CR_HSEON) == RCC_CR_HSEON)
1132:Drivers/STM32F1xx_HAL_Driver/Src/stm32f1xx_hal_rcc.c ****   {
1133:Drivers/STM32F1xx_HAL_Driver/Src/stm32f1xx_hal_rcc.c ****     RCC_OscInitStruct->HSEState = RCC_HSE_ON;
1134:Drivers/STM32F1xx_HAL_Driver/Src/stm32f1xx_hal_rcc.c ****   }
1135:Drivers/STM32F1xx_HAL_Driver/Src/stm32f1xx_hal_rcc.c ****   else
1136:Drivers/STM32F1xx_HAL_Driver/Src/stm32f1xx_hal_rcc.c ****   {
1137:Drivers/STM32F1xx_HAL_Driver/Src/stm32f1xx_hal_rcc.c ****     RCC_OscInitStruct->HSEState = RCC_HSE_OFF;
1138:Drivers/STM32F1xx_HAL_Driver/Src/stm32f1xx_hal_rcc.c ****   }
1139:Drivers/STM32F1xx_HAL_Driver/Src/stm32f1xx_hal_rcc.c ****   RCC_OscInitStruct->HSEPredivValue = __HAL_RCC_HSE_GET_PREDIV();
1140:Drivers/STM32F1xx_HAL_Driver/Src/stm32f1xx_hal_rcc.c **** 
1141:Drivers/STM32F1xx_HAL_Driver/Src/stm32f1xx_hal_rcc.c ****   /* Get the HSI configuration -----------------------------------------------*/
1142:Drivers/STM32F1xx_HAL_Driver/Src/stm32f1xx_hal_rcc.c ****   if((RCC->CR &RCC_CR_HSION) == RCC_CR_HSION)
1143:Drivers/STM32F1xx_HAL_Driver/Src/stm32f1xx_hal_rcc.c ****   {
1144:Drivers/STM32F1xx_HAL_Driver/Src/stm32f1xx_hal_rcc.c ****     RCC_OscInitStruct->HSIState = RCC_HSI_ON;
1145:Drivers/STM32F1xx_HAL_Driver/Src/stm32f1xx_hal_rcc.c ****   }
1146:Drivers/STM32F1xx_HAL_Driver/Src/stm32f1xx_hal_rcc.c ****   else
1147:Drivers/STM32F1xx_HAL_Driver/Src/stm32f1xx_hal_rcc.c ****   {
1148:Drivers/STM32F1xx_HAL_Driver/Src/stm32f1xx_hal_rcc.c ****     RCC_OscInitStruct->HSIState = RCC_HSI_OFF;
1149:Drivers/STM32F1xx_HAL_Driver/Src/stm32f1xx_hal_rcc.c ****   }
1150:Drivers/STM32F1xx_HAL_Driver/Src/stm32f1xx_hal_rcc.c ****   
1151:Drivers/STM32F1xx_HAL_Driver/Src/stm32f1xx_hal_rcc.c ****   RCC_OscInitStruct->HSICalibrationValue = (uint32_t)((RCC->CR & RCC_CR_HSITRIM) >> RCC_CR_HSITRIM_
1152:Drivers/STM32F1xx_HAL_Driver/Src/stm32f1xx_hal_rcc.c ****   
1153:Drivers/STM32F1xx_HAL_Driver/Src/stm32f1xx_hal_rcc.c ****   /* Get the LSE configuration -----------------------------------------------*/
1154:Drivers/STM32F1xx_HAL_Driver/Src/stm32f1xx_hal_rcc.c ****   if((RCC->BDCR &RCC_BDCR_LSEBYP) == RCC_BDCR_LSEBYP)
1155:Drivers/STM32F1xx_HAL_Driver/Src/stm32f1xx_hal_rcc.c ****   {
1156:Drivers/STM32F1xx_HAL_Driver/Src/stm32f1xx_hal_rcc.c ****     RCC_OscInitStruct->LSEState = RCC_LSE_BYPASS;
1157:Drivers/STM32F1xx_HAL_Driver/Src/stm32f1xx_hal_rcc.c ****   }
1158:Drivers/STM32F1xx_HAL_Driver/Src/stm32f1xx_hal_rcc.c ****   else if((RCC->BDCR &RCC_BDCR_LSEON) == RCC_BDCR_LSEON)
1159:Drivers/STM32F1xx_HAL_Driver/Src/stm32f1xx_hal_rcc.c ****   {
1160:Drivers/STM32F1xx_HAL_Driver/Src/stm32f1xx_hal_rcc.c ****     RCC_OscInitStruct->LSEState = RCC_LSE_ON;
1161:Drivers/STM32F1xx_HAL_Driver/Src/stm32f1xx_hal_rcc.c ****   }
1162:Drivers/STM32F1xx_HAL_Driver/Src/stm32f1xx_hal_rcc.c ****   else
1163:Drivers/STM32F1xx_HAL_Driver/Src/stm32f1xx_hal_rcc.c ****   {
1164:Drivers/STM32F1xx_HAL_Driver/Src/stm32f1xx_hal_rcc.c ****     RCC_OscInitStruct->LSEState = RCC_LSE_OFF;
1165:Drivers/STM32F1xx_HAL_Driver/Src/stm32f1xx_hal_rcc.c ****   }
1166:Drivers/STM32F1xx_HAL_Driver/Src/stm32f1xx_hal_rcc.c ****   
1167:Drivers/STM32F1xx_HAL_Driver/Src/stm32f1xx_hal_rcc.c ****   /* Get the LSI configuration -----------------------------------------------*/
1168:Drivers/STM32F1xx_HAL_Driver/Src/stm32f1xx_hal_rcc.c ****   if((RCC->CSR &RCC_CSR_LSION) == RCC_CSR_LSION)
1169:Drivers/STM32F1xx_HAL_Driver/Src/stm32f1xx_hal_rcc.c ****   {
1170:Drivers/STM32F1xx_HAL_Driver/Src/stm32f1xx_hal_rcc.c ****     RCC_OscInitStruct->LSIState = RCC_LSI_ON;
1171:Drivers/STM32F1xx_HAL_Driver/Src/stm32f1xx_hal_rcc.c ****   }
1172:Drivers/STM32F1xx_HAL_Driver/Src/stm32f1xx_hal_rcc.c ****   else
ARM GAS  /tmp/ccJTbD9y.s 			page 22


1173:Drivers/STM32F1xx_HAL_Driver/Src/stm32f1xx_hal_rcc.c ****   {
1174:Drivers/STM32F1xx_HAL_Driver/Src/stm32f1xx_hal_rcc.c ****     RCC_OscInitStruct->LSIState = RCC_LSI_OFF;
1175:Drivers/STM32F1xx_HAL_Driver/Src/stm32f1xx_hal_rcc.c ****   }
1176:Drivers/STM32F1xx_HAL_Driver/Src/stm32f1xx_hal_rcc.c ****   
1177:Drivers/STM32F1xx_HAL_Driver/Src/stm32f1xx_hal_rcc.c **** 
1178:Drivers/STM32F1xx_HAL_Driver/Src/stm32f1xx_hal_rcc.c ****   /* Get the PLL configuration -----------------------------------------------*/
1179:Drivers/STM32F1xx_HAL_Driver/Src/stm32f1xx_hal_rcc.c ****   if((RCC->CR &RCC_CR_PLLON) == RCC_CR_PLLON)
1180:Drivers/STM32F1xx_HAL_Driver/Src/stm32f1xx_hal_rcc.c ****   {
1181:Drivers/STM32F1xx_HAL_Driver/Src/stm32f1xx_hal_rcc.c ****     RCC_OscInitStruct->PLL.PLLState = RCC_PLL_ON;
1182:Drivers/STM32F1xx_HAL_Driver/Src/stm32f1xx_hal_rcc.c ****   }
1183:Drivers/STM32F1xx_HAL_Driver/Src/stm32f1xx_hal_rcc.c ****   else
1184:Drivers/STM32F1xx_HAL_Driver/Src/stm32f1xx_hal_rcc.c ****   {
1185:Drivers/STM32F1xx_HAL_Driver/Src/stm32f1xx_hal_rcc.c ****     RCC_OscInitStruct->PLL.PLLState = RCC_PLL_OFF;
1186:Drivers/STM32F1xx_HAL_Driver/Src/stm32f1xx_hal_rcc.c ****   }
1187:Drivers/STM32F1xx_HAL_Driver/Src/stm32f1xx_hal_rcc.c ****   RCC_OscInitStruct->PLL.PLLSource = (uint32_t)(RCC->CFGR & RCC_CFGR_PLLSRC);
1188:Drivers/STM32F1xx_HAL_Driver/Src/stm32f1xx_hal_rcc.c ****   RCC_OscInitStruct->PLL.PLLMUL = (uint32_t)(RCC->CFGR & RCC_CFGR_PLLMULL);
1189:Drivers/STM32F1xx_HAL_Driver/Src/stm32f1xx_hal_rcc.c **** #if defined(RCC_CR_PLL2ON)
1190:Drivers/STM32F1xx_HAL_Driver/Src/stm32f1xx_hal_rcc.c ****   /* Get the PLL2 configuration -----------------------------------------------*/
1191:Drivers/STM32F1xx_HAL_Driver/Src/stm32f1xx_hal_rcc.c ****   if((RCC->CR &RCC_CR_PLL2ON) == RCC_CR_PLL2ON)
1192:Drivers/STM32F1xx_HAL_Driver/Src/stm32f1xx_hal_rcc.c ****   {
1193:Drivers/STM32F1xx_HAL_Driver/Src/stm32f1xx_hal_rcc.c ****     RCC_OscInitStruct->PLL2.PLL2State = RCC_PLL2_ON;
1194:Drivers/STM32F1xx_HAL_Driver/Src/stm32f1xx_hal_rcc.c ****   }
1195:Drivers/STM32F1xx_HAL_Driver/Src/stm32f1xx_hal_rcc.c ****   else
1196:Drivers/STM32F1xx_HAL_Driver/Src/stm32f1xx_hal_rcc.c ****   {
1197:Drivers/STM32F1xx_HAL_Driver/Src/stm32f1xx_hal_rcc.c ****     RCC_OscInitStruct->PLL2.PLL2State = RCC_PLL2_OFF;
1198:Drivers/STM32F1xx_HAL_Driver/Src/stm32f1xx_hal_rcc.c ****   }
1199:Drivers/STM32F1xx_HAL_Driver/Src/stm32f1xx_hal_rcc.c ****   RCC_OscInitStruct->PLL2.HSEPrediv2Value = __HAL_RCC_HSE_GET_PREDIV2();
1200:Drivers/STM32F1xx_HAL_Driver/Src/stm32f1xx_hal_rcc.c ****   RCC_OscInitStruct->PLL2.PLL2MUL = (uint32_t)(RCC->CFGR2 & RCC_CFGR2_PLL2MUL);
1201:Drivers/STM32F1xx_HAL_Driver/Src/stm32f1xx_hal_rcc.c **** #endif /* RCC_CR_PLL2ON */
1202:Drivers/STM32F1xx_HAL_Driver/Src/stm32f1xx_hal_rcc.c **** }
1203:Drivers/STM32F1xx_HAL_Driver/Src/stm32f1xx_hal_rcc.c **** 
1204:Drivers/STM32F1xx_HAL_Driver/Src/stm32f1xx_hal_rcc.c **** /**
1205:Drivers/STM32F1xx_HAL_Driver/Src/stm32f1xx_hal_rcc.c ****   * @brief  Get the RCC_ClkInitStruct according to the internal 
1206:Drivers/STM32F1xx_HAL_Driver/Src/stm32f1xx_hal_rcc.c ****   * RCC configuration registers.
1207:Drivers/STM32F1xx_HAL_Driver/Src/stm32f1xx_hal_rcc.c ****   * @param  RCC_ClkInitStruct pointer to an RCC_ClkInitTypeDef structure that 
1208:Drivers/STM32F1xx_HAL_Driver/Src/stm32f1xx_hal_rcc.c ****   * contains the current clock configuration.
1209:Drivers/STM32F1xx_HAL_Driver/Src/stm32f1xx_hal_rcc.c ****   * @param  pFLatency Pointer on the Flash Latency.
1210:Drivers/STM32F1xx_HAL_Driver/Src/stm32f1xx_hal_rcc.c ****   * @retval None
1211:Drivers/STM32F1xx_HAL_Driver/Src/stm32f1xx_hal_rcc.c ****   */
1212:Drivers/STM32F1xx_HAL_Driver/Src/stm32f1xx_hal_rcc.c **** void HAL_RCC_GetClockConfig(RCC_ClkInitTypeDef  *RCC_ClkInitStruct, uint32_t *pFLatency)
1213:Drivers/STM32F1xx_HAL_Driver/Src/stm32f1xx_hal_rcc.c **** {
1214:Drivers/STM32F1xx_HAL_Driver/Src/stm32f1xx_hal_rcc.c ****   /* Check the parameters */
1215:Drivers/STM32F1xx_HAL_Driver/Src/stm32f1xx_hal_rcc.c ****   assert_param(RCC_ClkInitStruct != NULL);
1216:Drivers/STM32F1xx_HAL_Driver/Src/stm32f1xx_hal_rcc.c ****   assert_param(pFLatency != NULL);
1217:Drivers/STM32F1xx_HAL_Driver/Src/stm32f1xx_hal_rcc.c **** 
1218:Drivers/STM32F1xx_HAL_Driver/Src/stm32f1xx_hal_rcc.c ****   /* Set all possible values for the Clock type parameter --------------------*/
1219:Drivers/STM32F1xx_HAL_Driver/Src/stm32f1xx_hal_rcc.c ****   RCC_ClkInitStruct->ClockType = RCC_CLOCKTYPE_SYSCLK | RCC_CLOCKTYPE_HCLK | RCC_CLOCKTYPE_PCLK1 | 
1220:Drivers/STM32F1xx_HAL_Driver/Src/stm32f1xx_hal_rcc.c ****   
1221:Drivers/STM32F1xx_HAL_Driver/Src/stm32f1xx_hal_rcc.c ****   /* Get the SYSCLK configuration --------------------------------------------*/ 
1222:Drivers/STM32F1xx_HAL_Driver/Src/stm32f1xx_hal_rcc.c ****   RCC_ClkInitStruct->SYSCLKSource = (uint32_t)(RCC->CFGR & RCC_CFGR_SW);
1223:Drivers/STM32F1xx_HAL_Driver/Src/stm32f1xx_hal_rcc.c ****   
1224:Drivers/STM32F1xx_HAL_Driver/Src/stm32f1xx_hal_rcc.c ****   /* Get the HCLK configuration ----------------------------------------------*/ 
1225:Drivers/STM32F1xx_HAL_Driver/Src/stm32f1xx_hal_rcc.c ****   RCC_ClkInitStruct->AHBCLKDivider = (uint32_t)(RCC->CFGR & RCC_CFGR_HPRE); 
1226:Drivers/STM32F1xx_HAL_Driver/Src/stm32f1xx_hal_rcc.c ****   
1227:Drivers/STM32F1xx_HAL_Driver/Src/stm32f1xx_hal_rcc.c ****   /* Get the APB1 configuration ----------------------------------------------*/ 
1228:Drivers/STM32F1xx_HAL_Driver/Src/stm32f1xx_hal_rcc.c ****   RCC_ClkInitStruct->APB1CLKDivider = (uint32_t)(RCC->CFGR & RCC_CFGR_PPRE1);   
1229:Drivers/STM32F1xx_HAL_Driver/Src/stm32f1xx_hal_rcc.c ****   
ARM GAS  /tmp/ccJTbD9y.s 			page 23


1230:Drivers/STM32F1xx_HAL_Driver/Src/stm32f1xx_hal_rcc.c ****   /* Get the APB2 configuration ----------------------------------------------*/ 
1231:Drivers/STM32F1xx_HAL_Driver/Src/stm32f1xx_hal_rcc.c ****   RCC_ClkInitStruct->APB2CLKDivider = (uint32_t)((RCC->CFGR & RCC_CFGR_PPRE2) >> 3);
1232:Drivers/STM32F1xx_HAL_Driver/Src/stm32f1xx_hal_rcc.c ****   
1233:Drivers/STM32F1xx_HAL_Driver/Src/stm32f1xx_hal_rcc.c **** #if   defined(FLASH_ACR_LATENCY)
1234:Drivers/STM32F1xx_HAL_Driver/Src/stm32f1xx_hal_rcc.c ****   /* Get the Flash Wait State (Latency) configuration ------------------------*/   
1235:Drivers/STM32F1xx_HAL_Driver/Src/stm32f1xx_hal_rcc.c ****   *pFLatency = (uint32_t)(FLASH->ACR & FLASH_ACR_LATENCY); 
1236:Drivers/STM32F1xx_HAL_Driver/Src/stm32f1xx_hal_rcc.c **** #else
1237:Drivers/STM32F1xx_HAL_Driver/Src/stm32f1xx_hal_rcc.c ****   /* For VALUE lines devices, only LATENCY_0 can be set*/
1238:Drivers/STM32F1xx_HAL_Driver/Src/stm32f1xx_hal_rcc.c ****   *pFLatency = (uint32_t)FLASH_LATENCY_0; 
1239:Drivers/STM32F1xx_HAL_Driver/Src/stm32f1xx_hal_rcc.c **** #endif
1240:Drivers/STM32F1xx_HAL_Driver/Src/stm32f1xx_hal_rcc.c **** }
1241:Drivers/STM32F1xx_HAL_Driver/Src/stm32f1xx_hal_rcc.c **** 
1242:Drivers/STM32F1xx_HAL_Driver/Src/stm32f1xx_hal_rcc.c **** /**
1243:Drivers/STM32F1xx_HAL_Driver/Src/stm32f1xx_hal_rcc.c ****   * @brief This function handles the RCC CSS interrupt request.
1244:Drivers/STM32F1xx_HAL_Driver/Src/stm32f1xx_hal_rcc.c ****   * @note This API should be called under the NMI_Handler().
1245:Drivers/STM32F1xx_HAL_Driver/Src/stm32f1xx_hal_rcc.c ****   * @retval None
1246:Drivers/STM32F1xx_HAL_Driver/Src/stm32f1xx_hal_rcc.c ****   */
1247:Drivers/STM32F1xx_HAL_Driver/Src/stm32f1xx_hal_rcc.c **** void HAL_RCC_NMI_IRQHandler(void)
1248:Drivers/STM32F1xx_HAL_Driver/Src/stm32f1xx_hal_rcc.c **** {
1249:Drivers/STM32F1xx_HAL_Driver/Src/stm32f1xx_hal_rcc.c ****   /* Check RCC CSSF flag  */
1250:Drivers/STM32F1xx_HAL_Driver/Src/stm32f1xx_hal_rcc.c ****   if(__HAL_RCC_GET_IT(RCC_IT_CSS))
1251:Drivers/STM32F1xx_HAL_Driver/Src/stm32f1xx_hal_rcc.c ****   {
1252:Drivers/STM32F1xx_HAL_Driver/Src/stm32f1xx_hal_rcc.c ****     /* RCC Clock Security System interrupt user callback */
1253:Drivers/STM32F1xx_HAL_Driver/Src/stm32f1xx_hal_rcc.c ****     HAL_RCC_CSSCallback();
1254:Drivers/STM32F1xx_HAL_Driver/Src/stm32f1xx_hal_rcc.c ****     
1255:Drivers/STM32F1xx_HAL_Driver/Src/stm32f1xx_hal_rcc.c ****     /* Clear RCC CSS pending bit */
1256:Drivers/STM32F1xx_HAL_Driver/Src/stm32f1xx_hal_rcc.c ****     __HAL_RCC_CLEAR_IT(RCC_IT_CSS);
1257:Drivers/STM32F1xx_HAL_Driver/Src/stm32f1xx_hal_rcc.c ****   }
1258:Drivers/STM32F1xx_HAL_Driver/Src/stm32f1xx_hal_rcc.c **** }
1259:Drivers/STM32F1xx_HAL_Driver/Src/stm32f1xx_hal_rcc.c **** 
1260:Drivers/STM32F1xx_HAL_Driver/Src/stm32f1xx_hal_rcc.c **** /**
1261:Drivers/STM32F1xx_HAL_Driver/Src/stm32f1xx_hal_rcc.c ****   * @brief  This function provides delay (in milliseconds) based on CPU cycles method.
1262:Drivers/STM32F1xx_HAL_Driver/Src/stm32f1xx_hal_rcc.c ****   * @param  mdelay: specifies the delay time length, in milliseconds.
1263:Drivers/STM32F1xx_HAL_Driver/Src/stm32f1xx_hal_rcc.c ****   * @retval None
1264:Drivers/STM32F1xx_HAL_Driver/Src/stm32f1xx_hal_rcc.c ****   */
1265:Drivers/STM32F1xx_HAL_Driver/Src/stm32f1xx_hal_rcc.c **** static void RCC_Delay(uint32_t mdelay)
1266:Drivers/STM32F1xx_HAL_Driver/Src/stm32f1xx_hal_rcc.c **** {
  27              		.loc 1 1266 0
  28              		.cfi_startproc
  29              		@ args = 0, pretend = 0, frame = 8
  30              		@ frame_needed = 0, uses_anonymous_args = 0
  31              		@ link register save eliminated.
  32              	.LVL0:
  33 0000 82B0     		sub	sp, sp, #8
  34              	.LCFI0:
  35              		.cfi_def_cfa_offset 8
1267:Drivers/STM32F1xx_HAL_Driver/Src/stm32f1xx_hal_rcc.c ****   __IO uint32_t Delay = mdelay * (SystemCoreClock / 8U / 1000U);
  36              		.loc 1 1267 0
  37 0002 084B     		ldr	r3, .L4
  38 0004 1B68     		ldr	r3, [r3]
  39 0006 084A     		ldr	r2, .L4+4
  40 0008 A2FB0323 		umull	r2, r3, r2, r3
  41 000c 5B0A     		lsrs	r3, r3, #9
  42 000e 00FB03F0 		mul	r0, r0, r3
  43              	.LVL1:
  44 0012 0190     		str	r0, [sp, #4]
  45              	.L2:
ARM GAS  /tmp/ccJTbD9y.s 			page 24


  46              	.LBB4:
  47              	.LBB5:
  48              		.file 2 "Drivers/CMSIS/Include/cmsis_gcc.h"
   1:Drivers/CMSIS/Include/cmsis_gcc.h **** /**************************************************************************//**
   2:Drivers/CMSIS/Include/cmsis_gcc.h ****  * @file     cmsis_gcc.h
   3:Drivers/CMSIS/Include/cmsis_gcc.h ****  * @brief    CMSIS Cortex-M Core Function/Instruction Header File
   4:Drivers/CMSIS/Include/cmsis_gcc.h ****  * @version  V4.30
   5:Drivers/CMSIS/Include/cmsis_gcc.h ****  * @date     20. October 2015
   6:Drivers/CMSIS/Include/cmsis_gcc.h ****  ******************************************************************************/
   7:Drivers/CMSIS/Include/cmsis_gcc.h **** /* Copyright (c) 2009 - 2015 ARM LIMITED
   8:Drivers/CMSIS/Include/cmsis_gcc.h **** 
   9:Drivers/CMSIS/Include/cmsis_gcc.h ****    All rights reserved.
  10:Drivers/CMSIS/Include/cmsis_gcc.h ****    Redistribution and use in source and binary forms, with or without
  11:Drivers/CMSIS/Include/cmsis_gcc.h ****    modification, are permitted provided that the following conditions are met:
  12:Drivers/CMSIS/Include/cmsis_gcc.h ****    - Redistributions of source code must retain the above copyright
  13:Drivers/CMSIS/Include/cmsis_gcc.h ****      notice, this list of conditions and the following disclaimer.
  14:Drivers/CMSIS/Include/cmsis_gcc.h ****    - Redistributions in binary form must reproduce the above copyright
  15:Drivers/CMSIS/Include/cmsis_gcc.h ****      notice, this list of conditions and the following disclaimer in the
  16:Drivers/CMSIS/Include/cmsis_gcc.h ****      documentation and/or other materials provided with the distribution.
  17:Drivers/CMSIS/Include/cmsis_gcc.h ****    - Neither the name of ARM nor the names of its contributors may be used
  18:Drivers/CMSIS/Include/cmsis_gcc.h ****      to endorse or promote products derived from this software without
  19:Drivers/CMSIS/Include/cmsis_gcc.h ****      specific prior written permission.
  20:Drivers/CMSIS/Include/cmsis_gcc.h ****    *
  21:Drivers/CMSIS/Include/cmsis_gcc.h ****    THIS SOFTWARE IS PROVIDED BY THE COPYRIGHT HOLDERS AND CONTRIBUTORS "AS IS"
  22:Drivers/CMSIS/Include/cmsis_gcc.h ****    AND ANY EXPRESS OR IMPLIED WARRANTIES, INCLUDING, BUT NOT LIMITED TO, THE
  23:Drivers/CMSIS/Include/cmsis_gcc.h ****    IMPLIED WARRANTIES OF MERCHANTABILITY AND FITNESS FOR A PARTICULAR PURPOSE
  24:Drivers/CMSIS/Include/cmsis_gcc.h ****    ARE DISCLAIMED. IN NO EVENT SHALL COPYRIGHT HOLDERS AND CONTRIBUTORS BE
  25:Drivers/CMSIS/Include/cmsis_gcc.h ****    LIABLE FOR ANY DIRECT, INDIRECT, INCIDENTAL, SPECIAL, EXEMPLARY, OR
  26:Drivers/CMSIS/Include/cmsis_gcc.h ****    CONSEQUENTIAL DAMAGES (INCLUDING, BUT NOT LIMITED TO, PROCUREMENT OF
  27:Drivers/CMSIS/Include/cmsis_gcc.h ****    SUBSTITUTE GOODS OR SERVICES; LOSS OF USE, DATA, OR PROFITS; OR BUSINESS
  28:Drivers/CMSIS/Include/cmsis_gcc.h ****    INTERRUPTION) HOWEVER CAUSED AND ON ANY THEORY OF LIABILITY, WHETHER IN
  29:Drivers/CMSIS/Include/cmsis_gcc.h ****    CONTRACT, STRICT LIABILITY, OR TORT (INCLUDING NEGLIGENCE OR OTHERWISE)
  30:Drivers/CMSIS/Include/cmsis_gcc.h ****    ARISING IN ANY WAY OUT OF THE USE OF THIS SOFTWARE, EVEN IF ADVISED OF THE
  31:Drivers/CMSIS/Include/cmsis_gcc.h ****    POSSIBILITY OF SUCH DAMAGE.
  32:Drivers/CMSIS/Include/cmsis_gcc.h ****    ---------------------------------------------------------------------------*/
  33:Drivers/CMSIS/Include/cmsis_gcc.h **** 
  34:Drivers/CMSIS/Include/cmsis_gcc.h **** 
  35:Drivers/CMSIS/Include/cmsis_gcc.h **** #ifndef __CMSIS_GCC_H
  36:Drivers/CMSIS/Include/cmsis_gcc.h **** #define __CMSIS_GCC_H
  37:Drivers/CMSIS/Include/cmsis_gcc.h **** 
  38:Drivers/CMSIS/Include/cmsis_gcc.h **** /* ignore some GCC warnings */
  39:Drivers/CMSIS/Include/cmsis_gcc.h **** #if defined ( __GNUC__ )
  40:Drivers/CMSIS/Include/cmsis_gcc.h **** #pragma GCC diagnostic push
  41:Drivers/CMSIS/Include/cmsis_gcc.h **** #pragma GCC diagnostic ignored "-Wsign-conversion"
  42:Drivers/CMSIS/Include/cmsis_gcc.h **** #pragma GCC diagnostic ignored "-Wconversion"
  43:Drivers/CMSIS/Include/cmsis_gcc.h **** #pragma GCC diagnostic ignored "-Wunused-parameter"
  44:Drivers/CMSIS/Include/cmsis_gcc.h **** #endif
  45:Drivers/CMSIS/Include/cmsis_gcc.h **** 
  46:Drivers/CMSIS/Include/cmsis_gcc.h **** 
  47:Drivers/CMSIS/Include/cmsis_gcc.h **** /* ###########################  Core Function Access  ########################### */
  48:Drivers/CMSIS/Include/cmsis_gcc.h **** /** \ingroup  CMSIS_Core_FunctionInterface
  49:Drivers/CMSIS/Include/cmsis_gcc.h ****     \defgroup CMSIS_Core_RegAccFunctions CMSIS Core Register Access Functions
  50:Drivers/CMSIS/Include/cmsis_gcc.h ****   @{
  51:Drivers/CMSIS/Include/cmsis_gcc.h ****  */
  52:Drivers/CMSIS/Include/cmsis_gcc.h **** 
  53:Drivers/CMSIS/Include/cmsis_gcc.h **** /**
  54:Drivers/CMSIS/Include/cmsis_gcc.h ****   \brief   Enable IRQ Interrupts
ARM GAS  /tmp/ccJTbD9y.s 			page 25


  55:Drivers/CMSIS/Include/cmsis_gcc.h ****   \details Enables IRQ interrupts by clearing the I-bit in the CPSR.
  56:Drivers/CMSIS/Include/cmsis_gcc.h ****            Can only be executed in Privileged modes.
  57:Drivers/CMSIS/Include/cmsis_gcc.h ****  */
  58:Drivers/CMSIS/Include/cmsis_gcc.h **** __attribute__( ( always_inline ) ) __STATIC_INLINE void __enable_irq(void)
  59:Drivers/CMSIS/Include/cmsis_gcc.h **** {
  60:Drivers/CMSIS/Include/cmsis_gcc.h ****   __ASM volatile ("cpsie i" : : : "memory");
  61:Drivers/CMSIS/Include/cmsis_gcc.h **** }
  62:Drivers/CMSIS/Include/cmsis_gcc.h **** 
  63:Drivers/CMSIS/Include/cmsis_gcc.h **** 
  64:Drivers/CMSIS/Include/cmsis_gcc.h **** /**
  65:Drivers/CMSIS/Include/cmsis_gcc.h ****   \brief   Disable IRQ Interrupts
  66:Drivers/CMSIS/Include/cmsis_gcc.h ****   \details Disables IRQ interrupts by setting the I-bit in the CPSR.
  67:Drivers/CMSIS/Include/cmsis_gcc.h ****   Can only be executed in Privileged modes.
  68:Drivers/CMSIS/Include/cmsis_gcc.h ****  */
  69:Drivers/CMSIS/Include/cmsis_gcc.h **** __attribute__( ( always_inline ) ) __STATIC_INLINE void __disable_irq(void)
  70:Drivers/CMSIS/Include/cmsis_gcc.h **** {
  71:Drivers/CMSIS/Include/cmsis_gcc.h ****   __ASM volatile ("cpsid i" : : : "memory");
  72:Drivers/CMSIS/Include/cmsis_gcc.h **** }
  73:Drivers/CMSIS/Include/cmsis_gcc.h **** 
  74:Drivers/CMSIS/Include/cmsis_gcc.h **** 
  75:Drivers/CMSIS/Include/cmsis_gcc.h **** /**
  76:Drivers/CMSIS/Include/cmsis_gcc.h ****   \brief   Get Control Register
  77:Drivers/CMSIS/Include/cmsis_gcc.h ****   \details Returns the content of the Control Register.
  78:Drivers/CMSIS/Include/cmsis_gcc.h ****   \return               Control Register value
  79:Drivers/CMSIS/Include/cmsis_gcc.h ****  */
  80:Drivers/CMSIS/Include/cmsis_gcc.h **** __attribute__( ( always_inline ) ) __STATIC_INLINE uint32_t __get_CONTROL(void)
  81:Drivers/CMSIS/Include/cmsis_gcc.h **** {
  82:Drivers/CMSIS/Include/cmsis_gcc.h ****   uint32_t result;
  83:Drivers/CMSIS/Include/cmsis_gcc.h **** 
  84:Drivers/CMSIS/Include/cmsis_gcc.h ****   __ASM volatile ("MRS %0, control" : "=r" (result) );
  85:Drivers/CMSIS/Include/cmsis_gcc.h ****   return(result);
  86:Drivers/CMSIS/Include/cmsis_gcc.h **** }
  87:Drivers/CMSIS/Include/cmsis_gcc.h **** 
  88:Drivers/CMSIS/Include/cmsis_gcc.h **** 
  89:Drivers/CMSIS/Include/cmsis_gcc.h **** /**
  90:Drivers/CMSIS/Include/cmsis_gcc.h ****   \brief   Set Control Register
  91:Drivers/CMSIS/Include/cmsis_gcc.h ****   \details Writes the given value to the Control Register.
  92:Drivers/CMSIS/Include/cmsis_gcc.h ****   \param [in]    control  Control Register value to set
  93:Drivers/CMSIS/Include/cmsis_gcc.h ****  */
  94:Drivers/CMSIS/Include/cmsis_gcc.h **** __attribute__( ( always_inline ) ) __STATIC_INLINE void __set_CONTROL(uint32_t control)
  95:Drivers/CMSIS/Include/cmsis_gcc.h **** {
  96:Drivers/CMSIS/Include/cmsis_gcc.h ****   __ASM volatile ("MSR control, %0" : : "r" (control) : "memory");
  97:Drivers/CMSIS/Include/cmsis_gcc.h **** }
  98:Drivers/CMSIS/Include/cmsis_gcc.h **** 
  99:Drivers/CMSIS/Include/cmsis_gcc.h **** 
 100:Drivers/CMSIS/Include/cmsis_gcc.h **** /**
 101:Drivers/CMSIS/Include/cmsis_gcc.h ****   \brief   Get IPSR Register
 102:Drivers/CMSIS/Include/cmsis_gcc.h ****   \details Returns the content of the IPSR Register.
 103:Drivers/CMSIS/Include/cmsis_gcc.h ****   \return               IPSR Register value
 104:Drivers/CMSIS/Include/cmsis_gcc.h ****  */
 105:Drivers/CMSIS/Include/cmsis_gcc.h **** __attribute__( ( always_inline ) ) __STATIC_INLINE uint32_t __get_IPSR(void)
 106:Drivers/CMSIS/Include/cmsis_gcc.h **** {
 107:Drivers/CMSIS/Include/cmsis_gcc.h ****   uint32_t result;
 108:Drivers/CMSIS/Include/cmsis_gcc.h **** 
 109:Drivers/CMSIS/Include/cmsis_gcc.h ****   __ASM volatile ("MRS %0, ipsr" : "=r" (result) );
 110:Drivers/CMSIS/Include/cmsis_gcc.h ****   return(result);
 111:Drivers/CMSIS/Include/cmsis_gcc.h **** }
ARM GAS  /tmp/ccJTbD9y.s 			page 26


 112:Drivers/CMSIS/Include/cmsis_gcc.h **** 
 113:Drivers/CMSIS/Include/cmsis_gcc.h **** 
 114:Drivers/CMSIS/Include/cmsis_gcc.h **** /**
 115:Drivers/CMSIS/Include/cmsis_gcc.h ****   \brief   Get APSR Register
 116:Drivers/CMSIS/Include/cmsis_gcc.h ****   \details Returns the content of the APSR Register.
 117:Drivers/CMSIS/Include/cmsis_gcc.h ****   \return               APSR Register value
 118:Drivers/CMSIS/Include/cmsis_gcc.h ****  */
 119:Drivers/CMSIS/Include/cmsis_gcc.h **** __attribute__( ( always_inline ) ) __STATIC_INLINE uint32_t __get_APSR(void)
 120:Drivers/CMSIS/Include/cmsis_gcc.h **** {
 121:Drivers/CMSIS/Include/cmsis_gcc.h ****   uint32_t result;
 122:Drivers/CMSIS/Include/cmsis_gcc.h **** 
 123:Drivers/CMSIS/Include/cmsis_gcc.h ****   __ASM volatile ("MRS %0, apsr" : "=r" (result) );
 124:Drivers/CMSIS/Include/cmsis_gcc.h ****   return(result);
 125:Drivers/CMSIS/Include/cmsis_gcc.h **** }
 126:Drivers/CMSIS/Include/cmsis_gcc.h **** 
 127:Drivers/CMSIS/Include/cmsis_gcc.h **** 
 128:Drivers/CMSIS/Include/cmsis_gcc.h **** /**
 129:Drivers/CMSIS/Include/cmsis_gcc.h ****   \brief   Get xPSR Register
 130:Drivers/CMSIS/Include/cmsis_gcc.h ****   \details Returns the content of the xPSR Register.
 131:Drivers/CMSIS/Include/cmsis_gcc.h **** 
 132:Drivers/CMSIS/Include/cmsis_gcc.h ****     \return               xPSR Register value
 133:Drivers/CMSIS/Include/cmsis_gcc.h ****  */
 134:Drivers/CMSIS/Include/cmsis_gcc.h **** __attribute__( ( always_inline ) ) __STATIC_INLINE uint32_t __get_xPSR(void)
 135:Drivers/CMSIS/Include/cmsis_gcc.h **** {
 136:Drivers/CMSIS/Include/cmsis_gcc.h ****   uint32_t result;
 137:Drivers/CMSIS/Include/cmsis_gcc.h **** 
 138:Drivers/CMSIS/Include/cmsis_gcc.h ****   __ASM volatile ("MRS %0, xpsr" : "=r" (result) );
 139:Drivers/CMSIS/Include/cmsis_gcc.h ****   return(result);
 140:Drivers/CMSIS/Include/cmsis_gcc.h **** }
 141:Drivers/CMSIS/Include/cmsis_gcc.h **** 
 142:Drivers/CMSIS/Include/cmsis_gcc.h **** 
 143:Drivers/CMSIS/Include/cmsis_gcc.h **** /**
 144:Drivers/CMSIS/Include/cmsis_gcc.h ****   \brief   Get Process Stack Pointer
 145:Drivers/CMSIS/Include/cmsis_gcc.h ****   \details Returns the current value of the Process Stack Pointer (PSP).
 146:Drivers/CMSIS/Include/cmsis_gcc.h ****   \return               PSP Register value
 147:Drivers/CMSIS/Include/cmsis_gcc.h ****  */
 148:Drivers/CMSIS/Include/cmsis_gcc.h **** __attribute__( ( always_inline ) ) __STATIC_INLINE uint32_t __get_PSP(void)
 149:Drivers/CMSIS/Include/cmsis_gcc.h **** {
 150:Drivers/CMSIS/Include/cmsis_gcc.h ****   register uint32_t result;
 151:Drivers/CMSIS/Include/cmsis_gcc.h **** 
 152:Drivers/CMSIS/Include/cmsis_gcc.h ****   __ASM volatile ("MRS %0, psp\n"  : "=r" (result) );
 153:Drivers/CMSIS/Include/cmsis_gcc.h ****   return(result);
 154:Drivers/CMSIS/Include/cmsis_gcc.h **** }
 155:Drivers/CMSIS/Include/cmsis_gcc.h **** 
 156:Drivers/CMSIS/Include/cmsis_gcc.h **** 
 157:Drivers/CMSIS/Include/cmsis_gcc.h **** /**
 158:Drivers/CMSIS/Include/cmsis_gcc.h ****   \brief   Set Process Stack Pointer
 159:Drivers/CMSIS/Include/cmsis_gcc.h ****   \details Assigns the given value to the Process Stack Pointer (PSP).
 160:Drivers/CMSIS/Include/cmsis_gcc.h ****   \param [in]    topOfProcStack  Process Stack Pointer value to set
 161:Drivers/CMSIS/Include/cmsis_gcc.h ****  */
 162:Drivers/CMSIS/Include/cmsis_gcc.h **** __attribute__( ( always_inline ) ) __STATIC_INLINE void __set_PSP(uint32_t topOfProcStack)
 163:Drivers/CMSIS/Include/cmsis_gcc.h **** {
 164:Drivers/CMSIS/Include/cmsis_gcc.h ****   __ASM volatile ("MSR psp, %0\n" : : "r" (topOfProcStack) : "sp");
 165:Drivers/CMSIS/Include/cmsis_gcc.h **** }
 166:Drivers/CMSIS/Include/cmsis_gcc.h **** 
 167:Drivers/CMSIS/Include/cmsis_gcc.h **** 
 168:Drivers/CMSIS/Include/cmsis_gcc.h **** /**
ARM GAS  /tmp/ccJTbD9y.s 			page 27


 169:Drivers/CMSIS/Include/cmsis_gcc.h ****   \brief   Get Main Stack Pointer
 170:Drivers/CMSIS/Include/cmsis_gcc.h ****   \details Returns the current value of the Main Stack Pointer (MSP).
 171:Drivers/CMSIS/Include/cmsis_gcc.h ****   \return               MSP Register value
 172:Drivers/CMSIS/Include/cmsis_gcc.h ****  */
 173:Drivers/CMSIS/Include/cmsis_gcc.h **** __attribute__( ( always_inline ) ) __STATIC_INLINE uint32_t __get_MSP(void)
 174:Drivers/CMSIS/Include/cmsis_gcc.h **** {
 175:Drivers/CMSIS/Include/cmsis_gcc.h ****   register uint32_t result;
 176:Drivers/CMSIS/Include/cmsis_gcc.h **** 
 177:Drivers/CMSIS/Include/cmsis_gcc.h ****   __ASM volatile ("MRS %0, msp\n" : "=r" (result) );
 178:Drivers/CMSIS/Include/cmsis_gcc.h ****   return(result);
 179:Drivers/CMSIS/Include/cmsis_gcc.h **** }
 180:Drivers/CMSIS/Include/cmsis_gcc.h **** 
 181:Drivers/CMSIS/Include/cmsis_gcc.h **** 
 182:Drivers/CMSIS/Include/cmsis_gcc.h **** /**
 183:Drivers/CMSIS/Include/cmsis_gcc.h ****   \brief   Set Main Stack Pointer
 184:Drivers/CMSIS/Include/cmsis_gcc.h ****   \details Assigns the given value to the Main Stack Pointer (MSP).
 185:Drivers/CMSIS/Include/cmsis_gcc.h **** 
 186:Drivers/CMSIS/Include/cmsis_gcc.h ****     \param [in]    topOfMainStack  Main Stack Pointer value to set
 187:Drivers/CMSIS/Include/cmsis_gcc.h ****  */
 188:Drivers/CMSIS/Include/cmsis_gcc.h **** __attribute__( ( always_inline ) ) __STATIC_INLINE void __set_MSP(uint32_t topOfMainStack)
 189:Drivers/CMSIS/Include/cmsis_gcc.h **** {
 190:Drivers/CMSIS/Include/cmsis_gcc.h ****   __ASM volatile ("MSR msp, %0\n" : : "r" (topOfMainStack) : "sp");
 191:Drivers/CMSIS/Include/cmsis_gcc.h **** }
 192:Drivers/CMSIS/Include/cmsis_gcc.h **** 
 193:Drivers/CMSIS/Include/cmsis_gcc.h **** 
 194:Drivers/CMSIS/Include/cmsis_gcc.h **** /**
 195:Drivers/CMSIS/Include/cmsis_gcc.h ****   \brief   Get Priority Mask
 196:Drivers/CMSIS/Include/cmsis_gcc.h ****   \details Returns the current state of the priority mask bit from the Priority Mask Register.
 197:Drivers/CMSIS/Include/cmsis_gcc.h ****   \return               Priority Mask value
 198:Drivers/CMSIS/Include/cmsis_gcc.h ****  */
 199:Drivers/CMSIS/Include/cmsis_gcc.h **** __attribute__( ( always_inline ) ) __STATIC_INLINE uint32_t __get_PRIMASK(void)
 200:Drivers/CMSIS/Include/cmsis_gcc.h **** {
 201:Drivers/CMSIS/Include/cmsis_gcc.h ****   uint32_t result;
 202:Drivers/CMSIS/Include/cmsis_gcc.h **** 
 203:Drivers/CMSIS/Include/cmsis_gcc.h ****   __ASM volatile ("MRS %0, primask" : "=r" (result) );
 204:Drivers/CMSIS/Include/cmsis_gcc.h ****   return(result);
 205:Drivers/CMSIS/Include/cmsis_gcc.h **** }
 206:Drivers/CMSIS/Include/cmsis_gcc.h **** 
 207:Drivers/CMSIS/Include/cmsis_gcc.h **** 
 208:Drivers/CMSIS/Include/cmsis_gcc.h **** /**
 209:Drivers/CMSIS/Include/cmsis_gcc.h ****   \brief   Set Priority Mask
 210:Drivers/CMSIS/Include/cmsis_gcc.h ****   \details Assigns the given value to the Priority Mask Register.
 211:Drivers/CMSIS/Include/cmsis_gcc.h ****   \param [in]    priMask  Priority Mask
 212:Drivers/CMSIS/Include/cmsis_gcc.h ****  */
 213:Drivers/CMSIS/Include/cmsis_gcc.h **** __attribute__( ( always_inline ) ) __STATIC_INLINE void __set_PRIMASK(uint32_t priMask)
 214:Drivers/CMSIS/Include/cmsis_gcc.h **** {
 215:Drivers/CMSIS/Include/cmsis_gcc.h ****   __ASM volatile ("MSR primask, %0" : : "r" (priMask) : "memory");
 216:Drivers/CMSIS/Include/cmsis_gcc.h **** }
 217:Drivers/CMSIS/Include/cmsis_gcc.h **** 
 218:Drivers/CMSIS/Include/cmsis_gcc.h **** 
 219:Drivers/CMSIS/Include/cmsis_gcc.h **** #if       (__CORTEX_M >= 0x03U)
 220:Drivers/CMSIS/Include/cmsis_gcc.h **** 
 221:Drivers/CMSIS/Include/cmsis_gcc.h **** /**
 222:Drivers/CMSIS/Include/cmsis_gcc.h ****   \brief   Enable FIQ
 223:Drivers/CMSIS/Include/cmsis_gcc.h ****   \details Enables FIQ interrupts by clearing the F-bit in the CPSR.
 224:Drivers/CMSIS/Include/cmsis_gcc.h ****            Can only be executed in Privileged modes.
 225:Drivers/CMSIS/Include/cmsis_gcc.h ****  */
ARM GAS  /tmp/ccJTbD9y.s 			page 28


 226:Drivers/CMSIS/Include/cmsis_gcc.h **** __attribute__( ( always_inline ) ) __STATIC_INLINE void __enable_fault_irq(void)
 227:Drivers/CMSIS/Include/cmsis_gcc.h **** {
 228:Drivers/CMSIS/Include/cmsis_gcc.h ****   __ASM volatile ("cpsie f" : : : "memory");
 229:Drivers/CMSIS/Include/cmsis_gcc.h **** }
 230:Drivers/CMSIS/Include/cmsis_gcc.h **** 
 231:Drivers/CMSIS/Include/cmsis_gcc.h **** 
 232:Drivers/CMSIS/Include/cmsis_gcc.h **** /**
 233:Drivers/CMSIS/Include/cmsis_gcc.h ****   \brief   Disable FIQ
 234:Drivers/CMSIS/Include/cmsis_gcc.h ****   \details Disables FIQ interrupts by setting the F-bit in the CPSR.
 235:Drivers/CMSIS/Include/cmsis_gcc.h ****            Can only be executed in Privileged modes.
 236:Drivers/CMSIS/Include/cmsis_gcc.h ****  */
 237:Drivers/CMSIS/Include/cmsis_gcc.h **** __attribute__( ( always_inline ) ) __STATIC_INLINE void __disable_fault_irq(void)
 238:Drivers/CMSIS/Include/cmsis_gcc.h **** {
 239:Drivers/CMSIS/Include/cmsis_gcc.h ****   __ASM volatile ("cpsid f" : : : "memory");
 240:Drivers/CMSIS/Include/cmsis_gcc.h **** }
 241:Drivers/CMSIS/Include/cmsis_gcc.h **** 
 242:Drivers/CMSIS/Include/cmsis_gcc.h **** 
 243:Drivers/CMSIS/Include/cmsis_gcc.h **** /**
 244:Drivers/CMSIS/Include/cmsis_gcc.h ****   \brief   Get Base Priority
 245:Drivers/CMSIS/Include/cmsis_gcc.h ****   \details Returns the current value of the Base Priority register.
 246:Drivers/CMSIS/Include/cmsis_gcc.h ****   \return               Base Priority register value
 247:Drivers/CMSIS/Include/cmsis_gcc.h ****  */
 248:Drivers/CMSIS/Include/cmsis_gcc.h **** __attribute__( ( always_inline ) ) __STATIC_INLINE uint32_t __get_BASEPRI(void)
 249:Drivers/CMSIS/Include/cmsis_gcc.h **** {
 250:Drivers/CMSIS/Include/cmsis_gcc.h ****   uint32_t result;
 251:Drivers/CMSIS/Include/cmsis_gcc.h **** 
 252:Drivers/CMSIS/Include/cmsis_gcc.h ****   __ASM volatile ("MRS %0, basepri" : "=r" (result) );
 253:Drivers/CMSIS/Include/cmsis_gcc.h ****   return(result);
 254:Drivers/CMSIS/Include/cmsis_gcc.h **** }
 255:Drivers/CMSIS/Include/cmsis_gcc.h **** 
 256:Drivers/CMSIS/Include/cmsis_gcc.h **** 
 257:Drivers/CMSIS/Include/cmsis_gcc.h **** /**
 258:Drivers/CMSIS/Include/cmsis_gcc.h ****   \brief   Set Base Priority
 259:Drivers/CMSIS/Include/cmsis_gcc.h ****   \details Assigns the given value to the Base Priority register.
 260:Drivers/CMSIS/Include/cmsis_gcc.h ****   \param [in]    basePri  Base Priority value to set
 261:Drivers/CMSIS/Include/cmsis_gcc.h ****  */
 262:Drivers/CMSIS/Include/cmsis_gcc.h **** __attribute__( ( always_inline ) ) __STATIC_INLINE void __set_BASEPRI(uint32_t value)
 263:Drivers/CMSIS/Include/cmsis_gcc.h **** {
 264:Drivers/CMSIS/Include/cmsis_gcc.h ****   __ASM volatile ("MSR basepri, %0" : : "r" (value) : "memory");
 265:Drivers/CMSIS/Include/cmsis_gcc.h **** }
 266:Drivers/CMSIS/Include/cmsis_gcc.h **** 
 267:Drivers/CMSIS/Include/cmsis_gcc.h **** 
 268:Drivers/CMSIS/Include/cmsis_gcc.h **** /**
 269:Drivers/CMSIS/Include/cmsis_gcc.h ****   \brief   Set Base Priority with condition
 270:Drivers/CMSIS/Include/cmsis_gcc.h ****   \details Assigns the given value to the Base Priority register only if BASEPRI masking is disable
 271:Drivers/CMSIS/Include/cmsis_gcc.h ****            or the new value increases the BASEPRI priority level.
 272:Drivers/CMSIS/Include/cmsis_gcc.h ****   \param [in]    basePri  Base Priority value to set
 273:Drivers/CMSIS/Include/cmsis_gcc.h ****  */
 274:Drivers/CMSIS/Include/cmsis_gcc.h **** __attribute__( ( always_inline ) ) __STATIC_INLINE void __set_BASEPRI_MAX(uint32_t value)
 275:Drivers/CMSIS/Include/cmsis_gcc.h **** {
 276:Drivers/CMSIS/Include/cmsis_gcc.h ****   __ASM volatile ("MSR basepri_max, %0" : : "r" (value) : "memory");
 277:Drivers/CMSIS/Include/cmsis_gcc.h **** }
 278:Drivers/CMSIS/Include/cmsis_gcc.h **** 
 279:Drivers/CMSIS/Include/cmsis_gcc.h **** 
 280:Drivers/CMSIS/Include/cmsis_gcc.h **** /**
 281:Drivers/CMSIS/Include/cmsis_gcc.h ****   \brief   Get Fault Mask
 282:Drivers/CMSIS/Include/cmsis_gcc.h ****   \details Returns the current value of the Fault Mask register.
ARM GAS  /tmp/ccJTbD9y.s 			page 29


 283:Drivers/CMSIS/Include/cmsis_gcc.h ****   \return               Fault Mask register value
 284:Drivers/CMSIS/Include/cmsis_gcc.h ****  */
 285:Drivers/CMSIS/Include/cmsis_gcc.h **** __attribute__( ( always_inline ) ) __STATIC_INLINE uint32_t __get_FAULTMASK(void)
 286:Drivers/CMSIS/Include/cmsis_gcc.h **** {
 287:Drivers/CMSIS/Include/cmsis_gcc.h ****   uint32_t result;
 288:Drivers/CMSIS/Include/cmsis_gcc.h **** 
 289:Drivers/CMSIS/Include/cmsis_gcc.h ****   __ASM volatile ("MRS %0, faultmask" : "=r" (result) );
 290:Drivers/CMSIS/Include/cmsis_gcc.h ****   return(result);
 291:Drivers/CMSIS/Include/cmsis_gcc.h **** }
 292:Drivers/CMSIS/Include/cmsis_gcc.h **** 
 293:Drivers/CMSIS/Include/cmsis_gcc.h **** 
 294:Drivers/CMSIS/Include/cmsis_gcc.h **** /**
 295:Drivers/CMSIS/Include/cmsis_gcc.h ****   \brief   Set Fault Mask
 296:Drivers/CMSIS/Include/cmsis_gcc.h ****   \details Assigns the given value to the Fault Mask register.
 297:Drivers/CMSIS/Include/cmsis_gcc.h ****   \param [in]    faultMask  Fault Mask value to set
 298:Drivers/CMSIS/Include/cmsis_gcc.h ****  */
 299:Drivers/CMSIS/Include/cmsis_gcc.h **** __attribute__( ( always_inline ) ) __STATIC_INLINE void __set_FAULTMASK(uint32_t faultMask)
 300:Drivers/CMSIS/Include/cmsis_gcc.h **** {
 301:Drivers/CMSIS/Include/cmsis_gcc.h ****   __ASM volatile ("MSR faultmask, %0" : : "r" (faultMask) : "memory");
 302:Drivers/CMSIS/Include/cmsis_gcc.h **** }
 303:Drivers/CMSIS/Include/cmsis_gcc.h **** 
 304:Drivers/CMSIS/Include/cmsis_gcc.h **** #endif /* (__CORTEX_M >= 0x03U) */
 305:Drivers/CMSIS/Include/cmsis_gcc.h **** 
 306:Drivers/CMSIS/Include/cmsis_gcc.h **** 
 307:Drivers/CMSIS/Include/cmsis_gcc.h **** #if       (__CORTEX_M == 0x04U) || (__CORTEX_M == 0x07U)
 308:Drivers/CMSIS/Include/cmsis_gcc.h **** 
 309:Drivers/CMSIS/Include/cmsis_gcc.h **** /**
 310:Drivers/CMSIS/Include/cmsis_gcc.h ****   \brief   Get FPSCR
 311:Drivers/CMSIS/Include/cmsis_gcc.h ****   \details Returns the current value of the Floating Point Status/Control register.
 312:Drivers/CMSIS/Include/cmsis_gcc.h ****   \return               Floating Point Status/Control register value
 313:Drivers/CMSIS/Include/cmsis_gcc.h ****  */
 314:Drivers/CMSIS/Include/cmsis_gcc.h **** __attribute__( ( always_inline ) ) __STATIC_INLINE uint32_t __get_FPSCR(void)
 315:Drivers/CMSIS/Include/cmsis_gcc.h **** {
 316:Drivers/CMSIS/Include/cmsis_gcc.h **** #if (__FPU_PRESENT == 1U) && (__FPU_USED == 1U)
 317:Drivers/CMSIS/Include/cmsis_gcc.h ****   uint32_t result;
 318:Drivers/CMSIS/Include/cmsis_gcc.h **** 
 319:Drivers/CMSIS/Include/cmsis_gcc.h ****   /* Empty asm statement works as a scheduling barrier */
 320:Drivers/CMSIS/Include/cmsis_gcc.h ****   __ASM volatile ("");
 321:Drivers/CMSIS/Include/cmsis_gcc.h ****   __ASM volatile ("VMRS %0, fpscr" : "=r" (result) );
 322:Drivers/CMSIS/Include/cmsis_gcc.h ****   __ASM volatile ("");
 323:Drivers/CMSIS/Include/cmsis_gcc.h ****   return(result);
 324:Drivers/CMSIS/Include/cmsis_gcc.h **** #else
 325:Drivers/CMSIS/Include/cmsis_gcc.h ****    return(0);
 326:Drivers/CMSIS/Include/cmsis_gcc.h **** #endif
 327:Drivers/CMSIS/Include/cmsis_gcc.h **** }
 328:Drivers/CMSIS/Include/cmsis_gcc.h **** 
 329:Drivers/CMSIS/Include/cmsis_gcc.h **** 
 330:Drivers/CMSIS/Include/cmsis_gcc.h **** /**
 331:Drivers/CMSIS/Include/cmsis_gcc.h ****   \brief   Set FPSCR
 332:Drivers/CMSIS/Include/cmsis_gcc.h ****   \details Assigns the given value to the Floating Point Status/Control register.
 333:Drivers/CMSIS/Include/cmsis_gcc.h ****   \param [in]    fpscr  Floating Point Status/Control value to set
 334:Drivers/CMSIS/Include/cmsis_gcc.h ****  */
 335:Drivers/CMSIS/Include/cmsis_gcc.h **** __attribute__( ( always_inline ) ) __STATIC_INLINE void __set_FPSCR(uint32_t fpscr)
 336:Drivers/CMSIS/Include/cmsis_gcc.h **** {
 337:Drivers/CMSIS/Include/cmsis_gcc.h **** #if (__FPU_PRESENT == 1U) && (__FPU_USED == 1U)
 338:Drivers/CMSIS/Include/cmsis_gcc.h ****   /* Empty asm statement works as a scheduling barrier */
 339:Drivers/CMSIS/Include/cmsis_gcc.h ****   __ASM volatile ("");
ARM GAS  /tmp/ccJTbD9y.s 			page 30


 340:Drivers/CMSIS/Include/cmsis_gcc.h ****   __ASM volatile ("VMSR fpscr, %0" : : "r" (fpscr) : "vfpcc");
 341:Drivers/CMSIS/Include/cmsis_gcc.h ****   __ASM volatile ("");
 342:Drivers/CMSIS/Include/cmsis_gcc.h **** #endif
 343:Drivers/CMSIS/Include/cmsis_gcc.h **** }
 344:Drivers/CMSIS/Include/cmsis_gcc.h **** 
 345:Drivers/CMSIS/Include/cmsis_gcc.h **** #endif /* (__CORTEX_M == 0x04U) || (__CORTEX_M == 0x07U) */
 346:Drivers/CMSIS/Include/cmsis_gcc.h **** 
 347:Drivers/CMSIS/Include/cmsis_gcc.h **** 
 348:Drivers/CMSIS/Include/cmsis_gcc.h **** 
 349:Drivers/CMSIS/Include/cmsis_gcc.h **** /*@} end of CMSIS_Core_RegAccFunctions */
 350:Drivers/CMSIS/Include/cmsis_gcc.h **** 
 351:Drivers/CMSIS/Include/cmsis_gcc.h **** 
 352:Drivers/CMSIS/Include/cmsis_gcc.h **** /* ##########################  Core Instruction Access  ######################### */
 353:Drivers/CMSIS/Include/cmsis_gcc.h **** /** \defgroup CMSIS_Core_InstructionInterface CMSIS Core Instruction Interface
 354:Drivers/CMSIS/Include/cmsis_gcc.h ****   Access to dedicated instructions
 355:Drivers/CMSIS/Include/cmsis_gcc.h ****   @{
 356:Drivers/CMSIS/Include/cmsis_gcc.h **** */
 357:Drivers/CMSIS/Include/cmsis_gcc.h **** 
 358:Drivers/CMSIS/Include/cmsis_gcc.h **** /* Define macros for porting to both thumb1 and thumb2.
 359:Drivers/CMSIS/Include/cmsis_gcc.h ****  * For thumb1, use low register (r0-r7), specified by constraint "l"
 360:Drivers/CMSIS/Include/cmsis_gcc.h ****  * Otherwise, use general registers, specified by constraint "r" */
 361:Drivers/CMSIS/Include/cmsis_gcc.h **** #if defined (__thumb__) && !defined (__thumb2__)
 362:Drivers/CMSIS/Include/cmsis_gcc.h **** #define __CMSIS_GCC_OUT_REG(r) "=l" (r)
 363:Drivers/CMSIS/Include/cmsis_gcc.h **** #define __CMSIS_GCC_USE_REG(r) "l" (r)
 364:Drivers/CMSIS/Include/cmsis_gcc.h **** #else
 365:Drivers/CMSIS/Include/cmsis_gcc.h **** #define __CMSIS_GCC_OUT_REG(r) "=r" (r)
 366:Drivers/CMSIS/Include/cmsis_gcc.h **** #define __CMSIS_GCC_USE_REG(r) "r" (r)
 367:Drivers/CMSIS/Include/cmsis_gcc.h **** #endif
 368:Drivers/CMSIS/Include/cmsis_gcc.h **** 
 369:Drivers/CMSIS/Include/cmsis_gcc.h **** /**
 370:Drivers/CMSIS/Include/cmsis_gcc.h ****   \brief   No Operation
 371:Drivers/CMSIS/Include/cmsis_gcc.h ****   \details No Operation does nothing. This instruction can be used for code alignment purposes.
 372:Drivers/CMSIS/Include/cmsis_gcc.h ****  */
 373:Drivers/CMSIS/Include/cmsis_gcc.h **** __attribute__((always_inline)) __STATIC_INLINE void __NOP(void)
 374:Drivers/CMSIS/Include/cmsis_gcc.h **** {
 375:Drivers/CMSIS/Include/cmsis_gcc.h ****   __ASM volatile ("nop");
  49              		.loc 2 375 0 discriminator 1
  50              		.syntax unified
  51              	@ 375 "Drivers/CMSIS/Include/cmsis_gcc.h" 1
  52 0014 00BF     		nop
  53              	@ 0 "" 2
  54              		.thumb
  55              		.syntax unified
  56              	.LBE5:
  57              	.LBE4:
1268:Drivers/STM32F1xx_HAL_Driver/Src/stm32f1xx_hal_rcc.c ****   do 
1269:Drivers/STM32F1xx_HAL_Driver/Src/stm32f1xx_hal_rcc.c ****   {
1270:Drivers/STM32F1xx_HAL_Driver/Src/stm32f1xx_hal_rcc.c ****     __NOP();
1271:Drivers/STM32F1xx_HAL_Driver/Src/stm32f1xx_hal_rcc.c ****   } 
1272:Drivers/STM32F1xx_HAL_Driver/Src/stm32f1xx_hal_rcc.c ****   while (Delay --);
  58              		.loc 1 1272 0 discriminator 1
  59 0016 019B     		ldr	r3, [sp, #4]
  60 0018 5A1E     		subs	r2, r3, #1
  61 001a 0192     		str	r2, [sp, #4]
  62 001c 002B     		cmp	r3, #0
  63 001e F9D1     		bne	.L2
1273:Drivers/STM32F1xx_HAL_Driver/Src/stm32f1xx_hal_rcc.c **** }
ARM GAS  /tmp/ccJTbD9y.s 			page 31


  64              		.loc 1 1273 0
  65 0020 02B0     		add	sp, sp, #8
  66              	.LCFI1:
  67              		.cfi_def_cfa_offset 0
  68              		@ sp needed
  69 0022 7047     		bx	lr
  70              	.L5:
  71              		.align	2
  72              	.L4:
  73 0024 00000000 		.word	SystemCoreClock
  74 0028 D34D6210 		.word	274877907
  75              		.cfi_endproc
  76              	.LFE77:
  78              		.section	.text.HAL_RCC_DeInit,"ax",%progbits
  79              		.align	2
  80              		.global	HAL_RCC_DeInit
  81              		.thumb
  82              		.thumb_func
  84              	HAL_RCC_DeInit:
  85              	.LFB64:
 220:Drivers/STM32F1xx_HAL_Driver/Src/stm32f1xx_hal_rcc.c ****   /* Switch SYSCLK to HSI */
  86              		.loc 1 220 0
  87              		.cfi_startproc
  88              		@ args = 0, pretend = 0, frame = 0
  89              		@ frame_needed = 0, uses_anonymous_args = 0
  90              		@ link register save eliminated.
 222:Drivers/STM32F1xx_HAL_Driver/Src/stm32f1xx_hal_rcc.c **** 
  91              		.loc 1 222 0
  92 0000 0D4B     		ldr	r3, .L7
  93 0002 5A68     		ldr	r2, [r3, #4]
  94 0004 22F00302 		bic	r2, r2, #3
  95 0008 5A60     		str	r2, [r3, #4]
 225:Drivers/STM32F1xx_HAL_Driver/Src/stm32f1xx_hal_rcc.c ****   
  96              		.loc 1 225 0
  97 000a 1A68     		ldr	r2, [r3]
  98 000c 22F08472 		bic	r2, r2, #17301504
  99 0010 22F48032 		bic	r2, r2, #65536
 100 0014 1A60     		str	r2, [r3]
 228:Drivers/STM32F1xx_HAL_Driver/Src/stm32f1xx_hal_rcc.c ****   
 101              		.loc 1 228 0
 102 0016 1A68     		ldr	r2, [r3]
 103 0018 22F48022 		bic	r2, r2, #262144
 104 001c 1A60     		str	r2, [r3]
 231:Drivers/STM32F1xx_HAL_Driver/Src/stm32f1xx_hal_rcc.c ****   
 105              		.loc 1 231 0
 106 001e 0021     		movs	r1, #0
 107 0020 5960     		str	r1, [r3, #4]
 234:Drivers/STM32F1xx_HAL_Driver/Src/stm32f1xx_hal_rcc.c ****   
 108              		.loc 1 234 0
 109 0022 1A68     		ldr	r2, [r3]
 110 0024 22F0F802 		bic	r2, r2, #248
 111 0028 42F08002 		orr	r2, r2, #128
 112 002c 1A60     		str	r2, [r3]
 242:Drivers/STM32F1xx_HAL_Driver/Src/stm32f1xx_hal_rcc.c **** 
 113              		.loc 1 242 0
 114 002e 9960     		str	r1, [r3, #8]
 245:Drivers/STM32F1xx_HAL_Driver/Src/stm32f1xx_hal_rcc.c **** }
ARM GAS  /tmp/ccJTbD9y.s 			page 32


 115              		.loc 1 245 0
 116 0030 024A     		ldr	r2, .L7+4
 117 0032 034B     		ldr	r3, .L7+8
 118 0034 1A60     		str	r2, [r3]
 119 0036 7047     		bx	lr
 120              	.L8:
 121              		.align	2
 122              	.L7:
 123 0038 00100240 		.word	1073876992
 124 003c 00127A00 		.word	8000000
 125 0040 00000000 		.word	SystemCoreClock
 126              		.cfi_endproc
 127              	.LFE64:
 129              		.section	.text.HAL_RCC_OscConfig,"ax",%progbits
 130              		.align	2
 131              		.global	HAL_RCC_OscConfig
 132              		.thumb
 133              		.thumb_func
 135              	HAL_RCC_OscConfig:
 136              	.LFB65:
 264:Drivers/STM32F1xx_HAL_Driver/Src/stm32f1xx_hal_rcc.c ****    uint32_t tickstart = 0U;
 137              		.loc 1 264 0
 138              		.cfi_startproc
 139              		@ args = 0, pretend = 0, frame = 8
 140              		@ frame_needed = 0, uses_anonymous_args = 0
 141              	.LVL2:
 142 0000 70B5     		push	{r4, r5, r6, lr}
 143              	.LCFI2:
 144              		.cfi_def_cfa_offset 16
 145              		.cfi_offset 4, -16
 146              		.cfi_offset 5, -12
 147              		.cfi_offset 6, -8
 148              		.cfi_offset 14, -4
 149 0002 82B0     		sub	sp, sp, #8
 150              	.LCFI3:
 151              		.cfi_def_cfa_offset 24
 152 0004 0446     		mov	r4, r0
 153              	.LVL3:
 272:Drivers/STM32F1xx_HAL_Driver/Src/stm32f1xx_hal_rcc.c ****   {
 154              		.loc 1 272 0
 155 0006 0368     		ldr	r3, [r0]
 156 0008 13F0010F 		tst	r3, #1
 157 000c 6BD0     		beq	.L10
 278:Drivers/STM32F1xx_HAL_Driver/Src/stm32f1xx_hal_rcc.c ****        || ((__HAL_RCC_GET_SYSCLK_SOURCE() == RCC_SYSCLKSOURCE_STATUS_PLLCLK) && (__HAL_RCC_GET_PLL_
 158              		.loc 1 278 0
 159 000e A84B     		ldr	r3, .L79
 160 0010 5B68     		ldr	r3, [r3, #4]
 161 0012 03F00C03 		and	r3, r3, #12
 162 0016 042B     		cmp	r3, #4
 163 0018 0AD0     		beq	.L11
 279:Drivers/STM32F1xx_HAL_Driver/Src/stm32f1xx_hal_rcc.c ****     {
 164              		.loc 1 279 0
 165 001a A54B     		ldr	r3, .L79
 166 001c 5B68     		ldr	r3, [r3, #4]
 167 001e 03F00C03 		and	r3, r3, #12
 168 0022 082B     		cmp	r3, #8
 169 0024 0DD1     		bne	.L12
ARM GAS  /tmp/ccJTbD9y.s 			page 33


 279:Drivers/STM32F1xx_HAL_Driver/Src/stm32f1xx_hal_rcc.c ****     {
 170              		.loc 1 279 0 is_stmt 0 discriminator 1
 171 0026 A24B     		ldr	r3, .L79
 172 0028 5B68     		ldr	r3, [r3, #4]
 173 002a 13F4803F 		tst	r3, #65536
 174 002e 08D0     		beq	.L12
 175              	.L11:
 281:Drivers/STM32F1xx_HAL_Driver/Src/stm32f1xx_hal_rcc.c ****       {
 176              		.loc 1 281 0 is_stmt 1
 177 0030 9F4B     		ldr	r3, .L79
 178 0032 1B68     		ldr	r3, [r3]
 179 0034 13F4003F 		tst	r3, #131072
 180 0038 55D0     		beq	.L10
 281:Drivers/STM32F1xx_HAL_Driver/Src/stm32f1xx_hal_rcc.c ****       {
 181              		.loc 1 281 0 is_stmt 0 discriminator 1
 182 003a 6368     		ldr	r3, [r4, #4]
 183 003c 002B     		cmp	r3, #0
 184 003e 52D1     		bne	.L10
 185 0040 B8E1     		b	.L61
 186              	.L12:
 289:Drivers/STM32F1xx_HAL_Driver/Src/stm32f1xx_hal_rcc.c ****       
 187              		.loc 1 289 0 is_stmt 1
 188 0042 6368     		ldr	r3, [r4, #4]
 189 0044 B3F5803F 		cmp	r3, #65536
 190 0048 05D1     		bne	.L14
 289:Drivers/STM32F1xx_HAL_Driver/Src/stm32f1xx_hal_rcc.c ****       
 191              		.loc 1 289 0 is_stmt 0 discriminator 1
 192 004a 994A     		ldr	r2, .L79
 193 004c 1368     		ldr	r3, [r2]
 194 004e 43F48033 		orr	r3, r3, #65536
 195 0052 1360     		str	r3, [r2]
 196 0054 26E0     		b	.L15
 197              	.L14:
 289:Drivers/STM32F1xx_HAL_Driver/Src/stm32f1xx_hal_rcc.c ****       
 198              		.loc 1 289 0 discriminator 2
 199 0056 63B9     		cbnz	r3, .L16
 289:Drivers/STM32F1xx_HAL_Driver/Src/stm32f1xx_hal_rcc.c ****       
 200              		.loc 1 289 0 discriminator 3
 201 0058 03F18043 		add	r3, r3, #1073741824
 202 005c 03F50433 		add	r3, r3, #135168
 203 0060 1A68     		ldr	r2, [r3]
 204 0062 22F48032 		bic	r2, r2, #65536
 205 0066 1A60     		str	r2, [r3]
 206 0068 1A68     		ldr	r2, [r3]
 207 006a 22F48022 		bic	r2, r2, #262144
 208 006e 1A60     		str	r2, [r3]
 209 0070 18E0     		b	.L15
 210              	.L16:
 289:Drivers/STM32F1xx_HAL_Driver/Src/stm32f1xx_hal_rcc.c ****       
 211              		.loc 1 289 0 discriminator 4
 212 0072 B3F5A02F 		cmp	r3, #327680
 213 0076 0CD1     		bne	.L17
 289:Drivers/STM32F1xx_HAL_Driver/Src/stm32f1xx_hal_rcc.c ****       
 214              		.loc 1 289 0 discriminator 5
 215 0078 03F18043 		add	r3, r3, #1073741824
 216 007c A3F53C33 		sub	r3, r3, #192512
 217 0080 1A68     		ldr	r2, [r3]
ARM GAS  /tmp/ccJTbD9y.s 			page 34


 218 0082 42F48022 		orr	r2, r2, #262144
 219 0086 1A60     		str	r2, [r3]
 220 0088 1A68     		ldr	r2, [r3]
 221 008a 42F48032 		orr	r2, r2, #65536
 222 008e 1A60     		str	r2, [r3]
 223 0090 08E0     		b	.L15
 224              	.L17:
 289:Drivers/STM32F1xx_HAL_Driver/Src/stm32f1xx_hal_rcc.c ****       
 225              		.loc 1 289 0 discriminator 6
 226 0092 874B     		ldr	r3, .L79
 227 0094 1A68     		ldr	r2, [r3]
 228 0096 22F48032 		bic	r2, r2, #65536
 229 009a 1A60     		str	r2, [r3]
 230 009c 1A68     		ldr	r2, [r3]
 231 009e 22F48022 		bic	r2, r2, #262144
 232 00a2 1A60     		str	r2, [r3]
 233              	.L15:
 293:Drivers/STM32F1xx_HAL_Driver/Src/stm32f1xx_hal_rcc.c ****       {
 234              		.loc 1 293 0 is_stmt 1
 235 00a4 6368     		ldr	r3, [r4, #4]
 236 00a6 7BB1     		cbz	r3, .L18
 296:Drivers/STM32F1xx_HAL_Driver/Src/stm32f1xx_hal_rcc.c ****         
 237              		.loc 1 296 0
 238 00a8 FFF7FEFF 		bl	HAL_GetTick
 239              	.LVL4:
 240 00ac 0546     		mov	r5, r0
 241              	.LVL5:
 299:Drivers/STM32F1xx_HAL_Driver/Src/stm32f1xx_hal_rcc.c ****         {
 242              		.loc 1 299 0
 243 00ae 05E0     		b	.L19
 244              	.LVL6:
 245              	.L20:
 301:Drivers/STM32F1xx_HAL_Driver/Src/stm32f1xx_hal_rcc.c ****           {
 246              		.loc 1 301 0
 247 00b0 FFF7FEFF 		bl	HAL_GetTick
 248              	.LVL7:
 249 00b4 401B     		subs	r0, r0, r5
 250 00b6 6428     		cmp	r0, #100
 251 00b8 00F27E81 		bhi	.L62
 252              	.L19:
 299:Drivers/STM32F1xx_HAL_Driver/Src/stm32f1xx_hal_rcc.c ****         {
 253              		.loc 1 299 0
 254 00bc 7C4B     		ldr	r3, .L79
 255 00be 1B68     		ldr	r3, [r3]
 256 00c0 13F4003F 		tst	r3, #131072
 257 00c4 F4D0     		beq	.L20
 258 00c6 0EE0     		b	.L10
 259              	.LVL8:
 260              	.L18:
 310:Drivers/STM32F1xx_HAL_Driver/Src/stm32f1xx_hal_rcc.c ****         
 261              		.loc 1 310 0
 262 00c8 FFF7FEFF 		bl	HAL_GetTick
 263              	.LVL9:
 264 00cc 0546     		mov	r5, r0
 265              	.LVL10:
 313:Drivers/STM32F1xx_HAL_Driver/Src/stm32f1xx_hal_rcc.c ****         {
 266              		.loc 1 313 0
ARM GAS  /tmp/ccJTbD9y.s 			page 35


 267 00ce 05E0     		b	.L21
 268              	.LVL11:
 269              	.L22:
 315:Drivers/STM32F1xx_HAL_Driver/Src/stm32f1xx_hal_rcc.c ****           {
 270              		.loc 1 315 0
 271 00d0 FFF7FEFF 		bl	HAL_GetTick
 272              	.LVL12:
 273 00d4 401B     		subs	r0, r0, r5
 274 00d6 6428     		cmp	r0, #100
 275 00d8 00F27081 		bhi	.L63
 276              	.L21:
 313:Drivers/STM32F1xx_HAL_Driver/Src/stm32f1xx_hal_rcc.c ****         {
 277              		.loc 1 313 0
 278 00dc 744B     		ldr	r3, .L79
 279 00de 1B68     		ldr	r3, [r3]
 280 00e0 13F4003F 		tst	r3, #131072
 281 00e4 F4D1     		bne	.L22
 282              	.LVL13:
 283              	.L10:
 324:Drivers/STM32F1xx_HAL_Driver/Src/stm32f1xx_hal_rcc.c ****   {
 284              		.loc 1 324 0
 285 00e6 2368     		ldr	r3, [r4]
 286 00e8 13F0020F 		tst	r3, #2
 287 00ec 50D0     		beq	.L23
 331:Drivers/STM32F1xx_HAL_Driver/Src/stm32f1xx_hal_rcc.c ****        || ((__HAL_RCC_GET_SYSCLK_SOURCE() == RCC_SYSCLKSOURCE_STATUS_PLLCLK) && (__HAL_RCC_GET_PLL_
 288              		.loc 1 331 0
 289 00ee 704B     		ldr	r3, .L79
 290 00f0 5B68     		ldr	r3, [r3, #4]
 291 00f2 13F00C0F 		tst	r3, #12
 292 00f6 0AD0     		beq	.L24
 332:Drivers/STM32F1xx_HAL_Driver/Src/stm32f1xx_hal_rcc.c ****     {
 293              		.loc 1 332 0
 294 00f8 6D4B     		ldr	r3, .L79
 295 00fa 5B68     		ldr	r3, [r3, #4]
 296 00fc 03F00C03 		and	r3, r3, #12
 297 0100 082B     		cmp	r3, #8
 298 0102 16D1     		bne	.L25
 332:Drivers/STM32F1xx_HAL_Driver/Src/stm32f1xx_hal_rcc.c ****     {
 299              		.loc 1 332 0 is_stmt 0 discriminator 1
 300 0104 6A4B     		ldr	r3, .L79
 301 0106 5B68     		ldr	r3, [r3, #4]
 302 0108 13F4803F 		tst	r3, #65536
 303 010c 11D1     		bne	.L25
 304              	.L24:
 335:Drivers/STM32F1xx_HAL_Driver/Src/stm32f1xx_hal_rcc.c ****       {
 305              		.loc 1 335 0 is_stmt 1
 306 010e 684B     		ldr	r3, .L79
 307 0110 1B68     		ldr	r3, [r3]
 308 0112 13F0020F 		tst	r3, #2
 309 0116 03D0     		beq	.L26
 335:Drivers/STM32F1xx_HAL_Driver/Src/stm32f1xx_hal_rcc.c ****       {
 310              		.loc 1 335 0 is_stmt 0 discriminator 1
 311 0118 2369     		ldr	r3, [r4, #16]
 312 011a 012B     		cmp	r3, #1
 313 011c 40F05081 		bne	.L64
 314              	.L26:
 343:Drivers/STM32F1xx_HAL_Driver/Src/stm32f1xx_hal_rcc.c ****       }
ARM GAS  /tmp/ccJTbD9y.s 			page 36


 315              		.loc 1 343 0 is_stmt 1
 316 0120 634A     		ldr	r2, .L79
 317 0122 1368     		ldr	r3, [r2]
 318 0124 23F0F803 		bic	r3, r3, #248
 319 0128 6169     		ldr	r1, [r4, #20]
 320 012a 43EAC103 		orr	r3, r3, r1, lsl #3
 321 012e 1360     		str	r3, [r2]
 335:Drivers/STM32F1xx_HAL_Driver/Src/stm32f1xx_hal_rcc.c ****       {
 322              		.loc 1 335 0
 323 0130 2EE0     		b	.L23
 324              	.L25:
 349:Drivers/STM32F1xx_HAL_Driver/Src/stm32f1xx_hal_rcc.c ****       {
 325              		.loc 1 349 0
 326 0132 2369     		ldr	r3, [r4, #16]
 327 0134 D3B1     		cbz	r3, .L27
 352:Drivers/STM32F1xx_HAL_Driver/Src/stm32f1xx_hal_rcc.c ****         
 328              		.loc 1 352 0
 329 0136 0122     		movs	r2, #1
 330 0138 5E4B     		ldr	r3, .L79+4
 331 013a 1A60     		str	r2, [r3]
 355:Drivers/STM32F1xx_HAL_Driver/Src/stm32f1xx_hal_rcc.c ****         
 332              		.loc 1 355 0
 333 013c FFF7FEFF 		bl	HAL_GetTick
 334              	.LVL14:
 335 0140 0546     		mov	r5, r0
 336              	.LVL15:
 358:Drivers/STM32F1xx_HAL_Driver/Src/stm32f1xx_hal_rcc.c ****         {
 337              		.loc 1 358 0
 338 0142 05E0     		b	.L28
 339              	.LVL16:
 340              	.L29:
 360:Drivers/STM32F1xx_HAL_Driver/Src/stm32f1xx_hal_rcc.c ****           {
 341              		.loc 1 360 0
 342 0144 FFF7FEFF 		bl	HAL_GetTick
 343              	.LVL17:
 344 0148 401B     		subs	r0, r0, r5
 345 014a 0228     		cmp	r0, #2
 346 014c 00F23A81 		bhi	.L65
 347              	.L28:
 358:Drivers/STM32F1xx_HAL_Driver/Src/stm32f1xx_hal_rcc.c ****         {
 348              		.loc 1 358 0
 349 0150 574B     		ldr	r3, .L79
 350 0152 1B68     		ldr	r3, [r3]
 351 0154 13F0020F 		tst	r3, #2
 352 0158 F4D0     		beq	.L29
 367:Drivers/STM32F1xx_HAL_Driver/Src/stm32f1xx_hal_rcc.c ****       }
 353              		.loc 1 367 0
 354 015a 554A     		ldr	r2, .L79
 355 015c 1368     		ldr	r3, [r2]
 356 015e 23F0F803 		bic	r3, r3, #248
 357 0162 6169     		ldr	r1, [r4, #20]
 358 0164 43EAC103 		orr	r3, r3, r1, lsl #3
 359 0168 1360     		str	r3, [r2]
 360 016a 11E0     		b	.L23
 361              	.LVL18:
 362              	.L27:
 372:Drivers/STM32F1xx_HAL_Driver/Src/stm32f1xx_hal_rcc.c ****         
ARM GAS  /tmp/ccJTbD9y.s 			page 37


 363              		.loc 1 372 0
 364 016c 0022     		movs	r2, #0
 365 016e 514B     		ldr	r3, .L79+4
 366 0170 1A60     		str	r2, [r3]
 375:Drivers/STM32F1xx_HAL_Driver/Src/stm32f1xx_hal_rcc.c ****         
 367              		.loc 1 375 0
 368 0172 FFF7FEFF 		bl	HAL_GetTick
 369              	.LVL19:
 370 0176 0546     		mov	r5, r0
 371              	.LVL20:
 378:Drivers/STM32F1xx_HAL_Driver/Src/stm32f1xx_hal_rcc.c ****         {
 372              		.loc 1 378 0
 373 0178 05E0     		b	.L30
 374              	.LVL21:
 375              	.L31:
 380:Drivers/STM32F1xx_HAL_Driver/Src/stm32f1xx_hal_rcc.c ****           {
 376              		.loc 1 380 0
 377 017a FFF7FEFF 		bl	HAL_GetTick
 378              	.LVL22:
 379 017e 401B     		subs	r0, r0, r5
 380 0180 0228     		cmp	r0, #2
 381 0182 00F22181 		bhi	.L66
 382              	.L30:
 378:Drivers/STM32F1xx_HAL_Driver/Src/stm32f1xx_hal_rcc.c ****         {
 383              		.loc 1 378 0
 384 0186 4A4B     		ldr	r3, .L79
 385 0188 1B68     		ldr	r3, [r3]
 386 018a 13F0020F 		tst	r3, #2
 387 018e F4D1     		bne	.L31
 388              	.LVL23:
 389              	.L23:
 389:Drivers/STM32F1xx_HAL_Driver/Src/stm32f1xx_hal_rcc.c ****   {
 390              		.loc 1 389 0
 391 0190 2368     		ldr	r3, [r4]
 392 0192 13F0080F 		tst	r3, #8
 393 0196 29D0     		beq	.L32
 395:Drivers/STM32F1xx_HAL_Driver/Src/stm32f1xx_hal_rcc.c ****     {
 394              		.loc 1 395 0
 395 0198 A369     		ldr	r3, [r4, #24]
 396 019a ABB1     		cbz	r3, .L33
 398:Drivers/STM32F1xx_HAL_Driver/Src/stm32f1xx_hal_rcc.c ****       
 397              		.loc 1 398 0
 398 019c 0122     		movs	r2, #1
 399 019e 464B     		ldr	r3, .L79+8
 400 01a0 1A60     		str	r2, [r3]
 401:Drivers/STM32F1xx_HAL_Driver/Src/stm32f1xx_hal_rcc.c ****       
 401              		.loc 1 401 0
 402 01a2 FFF7FEFF 		bl	HAL_GetTick
 403              	.LVL24:
 404 01a6 0546     		mov	r5, r0
 405              	.LVL25:
 404:Drivers/STM32F1xx_HAL_Driver/Src/stm32f1xx_hal_rcc.c ****       {
 406              		.loc 1 404 0
 407 01a8 05E0     		b	.L34
 408              	.LVL26:
 409              	.L35:
 406:Drivers/STM32F1xx_HAL_Driver/Src/stm32f1xx_hal_rcc.c ****         {
ARM GAS  /tmp/ccJTbD9y.s 			page 38


 410              		.loc 1 406 0
 411 01aa FFF7FEFF 		bl	HAL_GetTick
 412              	.LVL27:
 413 01ae 401B     		subs	r0, r0, r5
 414 01b0 0228     		cmp	r0, #2
 415 01b2 00F20B81 		bhi	.L67
 416              	.L34:
 404:Drivers/STM32F1xx_HAL_Driver/Src/stm32f1xx_hal_rcc.c ****       {
 417              		.loc 1 404 0
 418 01b6 3E4B     		ldr	r3, .L79
 419 01b8 5B6A     		ldr	r3, [r3, #36]
 420 01ba 13F0020F 		tst	r3, #2
 421 01be F4D0     		beq	.L35
 413:Drivers/STM32F1xx_HAL_Driver/Src/stm32f1xx_hal_rcc.c ****     }
 422              		.loc 1 413 0
 423 01c0 0120     		movs	r0, #1
 424 01c2 FFF7FEFF 		bl	RCC_Delay
 425              	.LVL28:
 426 01c6 11E0     		b	.L32
 427              	.LVL29:
 428              	.L33:
 418:Drivers/STM32F1xx_HAL_Driver/Src/stm32f1xx_hal_rcc.c ****       
 429              		.loc 1 418 0
 430 01c8 0022     		movs	r2, #0
 431 01ca 3B4B     		ldr	r3, .L79+8
 432 01cc 1A60     		str	r2, [r3]
 421:Drivers/STM32F1xx_HAL_Driver/Src/stm32f1xx_hal_rcc.c ****       
 433              		.loc 1 421 0
 434 01ce FFF7FEFF 		bl	HAL_GetTick
 435              	.LVL30:
 436 01d2 0546     		mov	r5, r0
 437              	.LVL31:
 424:Drivers/STM32F1xx_HAL_Driver/Src/stm32f1xx_hal_rcc.c ****       {
 438              		.loc 1 424 0
 439 01d4 05E0     		b	.L36
 440              	.LVL32:
 441              	.L37:
 426:Drivers/STM32F1xx_HAL_Driver/Src/stm32f1xx_hal_rcc.c ****         {
 442              		.loc 1 426 0
 443 01d6 FFF7FEFF 		bl	HAL_GetTick
 444              	.LVL33:
 445 01da 401B     		subs	r0, r0, r5
 446 01dc 0228     		cmp	r0, #2
 447 01de 00F2F780 		bhi	.L68
 448              	.L36:
 424:Drivers/STM32F1xx_HAL_Driver/Src/stm32f1xx_hal_rcc.c ****       {
 449              		.loc 1 424 0
 450 01e2 334B     		ldr	r3, .L79
 451 01e4 5B6A     		ldr	r3, [r3, #36]
 452 01e6 13F0020F 		tst	r3, #2
 453 01ea F4D1     		bne	.L37
 454              	.LVL34:
 455              	.L32:
 434:Drivers/STM32F1xx_HAL_Driver/Src/stm32f1xx_hal_rcc.c ****   {
 456              		.loc 1 434 0
 457 01ec 2368     		ldr	r3, [r4]
 458 01ee 13F0040F 		tst	r3, #4
ARM GAS  /tmp/ccJTbD9y.s 			page 39


 459 01f2 00F08980 		beq	.L38
 460              	.LVL35:
 461              	.LBB6:
 443:Drivers/STM32F1xx_HAL_Driver/Src/stm32f1xx_hal_rcc.c ****     {
 462              		.loc 1 443 0
 463 01f6 2E4B     		ldr	r3, .L79
 464 01f8 DB69     		ldr	r3, [r3, #28]
 465 01fa 13F0805F 		tst	r3, #268435456
 466 01fe 0BD1     		bne	.L69
 467              	.LBB7:
 445:Drivers/STM32F1xx_HAL_Driver/Src/stm32f1xx_hal_rcc.c ****       pwrclkchanged = SET;
 468              		.loc 1 445 0
 469 0200 2B4B     		ldr	r3, .L79
 470 0202 DA69     		ldr	r2, [r3, #28]
 471 0204 42F08052 		orr	r2, r2, #268435456
 472 0208 DA61     		str	r2, [r3, #28]
 473 020a DB69     		ldr	r3, [r3, #28]
 474 020c 03F08053 		and	r3, r3, #268435456
 475 0210 0193     		str	r3, [sp, #4]
 476 0212 019B     		ldr	r3, [sp, #4]
 477              	.LVL36:
 478              	.LBE7:
 446:Drivers/STM32F1xx_HAL_Driver/Src/stm32f1xx_hal_rcc.c ****     }
 479              		.loc 1 446 0
 480 0214 0125     		movs	r5, #1
 481 0216 00E0     		b	.L39
 482              	.LVL37:
 483              	.L69:
 436:Drivers/STM32F1xx_HAL_Driver/Src/stm32f1xx_hal_rcc.c ****     
 484              		.loc 1 436 0
 485 0218 0025     		movs	r5, #0
 486              	.LVL38:
 487              	.L39:
 449:Drivers/STM32F1xx_HAL_Driver/Src/stm32f1xx_hal_rcc.c ****     {
 488              		.loc 1 449 0
 489 021a 284B     		ldr	r3, .L79+12
 490 021c 1B68     		ldr	r3, [r3]
 491 021e 13F4807F 		tst	r3, #256
 492 0222 13D1     		bne	.L40
 452:Drivers/STM32F1xx_HAL_Driver/Src/stm32f1xx_hal_rcc.c ****       
 493              		.loc 1 452 0
 494 0224 254A     		ldr	r2, .L79+12
 495 0226 1368     		ldr	r3, [r2]
 496 0228 43F48073 		orr	r3, r3, #256
 497 022c 1360     		str	r3, [r2]
 455:Drivers/STM32F1xx_HAL_Driver/Src/stm32f1xx_hal_rcc.c **** 
 498              		.loc 1 455 0
 499 022e FFF7FEFF 		bl	HAL_GetTick
 500              	.LVL39:
 501 0232 0646     		mov	r6, r0
 502              	.LVL40:
 457:Drivers/STM32F1xx_HAL_Driver/Src/stm32f1xx_hal_rcc.c ****       {
 503              		.loc 1 457 0
 504 0234 05E0     		b	.L41
 505              	.LVL41:
 506              	.L42:
 459:Drivers/STM32F1xx_HAL_Driver/Src/stm32f1xx_hal_rcc.c ****         {
ARM GAS  /tmp/ccJTbD9y.s 			page 40


 507              		.loc 1 459 0
 508 0236 FFF7FEFF 		bl	HAL_GetTick
 509              	.LVL42:
 510 023a 801B     		subs	r0, r0, r6
 511 023c 6428     		cmp	r0, #100
 512 023e 00F2C980 		bhi	.L70
 513              	.L41:
 457:Drivers/STM32F1xx_HAL_Driver/Src/stm32f1xx_hal_rcc.c ****       {
 514              		.loc 1 457 0
 515 0242 1E4B     		ldr	r3, .L79+12
 516 0244 1B68     		ldr	r3, [r3]
 517 0246 13F4807F 		tst	r3, #256
 518 024a F4D0     		beq	.L42
 519              	.LVL43:
 520              	.L40:
 467:Drivers/STM32F1xx_HAL_Driver/Src/stm32f1xx_hal_rcc.c ****     /* Check the LSE State */
 521              		.loc 1 467 0
 522 024c E368     		ldr	r3, [r4, #12]
 523 024e 012B     		cmp	r3, #1
 524 0250 05D1     		bne	.L43
 467:Drivers/STM32F1xx_HAL_Driver/Src/stm32f1xx_hal_rcc.c ****     /* Check the LSE State */
 525              		.loc 1 467 0 is_stmt 0 discriminator 1
 526 0252 174A     		ldr	r2, .L79
 527 0254 136A     		ldr	r3, [r2, #32]
 528 0256 43F00103 		orr	r3, r3, #1
 529 025a 1362     		str	r3, [r2, #32]
 530 025c 22E0     		b	.L44
 531              	.L43:
 467:Drivers/STM32F1xx_HAL_Driver/Src/stm32f1xx_hal_rcc.c ****     /* Check the LSE State */
 532              		.loc 1 467 0 discriminator 2
 533 025e 63B9     		cbnz	r3, .L45
 467:Drivers/STM32F1xx_HAL_Driver/Src/stm32f1xx_hal_rcc.c ****     /* Check the LSE State */
 534              		.loc 1 467 0 discriminator 3
 535 0260 03F18043 		add	r3, r3, #1073741824
 536 0264 03F50433 		add	r3, r3, #135168
 537 0268 1A6A     		ldr	r2, [r3, #32]
 538 026a 22F00102 		bic	r2, r2, #1
 539 026e 1A62     		str	r2, [r3, #32]
 540 0270 1A6A     		ldr	r2, [r3, #32]
 541 0272 22F00402 		bic	r2, r2, #4
 542 0276 1A62     		str	r2, [r3, #32]
 543 0278 14E0     		b	.L44
 544              	.L45:
 467:Drivers/STM32F1xx_HAL_Driver/Src/stm32f1xx_hal_rcc.c ****     /* Check the LSE State */
 545              		.loc 1 467 0 discriminator 4
 546 027a 052B     		cmp	r3, #5
 547 027c 09D1     		bne	.L46
 467:Drivers/STM32F1xx_HAL_Driver/Src/stm32f1xx_hal_rcc.c ****     /* Check the LSE State */
 548              		.loc 1 467 0 discriminator 5
 549 027e 0C4B     		ldr	r3, .L79
 550 0280 1A6A     		ldr	r2, [r3, #32]
 551 0282 42F00402 		orr	r2, r2, #4
 552 0286 1A62     		str	r2, [r3, #32]
 553 0288 1A6A     		ldr	r2, [r3, #32]
 554 028a 42F00102 		orr	r2, r2, #1
 555 028e 1A62     		str	r2, [r3, #32]
 556 0290 08E0     		b	.L44
ARM GAS  /tmp/ccJTbD9y.s 			page 41


 557              	.L46:
 467:Drivers/STM32F1xx_HAL_Driver/Src/stm32f1xx_hal_rcc.c ****     /* Check the LSE State */
 558              		.loc 1 467 0 discriminator 6
 559 0292 074B     		ldr	r3, .L79
 560 0294 1A6A     		ldr	r2, [r3, #32]
 561 0296 22F00102 		bic	r2, r2, #1
 562 029a 1A62     		str	r2, [r3, #32]
 563 029c 1A6A     		ldr	r2, [r3, #32]
 564 029e 22F00402 		bic	r2, r2, #4
 565 02a2 1A62     		str	r2, [r3, #32]
 566              	.L44:
 469:Drivers/STM32F1xx_HAL_Driver/Src/stm32f1xx_hal_rcc.c ****     {
 567              		.loc 1 469 0 is_stmt 1
 568 02a4 E368     		ldr	r3, [r4, #12]
 569 02a6 CBB1     		cbz	r3, .L47
 472:Drivers/STM32F1xx_HAL_Driver/Src/stm32f1xx_hal_rcc.c ****       
 570              		.loc 1 472 0
 571 02a8 FFF7FEFF 		bl	HAL_GetTick
 572              	.LVL44:
 573 02ac 0646     		mov	r6, r0
 574              	.LVL45:
 475:Drivers/STM32F1xx_HAL_Driver/Src/stm32f1xx_hal_rcc.c ****       {
 575              		.loc 1 475 0
 576 02ae 0FE0     		b	.L48
 577              	.L80:
 578              		.align	2
 579              	.L79:
 580 02b0 00100240 		.word	1073876992
 581 02b4 00004242 		.word	1111621632
 582 02b8 80044242 		.word	1111622784
 583 02bc 00700040 		.word	1073770496
 584              	.LVL46:
 585              	.L49:
 477:Drivers/STM32F1xx_HAL_Driver/Src/stm32f1xx_hal_rcc.c ****         {
 586              		.loc 1 477 0
 587 02c0 FFF7FEFF 		bl	HAL_GetTick
 588              	.LVL47:
 589 02c4 801B     		subs	r0, r0, r6
 590 02c6 41F28833 		movw	r3, #5000
 591 02ca 9842     		cmp	r0, r3
 592 02cc 00F28480 		bhi	.L71
 593              	.L48:
 475:Drivers/STM32F1xx_HAL_Driver/Src/stm32f1xx_hal_rcc.c ****       {
 594              		.loc 1 475 0
 595 02d0 494B     		ldr	r3, .L81
 596 02d2 1B6A     		ldr	r3, [r3, #32]
 597 02d4 13F0020F 		tst	r3, #2
 598 02d8 F2D0     		beq	.L49
 599 02da 0FE0     		b	.L50
 600              	.LVL48:
 601              	.L47:
 486:Drivers/STM32F1xx_HAL_Driver/Src/stm32f1xx_hal_rcc.c ****       
 602              		.loc 1 486 0
 603 02dc FFF7FEFF 		bl	HAL_GetTick
 604              	.LVL49:
 605 02e0 0646     		mov	r6, r0
 606              	.LVL50:
ARM GAS  /tmp/ccJTbD9y.s 			page 42


 489:Drivers/STM32F1xx_HAL_Driver/Src/stm32f1xx_hal_rcc.c ****       {
 607              		.loc 1 489 0
 608 02e2 06E0     		b	.L51
 609              	.LVL51:
 610              	.L52:
 491:Drivers/STM32F1xx_HAL_Driver/Src/stm32f1xx_hal_rcc.c ****         {
 611              		.loc 1 491 0
 612 02e4 FFF7FEFF 		bl	HAL_GetTick
 613              	.LVL52:
 614 02e8 801B     		subs	r0, r0, r6
 615 02ea 41F28833 		movw	r3, #5000
 616 02ee 9842     		cmp	r0, r3
 617 02f0 74D8     		bhi	.L72
 618              	.L51:
 489:Drivers/STM32F1xx_HAL_Driver/Src/stm32f1xx_hal_rcc.c ****       {
 619              		.loc 1 489 0
 620 02f2 414B     		ldr	r3, .L81
 621 02f4 1B6A     		ldr	r3, [r3, #32]
 622 02f6 13F0020F 		tst	r3, #2
 623 02fa F3D1     		bne	.L52
 624              	.L50:
 499:Drivers/STM32F1xx_HAL_Driver/Src/stm32f1xx_hal_rcc.c ****     {
 625              		.loc 1 499 0
 626 02fc 25B1     		cbz	r5, .L38
 501:Drivers/STM32F1xx_HAL_Driver/Src/stm32f1xx_hal_rcc.c ****     }
 627              		.loc 1 501 0
 628 02fe 3E4A     		ldr	r2, .L81
 629 0300 D369     		ldr	r3, [r2, #28]
 630 0302 23F08053 		bic	r3, r3, #268435456
 631 0306 D361     		str	r3, [r2, #28]
 632              	.LVL53:
 633              	.L38:
 634              	.LBE6:
 598:Drivers/STM32F1xx_HAL_Driver/Src/stm32f1xx_hal_rcc.c ****   {
 635              		.loc 1 598 0
 636 0308 E369     		ldr	r3, [r4, #28]
 637 030a 002B     		cmp	r3, #0
 638 030c 68D0     		beq	.L73
 601:Drivers/STM32F1xx_HAL_Driver/Src/stm32f1xx_hal_rcc.c ****     { 
 639              		.loc 1 601 0
 640 030e 3A4A     		ldr	r2, .L81
 641 0310 5268     		ldr	r2, [r2, #4]
 642 0312 02F00C02 		and	r2, r2, #12
 643 0316 082A     		cmp	r2, #8
 644 0318 64D0     		beq	.L74
 603:Drivers/STM32F1xx_HAL_Driver/Src/stm32f1xx_hal_rcc.c ****       {
 645              		.loc 1 603 0
 646 031a 022B     		cmp	r3, #2
 647 031c 37D1     		bne	.L53
 610:Drivers/STM32F1xx_HAL_Driver/Src/stm32f1xx_hal_rcc.c ****         
 648              		.loc 1 610 0
 649 031e 0022     		movs	r2, #0
 650 0320 364B     		ldr	r3, .L81+4
 651 0322 1A60     		str	r2, [r3]
 613:Drivers/STM32F1xx_HAL_Driver/Src/stm32f1xx_hal_rcc.c ****         
 652              		.loc 1 613 0
 653 0324 FFF7FEFF 		bl	HAL_GetTick
ARM GAS  /tmp/ccJTbD9y.s 			page 43


 654              	.LVL54:
 655 0328 0546     		mov	r5, r0
 656              	.LVL55:
 616:Drivers/STM32F1xx_HAL_Driver/Src/stm32f1xx_hal_rcc.c ****         {
 657              		.loc 1 616 0
 658 032a 04E0     		b	.L54
 659              	.LVL56:
 660              	.L55:
 618:Drivers/STM32F1xx_HAL_Driver/Src/stm32f1xx_hal_rcc.c ****           {
 661              		.loc 1 618 0
 662 032c FFF7FEFF 		bl	HAL_GetTick
 663              	.LVL57:
 664 0330 401B     		subs	r0, r0, r5
 665 0332 0228     		cmp	r0, #2
 666 0334 58D8     		bhi	.L75
 667              	.L54:
 616:Drivers/STM32F1xx_HAL_Driver/Src/stm32f1xx_hal_rcc.c ****         {
 668              		.loc 1 616 0
 669 0336 304B     		ldr	r3, .L81
 670 0338 1B68     		ldr	r3, [r3]
 671 033a 13F0007F 		tst	r3, #33554432
 672 033e F5D1     		bne	.L55
 626:Drivers/STM32F1xx_HAL_Driver/Src/stm32f1xx_hal_rcc.c ****         {
 673              		.loc 1 626 0
 674 0340 236A     		ldr	r3, [r4, #32]
 675 0342 B3F5803F 		cmp	r3, #65536
 676 0346 06D1     		bne	.L56
 638:Drivers/STM32F1xx_HAL_Driver/Src/stm32f1xx_hal_rcc.c ****         }
 677              		.loc 1 638 0
 678 0348 2B49     		ldr	r1, .L81
 679 034a 4B68     		ldr	r3, [r1, #4]
 680 034c 23F40032 		bic	r2, r3, #131072
 681 0350 A368     		ldr	r3, [r4, #8]
 682 0352 1343     		orrs	r3, r3, r2
 683 0354 4B60     		str	r3, [r1, #4]
 684              	.L56:
 642:Drivers/STM32F1xx_HAL_Driver/Src/stm32f1xx_hal_rcc.c ****                              RCC_OscInitStruct->PLL.PLLMUL);
 685              		.loc 1 642 0
 686 0356 2848     		ldr	r0, .L81
 687 0358 4368     		ldr	r3, [r0, #4]
 688 035a 23F47411 		bic	r1, r3, #3997696
 689 035e 236A     		ldr	r3, [r4, #32]
 690 0360 626A     		ldr	r2, [r4, #36]
 691 0362 1343     		orrs	r3, r3, r2
 692 0364 0B43     		orrs	r3, r3, r1
 693 0366 4360     		str	r3, [r0, #4]
 645:Drivers/STM32F1xx_HAL_Driver/Src/stm32f1xx_hal_rcc.c ****         
 694              		.loc 1 645 0
 695 0368 0122     		movs	r2, #1
 696 036a 244B     		ldr	r3, .L81+4
 697 036c 1A60     		str	r2, [r3]
 648:Drivers/STM32F1xx_HAL_Driver/Src/stm32f1xx_hal_rcc.c ****         
 698              		.loc 1 648 0
 699 036e FFF7FEFF 		bl	HAL_GetTick
 700              	.LVL58:
 701 0372 0446     		mov	r4, r0
 702              	.LVL59:
ARM GAS  /tmp/ccJTbD9y.s 			page 44


 651:Drivers/STM32F1xx_HAL_Driver/Src/stm32f1xx_hal_rcc.c ****         {
 703              		.loc 1 651 0
 704 0374 04E0     		b	.L57
 705              	.LVL60:
 706              	.L58:
 653:Drivers/STM32F1xx_HAL_Driver/Src/stm32f1xx_hal_rcc.c ****           {
 707              		.loc 1 653 0
 708 0376 FFF7FEFF 		bl	HAL_GetTick
 709              	.LVL61:
 710 037a 001B     		subs	r0, r0, r4
 711 037c 0228     		cmp	r0, #2
 712 037e 35D8     		bhi	.L76
 713              	.L57:
 651:Drivers/STM32F1xx_HAL_Driver/Src/stm32f1xx_hal_rcc.c ****         {
 714              		.loc 1 651 0
 715 0380 1D4B     		ldr	r3, .L81
 716 0382 1B68     		ldr	r3, [r3]
 717 0384 13F0007F 		tst	r3, #33554432
 718 0388 F5D0     		beq	.L58
 683:Drivers/STM32F1xx_HAL_Driver/Src/stm32f1xx_hal_rcc.c **** }
 719              		.loc 1 683 0
 720 038a 0020     		movs	r0, #0
 721 038c 31E0     		b	.L13
 722              	.LVL62:
 723              	.L53:
 662:Drivers/STM32F1xx_HAL_Driver/Src/stm32f1xx_hal_rcc.c ****  
 724              		.loc 1 662 0
 725 038e 0022     		movs	r2, #0
 726 0390 1A4B     		ldr	r3, .L81+4
 727 0392 1A60     		str	r2, [r3]
 665:Drivers/STM32F1xx_HAL_Driver/Src/stm32f1xx_hal_rcc.c ****         
 728              		.loc 1 665 0
 729 0394 FFF7FEFF 		bl	HAL_GetTick
 730              	.LVL63:
 731 0398 0446     		mov	r4, r0
 732              	.LVL64:
 668:Drivers/STM32F1xx_HAL_Driver/Src/stm32f1xx_hal_rcc.c ****         {
 733              		.loc 1 668 0
 734 039a 04E0     		b	.L59
 735              	.LVL65:
 736              	.L60:
 670:Drivers/STM32F1xx_HAL_Driver/Src/stm32f1xx_hal_rcc.c ****           {
 737              		.loc 1 670 0
 738 039c FFF7FEFF 		bl	HAL_GetTick
 739              	.LVL66:
 740 03a0 001B     		subs	r0, r0, r4
 741 03a2 0228     		cmp	r0, #2
 742 03a4 24D8     		bhi	.L77
 743              	.L59:
 668:Drivers/STM32F1xx_HAL_Driver/Src/stm32f1xx_hal_rcc.c ****         {
 744              		.loc 1 668 0
 745 03a6 144B     		ldr	r3, .L81
 746 03a8 1B68     		ldr	r3, [r3]
 747 03aa 13F0007F 		tst	r3, #33554432
 748 03ae F5D1     		bne	.L60
 683:Drivers/STM32F1xx_HAL_Driver/Src/stm32f1xx_hal_rcc.c **** }
 749              		.loc 1 683 0
ARM GAS  /tmp/ccJTbD9y.s 			page 45


 750 03b0 0020     		movs	r0, #0
 751 03b2 1EE0     		b	.L13
 752              	.LVL67:
 753              	.L61:
 283:Drivers/STM32F1xx_HAL_Driver/Src/stm32f1xx_hal_rcc.c ****       }
 754              		.loc 1 283 0
 755 03b4 0120     		movs	r0, #1
 756              	.LVL68:
 757 03b6 1CE0     		b	.L13
 758              	.LVL69:
 759              	.L62:
 303:Drivers/STM32F1xx_HAL_Driver/Src/stm32f1xx_hal_rcc.c ****           }
 760              		.loc 1 303 0
 761 03b8 0320     		movs	r0, #3
 762 03ba 1AE0     		b	.L13
 763              	.L63:
 317:Drivers/STM32F1xx_HAL_Driver/Src/stm32f1xx_hal_rcc.c ****           }
 764              		.loc 1 317 0
 765 03bc 0320     		movs	r0, #3
 766 03be 18E0     		b	.L13
 767              	.LVL70:
 768              	.L64:
 337:Drivers/STM32F1xx_HAL_Driver/Src/stm32f1xx_hal_rcc.c ****       }
 769              		.loc 1 337 0
 770 03c0 0120     		movs	r0, #1
 771 03c2 16E0     		b	.L13
 772              	.LVL71:
 773              	.L65:
 362:Drivers/STM32F1xx_HAL_Driver/Src/stm32f1xx_hal_rcc.c ****           }
 774              		.loc 1 362 0
 775 03c4 0320     		movs	r0, #3
 776 03c6 14E0     		b	.L13
 777              	.L66:
 382:Drivers/STM32F1xx_HAL_Driver/Src/stm32f1xx_hal_rcc.c ****           }
 778              		.loc 1 382 0
 779 03c8 0320     		movs	r0, #3
 780 03ca 12E0     		b	.L13
 781              	.L67:
 408:Drivers/STM32F1xx_HAL_Driver/Src/stm32f1xx_hal_rcc.c ****         }
 782              		.loc 1 408 0
 783 03cc 0320     		movs	r0, #3
 784 03ce 10E0     		b	.L13
 785              	.L68:
 428:Drivers/STM32F1xx_HAL_Driver/Src/stm32f1xx_hal_rcc.c ****         }
 786              		.loc 1 428 0
 787 03d0 0320     		movs	r0, #3
 788 03d2 0EE0     		b	.L13
 789              	.LVL72:
 790              	.L70:
 791              	.LBB8:
 461:Drivers/STM32F1xx_HAL_Driver/Src/stm32f1xx_hal_rcc.c ****         }
 792              		.loc 1 461 0
 793 03d4 0320     		movs	r0, #3
 794 03d6 0CE0     		b	.L13
 795              	.L71:
 479:Drivers/STM32F1xx_HAL_Driver/Src/stm32f1xx_hal_rcc.c ****         }
 796              		.loc 1 479 0
ARM GAS  /tmp/ccJTbD9y.s 			page 46


 797 03d8 0320     		movs	r0, #3
 798 03da 0AE0     		b	.L13
 799              	.L72:
 493:Drivers/STM32F1xx_HAL_Driver/Src/stm32f1xx_hal_rcc.c ****         }
 800              		.loc 1 493 0
 801 03dc 0320     		movs	r0, #3
 802 03de 08E0     		b	.L13
 803              	.LVL73:
 804              	.L73:
 805              	.LBE8:
 683:Drivers/STM32F1xx_HAL_Driver/Src/stm32f1xx_hal_rcc.c **** }
 806              		.loc 1 683 0
 807 03e0 0020     		movs	r0, #0
 808 03e2 06E0     		b	.L13
 809              	.L74:
 679:Drivers/STM32F1xx_HAL_Driver/Src/stm32f1xx_hal_rcc.c ****     }
 810              		.loc 1 679 0
 811 03e4 0120     		movs	r0, #1
 812 03e6 04E0     		b	.L13
 813              	.LVL74:
 814              	.L75:
 620:Drivers/STM32F1xx_HAL_Driver/Src/stm32f1xx_hal_rcc.c ****           }
 815              		.loc 1 620 0
 816 03e8 0320     		movs	r0, #3
 817 03ea 02E0     		b	.L13
 818              	.LVL75:
 819              	.L76:
 655:Drivers/STM32F1xx_HAL_Driver/Src/stm32f1xx_hal_rcc.c ****           }
 820              		.loc 1 655 0
 821 03ec 0320     		movs	r0, #3
 822 03ee 00E0     		b	.L13
 823              	.L77:
 672:Drivers/STM32F1xx_HAL_Driver/Src/stm32f1xx_hal_rcc.c ****           }
 824              		.loc 1 672 0
 825 03f0 0320     		movs	r0, #3
 826              	.LVL76:
 827              	.L13:
 684:Drivers/STM32F1xx_HAL_Driver/Src/stm32f1xx_hal_rcc.c **** 
 828              		.loc 1 684 0
 829 03f2 02B0     		add	sp, sp, #8
 830              	.LCFI4:
 831              		.cfi_def_cfa_offset 16
 832              		@ sp needed
 833 03f4 70BD     		pop	{r4, r5, r6, pc}
 834              	.L82:
 835 03f6 00BF     		.align	2
 836              	.L81:
 837 03f8 00100240 		.word	1073876992
 838 03fc 60004242 		.word	1111621728
 839              		.cfi_endproc
 840              	.LFE65:
 842              		.section	.text.HAL_RCC_MCOConfig,"ax",%progbits
 843              		.align	2
 844              		.global	HAL_RCC_MCOConfig
 845              		.thumb
 846              		.thumb_func
 848              	HAL_RCC_MCOConfig:
ARM GAS  /tmp/ccJTbD9y.s 			page 47


 849              	.LFB67:
 903:Drivers/STM32F1xx_HAL_Driver/Src/stm32f1xx_hal_rcc.c ****   GPIO_InitTypeDef gpio = {0U};
 850              		.loc 1 903 0
 851              		.cfi_startproc
 852              		@ args = 0, pretend = 0, frame = 24
 853              		@ frame_needed = 0, uses_anonymous_args = 0
 854              	.LVL77:
 855 0000 30B5     		push	{r4, r5, lr}
 856              	.LCFI5:
 857              		.cfi_def_cfa_offset 12
 858              		.cfi_offset 4, -12
 859              		.cfi_offset 5, -8
 860              		.cfi_offset 14, -4
 861 0002 87B0     		sub	sp, sp, #28
 862              	.LCFI6:
 863              		.cfi_def_cfa_offset 40
 864 0004 0D46     		mov	r5, r1
 904:Drivers/STM32F1xx_HAL_Driver/Src/stm32f1xx_hal_rcc.c **** 
 865              		.loc 1 904 0
 866 0006 0023     		movs	r3, #0
 867 0008 0493     		str	r3, [sp, #16]
 916:Drivers/STM32F1xx_HAL_Driver/Src/stm32f1xx_hal_rcc.c ****   gpio.Speed     = GPIO_SPEED_FREQ_HIGH;
 868              		.loc 1 916 0
 869 000a 0223     		movs	r3, #2
 870 000c 0393     		str	r3, [sp, #12]
 917:Drivers/STM32F1xx_HAL_Driver/Src/stm32f1xx_hal_rcc.c ****   gpio.Pull      = GPIO_NOPULL;
 871              		.loc 1 917 0
 872 000e 0323     		movs	r3, #3
 873 0010 0593     		str	r3, [sp, #20]
 919:Drivers/STM32F1xx_HAL_Driver/Src/stm32f1xx_hal_rcc.c **** 
 874              		.loc 1 919 0
 875 0012 4FF48073 		mov	r3, #256
 876 0016 0293     		str	r3, [sp, #8]
 877              	.LBB9:
 922:Drivers/STM32F1xx_HAL_Driver/Src/stm32f1xx_hal_rcc.c **** 
 878              		.loc 1 922 0
 879 0018 0A4C     		ldr	r4, .L85
 880 001a A369     		ldr	r3, [r4, #24]
 881 001c 43F00403 		orr	r3, r3, #4
 882 0020 A361     		str	r3, [r4, #24]
 883 0022 A369     		ldr	r3, [r4, #24]
 884 0024 03F00403 		and	r3, r3, #4
 885 0028 0193     		str	r3, [sp, #4]
 886 002a 019B     		ldr	r3, [sp, #4]
 887              	.LBE9:
 924:Drivers/STM32F1xx_HAL_Driver/Src/stm32f1xx_hal_rcc.c **** 
 888              		.loc 1 924 0
 889 002c 02A9     		add	r1, sp, #8
 890              	.LVL78:
 891 002e 0648     		ldr	r0, .L85+4
 892              	.LVL79:
 893 0030 FFF7FEFF 		bl	HAL_GPIO_Init
 894              	.LVL80:
 927:Drivers/STM32F1xx_HAL_Driver/Src/stm32f1xx_hal_rcc.c **** }
 895              		.loc 1 927 0
 896 0034 6368     		ldr	r3, [r4, #4]
 897 0036 23F0E063 		bic	r3, r3, #117440512
ARM GAS  /tmp/ccJTbD9y.s 			page 48


 898 003a 1D43     		orrs	r5, r5, r3
 899              	.LVL81:
 900 003c 6560     		str	r5, [r4, #4]
 928:Drivers/STM32F1xx_HAL_Driver/Src/stm32f1xx_hal_rcc.c **** 
 901              		.loc 1 928 0
 902 003e 07B0     		add	sp, sp, #28
 903              	.LCFI7:
 904              		.cfi_def_cfa_offset 12
 905              		@ sp needed
 906 0040 30BD     		pop	{r4, r5, pc}
 907              	.L86:
 908 0042 00BF     		.align	2
 909              	.L85:
 910 0044 00100240 		.word	1073876992
 911 0048 00080140 		.word	1073809408
 912              		.cfi_endproc
 913              	.LFE67:
 915              		.section	.text.HAL_RCC_EnableCSS,"ax",%progbits
 916              		.align	2
 917              		.global	HAL_RCC_EnableCSS
 918              		.thumb
 919              		.thumb_func
 921              	HAL_RCC_EnableCSS:
 922              	.LFB68:
 940:Drivers/STM32F1xx_HAL_Driver/Src/stm32f1xx_hal_rcc.c ****   *(__IO uint32_t *) RCC_CR_CSSON_BB = (uint32_t)ENABLE;
 923              		.loc 1 940 0
 924              		.cfi_startproc
 925              		@ args = 0, pretend = 0, frame = 0
 926              		@ frame_needed = 0, uses_anonymous_args = 0
 927              		@ link register save eliminated.
 941:Drivers/STM32F1xx_HAL_Driver/Src/stm32f1xx_hal_rcc.c **** }
 928              		.loc 1 941 0
 929 0000 0122     		movs	r2, #1
 930 0002 014B     		ldr	r3, .L88
 931 0004 1A60     		str	r2, [r3]
 932 0006 7047     		bx	lr
 933              	.L89:
 934              		.align	2
 935              	.L88:
 936 0008 4C004242 		.word	1111621708
 937              		.cfi_endproc
 938              	.LFE68:
 940              		.section	.text.HAL_RCC_DisableCSS,"ax",%progbits
 941              		.align	2
 942              		.global	HAL_RCC_DisableCSS
 943              		.thumb
 944              		.thumb_func
 946              	HAL_RCC_DisableCSS:
 947              	.LFB69:
 949:Drivers/STM32F1xx_HAL_Driver/Src/stm32f1xx_hal_rcc.c ****   *(__IO uint32_t *) RCC_CR_CSSON_BB = (uint32_t)DISABLE;
 948              		.loc 1 949 0
 949              		.cfi_startproc
 950              		@ args = 0, pretend = 0, frame = 0
 951              		@ frame_needed = 0, uses_anonymous_args = 0
 952              		@ link register save eliminated.
 950:Drivers/STM32F1xx_HAL_Driver/Src/stm32f1xx_hal_rcc.c **** }
 953              		.loc 1 950 0
ARM GAS  /tmp/ccJTbD9y.s 			page 49


 954 0000 0022     		movs	r2, #0
 955 0002 014B     		ldr	r3, .L91
 956 0004 1A60     		str	r2, [r3]
 957 0006 7047     		bx	lr
 958              	.L92:
 959              		.align	2
 960              	.L91:
 961 0008 4C004242 		.word	1111621708
 962              		.cfi_endproc
 963              	.LFE69:
 965              		.section	.text.HAL_RCC_GetSysClockFreq,"ax",%progbits
 966              		.align	2
 967              		.global	HAL_RCC_GetSysClockFreq
 968              		.thumb
